:100000000C940C010C942D010C942D010C942D01D9
:100010000C942D010C942D010C942D010C942D01A8
:100020000C942D010C942D010C94B1140C942D0101
:100030000C942D010C942D010C942D010C942D0188
:100040000C942D010C942D010C942D010C942D0178
:100050000C942D010C942D010C942D010C942D0168
:100060000C942D010C94BF130C942D010C94EB13E4
:100070000C94AB120C942D010C94D7120C942D01FE
:100080000C942D010C942D010C94320D0C942D0127
:100090000C942D010C942D010C942D010C942D0128
:1000A0000C942D010C942D010C942D010C942D0118
:1000B0000C942D010C942D010C94710D0C942D01B8
:1000C0000C942D010C942D010C942D010C942D01F8
:1000D0000C942D010C942D010C942D010C942D01E8
:1000E0000C942D010C942D010C9463130C942D0190
:1000F0000C948F130C942D010C942D010C942D0154
:100100000C942D010C942D010C942D010C942D01B7
:100110000C942D010C942D010C942D010C94F814C9
:100120000C942D010C942D010C942D010C942D0197
:100130000C942D010C942D010C942D010C942D0187
:100140000C942D010C942D010C942D010C94D415BC
:100150000C942D010C942D010C942D010C942D0167
:100160000C941B140C942D010C9447140C944F12F6
:100170000C942D010C947B120C942D010C942D01E8
:100180000C942D010C942D010C942D010C942D0137
:100190000C942D010C942D010C942D010C942D0127
:1001A0000C942D010C942D010C942D010C942D0117
:1001B0000C94D00D0C942D010C942D010C942D0158
:1001C0000C942D010C942D010C942D010C942D01F7
:1001D0000C942D010C942D010C942D010C940713FB
:1001E0000C942D010C943313CB25FD24DE25122510
:1001F000F225272505263C25182651253426662577
:100200004F267B2566268825732697258026A625DA
:100210009226B925A526B32611241FBECFEFDFE510
:10022000DEBFCDBF00E00CBF19E2A0E0B0E2EAEE15
:10023000F2E800E00BBF02C007900D92A233B107B5
:10024000D9F71FE2A2E3B9E201C01D92A938B107B4
:10025000E1F70E94C0380C9473410C940000609147
:100260006429709165298091662990916729089584
:100270000C94350C0C94430CCF9381E090E0809368
:100280003629909337298091342990913529892BEB
:1002900031F00E943801892B11F00E943A010E942E
:1002A00048080E942F09C0E08C2F0E941B0F0E945B
:1002B000A4028C2F0E944E10CF5FC630A9F70E9477
:1002C000D8051092362910923729CF9108950E94AF
:1002D000BF050E94C0090E94F3060E94F8070E9411
:1002E000DB020E9406110E94D6070E949A050E9416
:1002F000C30D0E94960C81E090E080933429909386
:1003000035290C94D91480932D2A90932E2A089580
:1003100080932D2A90932E2A44E050E06DE27AE2F9
:1003200080E090E00C9436110C94FF0DFB012FB788
:10033000F894978DDB01A90FB11D8C93892F8F5FE6
:100340008E3111F0878F01C0178E878D968D89179A
:1003500011F02FBF08958F5F868F8E31D1F7168EE3
:10036000F8CFFC01968D878D981308C004C0168EB7
:100370009FBF30E00FC02FEF3FEF0CC09FB7F89446
:10038000868DDF01A80FB11D2C918F5F8E3179F31F
:10039000868FEECFC9010895FC0181E0268D978DEF
:1003A000291380E0089581E00895E0916D29F0918E
:1003B0006E29309749F08081813021F08F3F21F400
:1003C0000E9494010E94120480E00895863008F093
:1003D0003FC098E5899FF0011124EE58F34D8785C1
:1003E0009089892BA9F12FB7F894A785B0895296E7
:1003F0008D919C9153978787908B892BA1F0A09327
:100400006D29B0936E292FBFA0916D29B0916E29EF
:1004100052961D921C9253975696ED91FC915797C8
:10042000309739F40FC0118A128A86858F778687B4
:10043000E6CF687151968C915197877E682B5196C3
:100440006C93199510926D2910926E2981E0089590
:1004500080E00895CF93C82F863030F468E18C2F68
:100460000E94E6018111FACFCF910895EF92FF9299
:100470000F931F93CF93DF93EC01CA01209751F1A3
:10048000663040F5223130F5009721F138E5639F61
:10049000F0011124EE58F34D30813068398B1A8AFF
:1004A0001B8A0C8B1D8BEE8AFF8A022F10E0422FD5
:1004B00050E0BC01CE010E942C3EC00FD11F41E193
:1004C00050E0401B510B6FEF70E0CE010E94353EB3
:1004D00081E001C080E0DF91CF911F910F91FF90EB
:1004E000EF900895009771F1DC015196EC91E7705F
:1004F000E63030F56FB7F8942E2F30E0B8E5EB9F7B
:10050000F0011124EE58F34D47855089452B19F41D
:100510008787908B05C00188F289E02D828B938BB1
:1005200048E5429FF001439FF00D1124EE58F34D32
:10053000818B928B8685806886876FBF81E0089566
:100540000E94040780E008950E94291080936D297D
:1005500090936E29009769F1DC015496ED91FC911E
:100560005597309719F40E94D50101C019958091D3
:100570006D2990916E29FC012189E22FE77038E501
:10058000E39FF0011124EE58F34D25FB442740F979
:1005900021E030E001C0220F4A95EAF73685322B80
:1005A00036870E94040710926D2910926E2981E00F
:1005B000089580E008950E94DD101092682910923D
:1005C000692910926A2910926B2910926C2908955A
:1005D0000C9471170F931F93CF93DF9300D000D02B
:1005E000CDB7DEB781E0898383E08A830E949211D0
:1005F0009B838C83A091822EB091832E19968C912F
:10060000199790E0FC01EE0FFF1FE159F64D208194
:1006100031813D832E8321E1289FF001299FF00D38
:100620001124E558F64D108A0FE715E020E030E080
:1006300046E0BE016F5F7F4F19968C910E9479074B
:100640002696CDBFDEBFDF91CF911F910F91089508
:10065000FF920F931F93CF93DF9300D01F92CDB7DC
:10066000DEB7E091822EF091832EF18481E08983C0
:100670008A830E9492119B838C8381E1F89E900172
:100680001124F901E558F64D108A8285882329F056
:10069000C9018358964D0E94D90801E613E020E075
:1006A00030E044E0BE016F5F7F4F8F2D0E947907DD
:1006B0002496CDBFDEBFDF91CF911F910F91FF90A8
:1006C000089580916D2990916E29DC015196EC91ED
:1006D0002E2F2871AE2FA770283059F421E1A29F48
:1006E000D0011124A558B64D44E650E060E070E01A
:1006F0000AC021E1A29FD0011124A558B64D42E3C2
:1007000050E060E070E01C964D935D936D937C9398
:100710001F97E770A1E1EA9FF0011124E558F64D1B
:1007200021E0208B0C940407FB01908381830895C2
:10073000FC01308120E08181282BC9010895EFE67A
:10074000F9E280E021913191232B09F08F5F99E24A
:10075000EB37F907B9F70895EFE6F9E28081918167
:100760000895E9E7F9E2808191810895E1E7F9E2EE
:10077000808191810895E7E7F9E280819181089570
:10078000E3E7F9E2808191810895E5E7F9E280816C
:1007900091810895863080F4E82FF0E0EE0FFF1F7E
:1007A000E159F64D808191818617970729F0608382
:1007B000718383E10C944F0608951F93CF93DF93C9
:1007C000182F60E070E00E94CA03C12FD0E081E1E1
:1007D000189F90011124F901E558F64D108A828581
:1007E000882329F0C9018358964D0E94D90881E1D8
:1007F0008C9FF0018D9FF00D1124E558F64D138765
:1008000088E293E08087918782E390E0A0E0B0E007
:1008100084879587A687B78781E0808BDF91CF910A
:100820001F910895DF92EF92FF920F931F93CF9342
:10083000DF9300D000D0CDB7DEB7E0916D29F09105
:100840006E29309709F400C19181923009F45CC09F
:10085000933009F4BEC0913009F0F8C0E189E77027
:1008600011E11E9FF0011124E558F64D4485558590
:1008700066857785443651056105710509F4E6C042
:10088000998382E08A830E9492119B838C83E091FA
:100890006D29F0916E2982818D8383818E83818978
:1008A00060E070E087700E94CA03A0916D29B0914A
:1008B0006E295196EC915197E7701E9FF00111241B
:1008C000E558F64D108A51968C918770189FC0019B
:1008D0001124FC01E558F64D2285222321F083588E
:1008E000964D0E94D908E0916D29F0916E29818979
:1008F00002E315E020E030E046E0BE016F5F7F4F8D
:1009000087700E947907A2C0A189A77051E1D52EF6
:10091000DA9ED0011124A558B64D1C964D915D91DB
:100920006D917C911F97443651056105710509F061
:100930008DC002811381348120E085817901E82A0C
:100940000E949211E816F90609F080C0A0916D2965
:10095000B0916E295196EC915197E770DE9EF001AF
:100960001124E558F64D108A51968C918770D89EC7
:10097000C0011124FC01E558F64D2285222321F007
:100980008358964D0E94D90820916D2930916E2987
:10099000D9015196EC91E770B1E1EB9FF001112480
:1009A000E558F64D84EF91E0A0E0B0E084879587AC
:1009B000A687B7878AEE92E08087918781E0808B57
:1009C000702F60E0612BF901818987700E94CA0352
:1009D0003DC0A189A77021E1A29FD0011124A55893
:1009E000B64D1C968D919D910D90BC91A02D843F8C
:1009F0009140A105B10551F5E280F380948180E03A
:100A000025818C01022B0E9492110817190799F475
:100A10009E2D80E08F29E0916D29F0916E29E1896A
:100A2000E770F0E0EE0FFF1FE159F64D20813181B4
:100A30008217930759F0E0916D29F0916E29818911
:100A400087700E94DD0302C080E001C081E026962D
:100A5000CDBFDEBFDF91CF911F910F91FF90EF903F
:100A6000DF900895CF93DF93E0916D29F0916E2987
:100A70008189982F98719830B9F5748160E09581DB
:100A8000EB01C92B877021E1829FC0011124FC0179
:100A9000E558F64D44EF51E060E070E0448755873B
:100AA000668777872285222321F08358964D0E94FE
:100AB000D908A0916D29B0916E295196EC9151976A
:100AC000E77081E1E89FF0011124E558F64D8AEEC8
:100AD00092E08087918781E0808B51968C91BE0156
:100AE00087700E94CA0303C087700E94DD03809153
:100AF0006D2990916E29DF91CF910C940407E091BC
:100B00006D29F0916E298189982F9871877098309E
:100B100049F491E1899FF0011124E558F64D81E0F7
:100B2000808B02C00E94DD0380916D2990916E2917
:100B30000C940407FF920F931F93CF93DF930BE85E
:100B400019E2C0E0D0E061E1F62EFC9EC001FD9EFE
:100B5000900D11248558964D0E945A09F801108273
:100B60008C2F0E94DD0321960F5E1F4FC630D105EA
:100B700061F7DF91CF911F910F91FF90089510922F
:100B8000E1291092E2291092E3291092E4291092AF
:100B9000E5291092E6291092E7291092E829E9EE5A
:100BA000F9E2119211928AE2E932F807D1F7089539
:100BB0008F929F92AF92BF92CF92DF92EF92FF926D
:100BC0000F931F93CF93DF932091E1293091E22976
:100BD0004091E3295091E4296091E5297091E6293B
:100BE0008091E7299091E829A0E00E946F3B09F4E9
:100BF00049C009EE19E2C12CD12C7601C394809032
:100C0000E1299090E229A090E329B090E429D7014E
:100C1000C6012C2D2821392F39214A2F4A215B2F3B
:100C20005B2160E070E080E090E0A0E00E946F3B1C
:100C3000F1F0D701C60180959095A095B0958822D6
:100C40009922AA22BB228092E1299092E229A092C5
:100C5000E329B092E4291092E5291092E629109236
:100C6000E7291092E829D801ED91FC911995CC0C57
:100C7000DD1CEE1CFF1C0E5F1F4FBAE209321B0782
:100C800009F0BDCFDF91CF911F910F91FF90EF90B1
:100C9000DF90CF90BF90AF909F908F900895CF93AB
:100CA000DF93482F803260F5E82FF0E0EE0FFF1F52
:100CB000E751F64D20813181232B11F181E090E045
:100CC000A0E0B0E004C0880F991FAA1FBB1F4A957F
:100CD000D2F75091E129582B4091E229492B3091CC
:100CE000E3293A2B2091E4292B2B5093E1294093BF
:100CF000E2293093E3292093E42921E030E002C087
:100D000020E030E0C901DF91CF910895803278F47E
:100D1000E82FF0E0EE0FFF1FE751F64D8081918143
:100D2000892B29F46083718321E030E002C020E048
:100D300030E0C9010895803278F4E82FF0E0EE0F3A
:100D4000FF1FE751F64D80819181892B29F0108298
:100D5000118221E030E002C020E030E0C9010895B6
:100D6000803260F4E82FF0E0EE0FFF1FE751F64D00
:100D70000190F081E02D309709F019940895809149
:100D80002C2A089580912C2A8F5F893008F080E00A
:100D9000089580932C2A90E0FC01EE0FFF1FE80FCE
:100DA000F91FEB5DFF4D20912420428161818081FC
:100DB0000C94DE100E94C2060E94C90680912C2A63
:100DC00008950C94DE1080932420282F40912B2A24
:100DD00060912A2A8091292A0C94DE108091242087
:100DE00008950C940611E2E6FBE2108278968CE2FC
:100DF000E238F807D1F7E2E4FAE2108278968BE263
:100E0000E236F807D1F70895FC0109C0818987FD12
:100E1000118A92898389128A138AE92FF82F3097D1
:100E2000A9F70895811103C081E59BE202C081E327
:100E30009AE22CE0FC01E85FFE4FDC01A75EBE4FAA
:100E40003C9137FD05C080E8818B128A138A06C069
:100E5000215048972111EECFE0E0F0E0CF01089556
:100E600080E00C94120781E00C941207EF92FF923D
:100E70000F931F93CF93DF93EC01CB01EFE6F9E2E1
:100E800060E0A191B191A817B90761F4CE010E9469
:100E90003602811102C080E009C0CE010E947202B8
:100EA00081E004C06F5F663061F7F5CFDF91CF91CD
:100EB0001F910F91FF90EF900895EF92FF920F9383
:100EC0001F93CF93DF93EC016F3F11F480E00AC0D2
:100ED0006630E0F70E9436028823C1F3CE010E94FB
:100EE000720281E0DF91CF911F910F91FF90EF90FF
:100EF00008956F927F928F929F92AF92BF92CF92FE
:100F0000DF92EF92FF920F931F93CF93DF93782E90
:100F10006B01642E590148018FEF78121BC0712CB0
:100F20000E943307EC01009781F074018501262DA2
:100F3000A601672D0E943602811104C0CE010E94D5
:100F4000040703C0CE010E947202739486E07812F7
:100F5000E7CF1CC085E0871508F411C00E94330755
:100F6000EC01009761F078018501262DA601672D1F
:100F70000E943602811105C0CE010E940407712C27
:100F800005C0CE010E94720277247394872DDF91F1
:100F9000CF911F910F91FF90EF90DF90CF90BF9076
:100FA000AF909F908F907F906F9008950895E091FB
:100FB000822EF091832E0284F385E02D8585806456
:100FC00085870895FC01158680E48687CF01019608
:100FD0008387948787ED97E0878390871786108AA9
:100FE000118A128A138A148A158A168A178A089512
:100FF000FF920F931F93CF93DF9302E71CE2C0E0B1
:10100000D0E088E5F82EF801C083FC9EC001FD9E6B
:10101000900D11248E58934D0E94E2072196085A94
:101020001F4FC630D10579F7DF91CF911F910F91F6
:10103000FF900C94F5110E9467010E943F1980E017
:101040000E94B00681E0FCCFCF92DF92EF92FF9238
:10105000CF93DF93EC010E9477146B017C01CE01EA
:10106000AA2797FDA095BA2FC80ED91EEA1EFB1E0F
:101070000E9477146C157D058E059F05C8F3DF91DE
:10108000CF91FF90EF90DF90CF9008950C9477145C
:101090000F931F93CF93DF9300D01F92CDB7DEB78E
:1010A0008091862E9091872E892B99F10E9477143A
:1010B000E091862EF091872E028113812481358163
:1010C000601771078207930720F1E093822EF09357
:1010D000832E208131812093862E3093872E208588
:1010E000222361F00680F781E02D69837A838B8368
:1010F0009C8319959C818B817A816981E091822EF4
:10110000F091832E10862091862E3091872E232BEE
:1011100079F62496CDBFDEBFDF91CF911F910F915D
:1011200008950F931F93CF93DF93FC0110821182D8
:10113000A091862EB091872E109729F48093862E49
:101140009093872E2DC04281538164817581C0E0C8
:10115000D0E003C0DC01C32FD22F12960D911D9158
:101160002D913C911597041715072607370718F09E
:10117000209791F40CC08D919C9111973A2F2B2FB1
:10118000009741F7ED93FC931082118209C0E09320
:10119000862EF093872E02C0E883F983A083B18363
:1011A00081E0808781E090E0DF91CF911F910F91E6
:1011B0000895E091862EF091872E3097D1F0A0E02F
:1011C000B0E007C020813181DF012115310589F0B0
:1011D000F9018E179F07B1F70FC02093862E309329
:1011E000872E02C02D933C93FC01108621E030E055
:1011F00009C020E030E006C0FC0120813181109759
:1012000089F7EBCFC9010895E091862EF091872EE2
:101210003097D9F0A0E0B0E007C020813181DF0134
:101220002115310591F0F9012681378128173907F9
:10123000A1F70EC08093862E9093872E02C08D93C7
:101240009C93108621E030E008C020E030E005C02B
:1012500080819181109799F7EDCFC90108950F937F
:101260001F93CF93DF93C091842ED091852E1BC006
:1012700088898130A9F48A85811112C00E9477146F
:101280000C851D852E853F85600F711F821F931F62
:101290006C837D838E839F83CE0102960E9491088A
:1012A0000990D881C02D209719F7DF91CF911F9118
:1012B0000F910895FC0110821182E091842EF0912B
:1012C000852E309759F48093842E9093852E10C0EC
:1012D0008E179F0711F40E941A3EF9012081318177
:1012E00021153105A9F78E179F07A9F380839183F4
:1012F00021E0FC01208B81E090E00895E091842EB4
:10130000F091852E3097D9F0A0E0B0E007C02081A1
:101310003181DF012115310591F0F901E817F90755
:10132000B1F710C08093842E9093852E02C08D93C8
:101330009C9310821182108A21E030E008C020E0E6
:1013400030E005C080819181109789F7EBCFC9010A
:1013500008950F931F93CF93DF938C010E947E0912
:10136000EC010115110531F0C80102960E94D9085F
:10137000C80FD91FCE01DF91CF911F910F91089512
:101380001092862E1092872E1092822E1092832E0B
:101390001092842E1092852E0C94AD148091882E7C
:1013A0009091892E08958091CF0187FDFCCF0895FB
:1013B000CF93DF931F921F92CDB7DEB76A838983E5
:1013C0000E94D3096A816F71898120E2829FC001E6
:1013D0001124862BE0ECF1E080839183128286E079
:1013E0008287EF93FF930F932F93EBECF1E008EDDF
:1013F00021E004BF20832F910F91FF91EF91848111
:101400000F900F90DF91CF9108950E94D3098091A2
:10141000CF0181FF11C086E38093CA01EF93FF9350
:101420000F932F93EBECF1E008ED21E004BF208354
:101430002F910F91FF91EF910895CF93DF9300D0FB
:10144000CDB7DEB74B836A8389830E94050AE0EC3F
:10145000F1E093E392876A816F71898120E2829F34
:10146000C0011124862B8083918312824B81448397
:1014700085E38287EF93FF930F932F93EBECF1E0DB
:1014800008ED21E004BF20832F910F91FF91EF9190
:101490002396CDBFDEBFDF91CF910895CF93DF9329
:1014A0001F921F92CDB7DEB76A8389830E94D3094A
:1014B000E0ECF1E093E392878981808311821282CC
:1014C0006A8164830F900F90DF91CF910895CF933D
:1014D000DF93EC010E94D30983E38093CA01109249
:1014E000C1011092C20180E08093C0019991909354
:1014F000C4018F5F8032C1F7DF91CF9108950F93C0
:101500001F93CF93DF931F921F92CDB7DEB78C014D
:101510004A8369830E94D30983E38093CA011092AE
:10152000C1011092C2014A816981460F08C06093CF
:10153000C001F80181918F018093C4016F5F64172E
:1015400011F06032A0F30F900F90DF91CF911F91B7
:101550000F910895CF93DF931F92CDB7DEB78983A4
:101560000E94D309898120E2829FC0011124E0EC0E
:10157000F1E080839183128285E38287EF93FF936A
:101580000F932F93EBECF1E008ED21E004BF2083F3
:101590002F910F91FF91EF910F90DF91CF910895CF
:1015A000CF93DF931F92CDB7DEB789830E94D30913
:1015B000898120E2829FC0011124E0ECF1E0808368
:1015C0009183128282E38287EF93FF930F932F938D
:1015D000EBECF1E008ED21E004BF20832F910F91A7
:1015E000FF91EF910F90DF91CF910895CF93DF930B
:1015F0001F92CDB7DEB789830E94D309898120E28B
:10160000829FC0011124E0ECF1E08083918312827B
:1016100084E38287EF93FF930F932F93EBECF1E03A
:1016200008ED21E004BF20832F910F91FF91EF91EE
:101630000F90DF91CF9108950E94D30980E3E0ECF1
:10164000F1E08287EF93FF930F932F93EBECF1E0A0
:1016500008ED21E004BF20832F910F91FF91EF91BE
:1016600008958093C30A8091C20A87FFFCCF8091BE
:10167000C30A0895019749F480E1672B19F080931C
:10168000A50608958093A606089580E1672B19F0BA
:10169000809385060895809386060895EF92FF92C1
:1016A0000F931F93CF93DF93EB018A017901019789
:1016B000F1F480E18093A60683E00E94310B8D2F28
:1016C0000E94310B8C2F0E94310BE80106C080E094
:1016D0000E94310BF80181938F01C8018C1B9D0B77
:1016E0008E159F05A4F380E18093A50626C080E1B6
:1016F0008093860684ED0E94310B80E00E94310BBE
:10170000CE0188279370892F0E94310B8C2F0E9465
:10171000310B80E00E94310BE80106C080E00E949E
:10172000310BF80181938F01C8018C1B9D0B8E1525
:101730009F05A4F380E18093850681E090E0DF912E
:10174000CF911F910F91FF90EF900895EF92FF922C
:101750000F931F93CF93DF93EB018A0179010197D8
:10176000E9F480E18093A60682E00E94310B8D2F80
:101770000E94310B8C2F0E94310BE80105C0F8014B
:1017800081918F010E94310BC8018C1B9D0B8E151E
:101790009F05ACF380E18093A50622C080E1809391
:1017A000860684E80E94310B80E00E94310BCE0156
:1017B00088279370892F0E94310B8C2F0E94310B48
:1017C000E80105C0F80181918F010E94310BC80129
:1017D0008C1B9D0B8E159F05ACF380E180938506D5
:1017E00081E090E0DF91CF911F910F91FF90EF90FA
:1017F000089508951F93CF93DF93C0EAD6E010E1D8
:101800001E8381E00E94310B81E40E94310B1D8315
:101810001E8385E00E94310B80E00E94310B1D8306
:101820001F928F9386E894E29F938F930E94B23E1B
:101830000F900F900F900F90DF91CF911F9108950F
:10184000E0E8F6E080E185838183A0EAB6E01596C2
:101850008C93159711968C9380EA818380E4828320
:1018600080E58093C00A0C94FA0B80919A2E813007
:1018700031F48091992E21E030E0882311F020E0AE
:1018800030E0C9010895CF9380919A2E813009F0FC
:101890004BC08091992E811147C0C09167298091DA
:1018A000912E24E0829FC001112485958595809317
:1018B00064298091922E24E0829FC0011124859595
:1018C0008595809365298091932E24E0829FC001A5
:1018D000112485958595809366298091942E809317
:1018E000672910929A2E8BE00E944F06892BE1F413
:1018F0008091672985FF03C08CE00E944F0680918C
:10190000672987FF03C08DE00E944F06CF712C2FFF
:1019100030E0809167298F7190E02817390721F016
:101920008CE0CF910C944F06CF9108950F93CF93F5
:10193000DF931F921F92CDB7DEB72BE940E460EA38
:1019400074E08AE89EE20E947E1687E0898388E13F
:101950008A8300E022E0AE014F5F5F4F6CE48AE8CB
:101960009EE20E9499168091992E8111FCCF85E00C
:1019700089831A8200E022E0AE014F5F5F4F6CE482
:101980008AE89EE20E9499168091992E8111FCCFDF
:1019900086E0898387E08A8300E022E0AE014F5F22
:1019A0005F4F6CE48AE89EE20E9499168091992E1E
:1019B0008111FCCF88E0898380EE8A8300E022E0F9
:1019C000AE014F5F5F4F6CE48AE89EE20E94991679
:1019D0008091992E8111FCCF89E0898380E18A83EF
:1019E00000E022E0AE014F5F5F4F6CE48AE89EE2C8
:1019F0000E9499168091992E8111FCCF8AE08983EB
:101A000080E18A8300E022E0AE014F5F5F4F6CE42B
:101A10008AE89EE20E9499168091992E8111FCCF4E
:101A200087E0898389E18A8300E022E0AE014F5F8D
:101A30005F4F6CE48AE89EE20E9499168091992E8D
:101A40008111FCCF81E0809322069AE190933006C9
:101A500080932A06809329060F900F90DF91CF91F3
:101A60000F9108951F920F920FB60F9211240BB68B
:101A70000F920F932F933F934F935F936F937F93A7
:101A80008F939F93AF93BF93EF93FF93CF93DF9386
:101A90001F92CDB7DEB78091992E81110BC01982AC
:101AA00004E021E0AE014F5F5F4F6CE48AE89EE204
:101AB0000E9499160F90DF91CF91FF91EF91BF9106
:101AC000AF919F918F917F916F915F914F913F91D6
:101AD0002F910F910F900BBE0F900FBE0F901F9084
:101AE00018951F920F920FB60F9211240BB60F92FA
:101AF0002F933F934F935F936F937F938F939F9316
:101B0000AF93BF93EF93FF938AE89EE20E94491739
:101B1000FF91EF91BF91AF919F918F917F916F91C5
:101B20005F914F913F912F910F900BBE0F900FBE81
:101B30000F901F9018950F93CF93DF931F921F92D2
:101B4000CDB7DEB789836A8300E022E0AE014F5F44
:101B50005F4F6CE48AE89EE20E9499168091992E6C
:101B60008111FCCF0F900F90DF91CF910F910895CD
:101B7000E0E0FBE081E0808380E89EE386A397A31A
:101B800082E08683089510923629109237290E94A8
:101B9000B80DE0EAF0E0828187608283789408954E
:101BA0001F920F920FB60F9211240BB60F922F9324
:101BB0003F934F935F936F937F938F939F93AF93D5
:101BC000BF93EF93FF938091362990913729892B0A
:101BD00019F4A8950E943C01FF91EF91BF91AF913C
:101BE0009F918F917F916F915F914F913F912F9135
:101BF0000F900BBE0F900FBE0F901F901895E8E747
:101C0000F0E08181816098ED94BF81830895682719
:101C100028E030E067FF09C0862F90E0880F991F09
:101C200046EA84279095682F01C0660F215031093C
:101C300089F7862F08950F931F93CF93DF9398E52D
:101C4000899F80011124E801CE58D34D3E859D899E
:101C5000292F2695422F49279C7F9D8B40FF18C036
:101C600032FB992790F92170921312C068E00E940C
:101C7000E60194E09D878E85892780648E87C80160
:101C80008D58934DDF91CF911F910F910C94D908EE
:101C9000DF91CF911F910F9108950097D9F0FC012A
:101CA000128A138A2091682930916929232B29F4FB
:101CB000809368299093692906C0E0916A29F09180
:101CC0006B29828B938B80936A2990936B2980E890
:101CD00080936C290895282F982F9E7F81E098305B
:101CE00041F09A3031F0923129F02D3719F080E02F
:101CF0000895089508959F92AF92BF92CF92DF9278
:101D0000EF92FF920F931F93CF93DF93B82E7B0137
:101D10006115710509F483C062E1C62EC42A00E092
:101D200010E0D12C88E5B89EE0011124C655D34DB2
:101D300070E2972EF701E00FF11FA4886A2D8D2D18
:101D40000E94070ED82E8A2D0E946B0EBE0188239A
:101D500039F08DE70E949601BE018A2D892501C0C8
:101D60008A2D0E9496010F5F1F4F0230110511F757
:101D700001E1E8E5BE9EE0011124C655D34D50E2D5
:101D8000952EF70111917F01612F8D2D0E94070E75
:101D9000D82E812F0E946B0EA82EBE01882339F009
:101DA0008DE70E949601BE01812F892501C0812FF8
:101DB0000E949601015029F72B2D30E088E5AA20DA
:101DC00079F0829FE001839FD00D1124C655D34D39
:101DD000BE018DE70E949601BE0180E28D2508C0FC
:101DE000829FB001839F700D11246655734D8D2D18
:101DF0000E94960188E5B89EF0011124EE58F34D3B
:101E000060818C2DDF91CF911F910F91FF90EF900A
:101E1000DF90CF90BF90AF909F900C94B311DF9163
:101E2000CF911F910F91FF90EF90DF90CF90BF90D7
:101E3000AF909F9008952F923F924F925F926F9232
:101E40007F928F929F92AF92BF92CF92DF92EF924A
:101E5000FF920F931F93CF93DF93382EE82EF12C30
:101E6000F701E556F14D208088E58E9DE0018F9DBC
:101E7000D00D1124FAE86F2EFCE27F2E6C0E7D1E31
:101E8000C3010E94CC018111D1C0FE01EE58F34D77
:101E9000468857884114510421F0F201818986FD5A
:101EA000A4C088E58E9DF0018F9DF00D1124EE58A1
:101EB000F34D138A148A212C412C512C96C0C30156
:101EC0000E94B101BC016E7F77276830710591F4E3
:101ED0008170992721E030E002C0220F331F8A95DC
:101EE000E2F7C901F8019081982B9083832D0E941D
:101EF0001B0E92C06231710501F581709927282E61
:101F00002294220CE0EE2E22F6011082F5011082BE
:101F1000F401408051804114510449F40E9430077B
:101F20002C01009709F45CC0F401808391839881AF
:101F3000906C9229F201918B53C04114510409F421
:101F40006BC0682F8D3709F44DC0222019F0F0E2E4
:101F50008F27682FF6018081833170F1F501808130
:101F6000681322C0F20181898F7B818BF801808107
:101F700080688083F201918995FB992790F986FB0F
:101F8000882780F9981751F0C2010E944D0EF80180
:101F90008081F0E48F27F801808303C0C2010E9492
:101FA0000407F40110821182F6011082F5011082FB
:101FB000212C412C512C30C0E82FF0E0E40DF51D10
:101FC000823010F4648B02C032976083F501808107
:101FD0000E94070EF5018083F60180818F5F808368
:101FE000212C1AC02224239417C088E58E9DE0017D
:101FF0008F9DD00D1124CE58D34D6E01F3E1CF0E3D
:10200000D11C5E0124E1A20EB11C8E010B5E1F4F9C
:102010004E0136E1830E911CC3010E94CC0188233E
:1020200009F44DCFF701E556F14D2082DF91CF91B4
:102030001F910F91FF90EF90DF90CF90BF90AF90E6
:102040009F908F907F906F905F904F903F902F90D8
:102050000895E0916829F0916929309751F4109220
:102060006A2910926B2980916C298F7780936C2953
:1020700013C0828993898093682990936929892B59
:1020800049F480916C298F7780936C2910926A298A
:1020900010926B29128A138ACF010895DF92EF9272
:1020A000FF920F931F93CF93DF93D82EE82EF12C3E
:1020B00088E5D89E80011124E801CE58D34D8E8545
:1020C00081FF10C00655134DC8010E94CC01882322
:1020D00029F0688189E00E94B31104C0B80189E049
:1020E0000E94960188E58E9DE0018F9DD00D112400
:1020F0008E010E58134DF801868580FF11C0C6551C
:10210000D34DCE010E94CC01882331F0F8016081CB
:1021100088E00E94B31104C0BE0188E00E949601CD
:1021200088E58E9D80018F9D100D1124E801CE5809
:10213000D34D4E854C7F4E8747FF37C046FF35C095
:102140008D858150843078F0C8018D58934D0E9460
:10215000D9088D2D0E942A0294E09D878E85806487
:1021600089278E8722C08D8742FB442740F96F85DF
:1021700078898D2D0E947B0E8E858F7B8E870E94A5
:1021800046086E5C7F4F8F4F9F4F6B837C838D83A0
:102190009E83C8018D58934DDF91CF911F910F9170
:1021A000FF90EF90DF900C949108DF91CF911F91F9
:1021B0000F91FF90EF90DF90089508958093292A62
:1021C00060932A2A40932B2A289FC0011124269F1E
:1021D000B0011124249FA001112480959095609551
:1021E000709540955095E0E0F8E080AF91AF82AFF8
:1021F00093AFE0E0F9E060AF71AF42AF53AFE0E41E
:10220000F8E060AF71AF42AF53AF0895E0E0F8E09F
:1022100080818360808333E331838FEF9FEF86ABD0
:1022200097AB10AE11AE12AE13AEA0E4B6E023E051
:1022300011962C931197E0E4F8E02083318386AB6C
:1022400097AB10AE11AE12AE13AE40E311964C93A5
:10225000E0E0F9E02083318386AB97AB10AE11AE9E
:1022600012AE13AEE0E6F6E021830895CF92DF923E
:10227000EF92FF920F931F93CF93DF938C017B011B
:10228000EA0130E2C32E1EC0602F6F71DC2CD61A1B
:102290008D2D90E0C817D9070CF4DC2E4D2DC70109
:1022A0000E947F0AC80125E0969587952A95E1F757
:1022B0000E94AA0A4D2D50E0C41BD50B040F151F18
:1022C000E40EF51E209701F7DF91CF911F910F913A
:1022D000FF90EF90DF90CF900895EF92FF920F93D1
:1022E0001F93CF93DF937A01E60EF71EEB018C016B
:1022F0000FC0BE016F717727CE0145E09695879597
:102300004A95E1F70E94D809F80181938F0121963F
:10231000CE15DF0571F7DF91CF911F910F91FF90DF
:10232000EF900895CF9360E080E00E94D809C82F15
:1023300061E080E00E94D8093C2F20E0282BC901F1
:10234000CF910895FB01918195FFFCCF8083089583
:10235000FC01218127FF03C0208130E002C02FEF64
:102360003FEFC9010895663078F470E0FB01EE0F8D
:10237000FF1FE60FF71FEF55F14D9281911104C039
:10238000608171810C94A21108958630A0F490E0D0
:10239000FC01EE0FFF1FE80FF91FEF55F14D828191
:1023A000811109C00190F081E02D818187FF03C078
:1023B000208130E002C02FEF3FEFC9010895FC01FA
:1023C00088E1848383E085838CE3838383E386834E
:1023D000178208956115710539F0FC0160837183DE
:1023E0001282CB010C94DF110895FF920F931F937B
:1023F000CF93DF93C0E6D6E030E8F32EF98280EB8E
:1024000099E08093B02E9093B12E1092B22E0E943C
:10241000DF1100E416E0F801F18280EB98E0809390
:10242000A42E9093A52E1092A62E0E94DF1148E0B4
:10243000F42EE0E8F6E0F18280EA9AE08093AD2E97
:102440009093AE2E1092AF2E0E94DF11E0EAF6E0DC
:10245000F18280EA9BE08093A72E9093A82E1092A1
:10246000A92E0E94DF11F801F18280EA98E08093A2
:10247000AA2E9093AB2E1092AC2E0E94DF11F982FF
:1024800080EA99E08093A12E9093A22E1092A32E21
:10249000DF91CF911F910F91FF900C94DF111F924C
:1024A0000F920FB60F9211240BB60F922F933F93FA
:1024B0004F935F936F937F938F939F93AF93BF934C
:1024C000EF93FF938091B00962E47EE20E9496014F
:1024D000FF91EF91BF91AF919F918F917F916F91FC
:1024E0005F914F913F912F910F900BBE0F900FBEB8
:1024F0000F901F9018951F920F920FB60F921124F4
:102500000BB60F922F933F934F935F936F937F93ED
:102510008F939F93AF93BF93EF93FF9382E69EE2D7
:102520000E94B1018F3F2FEF920711F08093B00905
:10253000FF91EF91BF91AF919F918F917F916F919B
:102540005F914F913F912F910F900BBE0F900FBE57
:102550000F901F9018951F920F920FB60F92112493
:102560000BB60F922F933F934F935F936F937F938D
:102570008F939F93AF93BF93EF93FF938091B00896
:1025800062EE7CE20E949601FF91EF91BF91AF91C4
:102590009F918F917F916F915F914F913F912F917B
:1025A0000F900BBE0F900FBE0F901F9018951F92AB
:1025B0000F920FB60F9211240BB60F922F933F93E9
:1025C0004F935F936F937F938F939F93AF93BF933B
:1025D000EF93FF9382E09DE20E94B1018F3F2FEFC6
:1025E000920711F08093B008FF91EF91BF91AF91E6
:1025F0009F918F917F916F915F914F913F912F911B
:102600000F900BBE0F900FBE0F901F9018951F924A
:102610000F920FB60F9211240BB60F922F933F9388
:102620004F935F936F937F938F939F93AF93BF93DA
:10263000EF93FF938091A00B6AE37DE20E949601E5
:10264000FF91EF91BF91AF919F918F917F916F918A
:102650005F914F913F912F910F900BBE0F900FBE46
:102660000F901F9018951F920F920FB60F92112482
:102670000BB60F922F933F934F935F936F937F937C
:102680008F939F93AF93BF93EF93FF938AE59DE260
:102690000E94B1018F3F2FEF920711F08093A00BA2
:1026A000FF91EF91BF91AF919F918F917F916F912A
:1026B0005F914F913F912F910F900BBE0F900FBEE6
:1026C0000F901F9018951F920F920FB60F92112422
:1026D0000BB60F922F933F934F935F936F937F931C
:1026E0008F939F93AF93BF93EF93FF938091A00A33
:1026F0006AEE7DE20E949601FF91EF91BF91AF914A
:102700009F918F917F916F915F914F913F912F9109
:102710000F900BBE0F900FBE0F901F9018951F9239
:102720000F920FB60F9211240BB60F922F933F9377
:102730004F935F936F937F938F939F93AF93BF93C9
:10274000EF93FF938AE09EE20E94B1018F3F2FEF4B
:10275000920711F08093A00AFF91EF91BF91AF9182
:102760009F918F917F916F915F914F913F912F91A9
:102770000F900BBE0F900FBE0F901F9018951F92D9
:102780000F920FB60F9211240BB60F922F933F9317
:102790004F935F936F937F938F939F93AF93BF9369
:1027A000EF93FF938091A00862E97DE20E94960179
:1027B000FF91EF91BF91AF919F918F917F916F9119
:1027C0005F914F913F912F910F900BBE0F900FBED5
:1027D0000F901F9018951F920F920FB60F92112411
:1027E0000BB60F922F933F934F935F936F937F930B
:1027F0008F939F93AF93BF93EF93FF9382EB9DE2F1
:102800000E94B1018F3F2FEF920711F08093A00833
:10281000FF91EF91BF91AF919F918F917F916F91B8
:102820005F914F913F912F910F900BBE0F900FBE74
:102830000F901F9018951F920F920FB60F921124B0
:102840000BB60F922F933F934F935F936F937F93AA
:102850008F939F93AF93BF93EF93FF938091A009C2
:102860006AE87CE20E949601FF91EF91BF91AF91DF
:102870009F918F917F916F915F914F913F912F9198
:102880000F900BBE0F900FBE0F901F9018951F92C8
:102890000F920FB60F9211240BB60F922F933F9306
:1028A0004F935F936F937F938F939F93AF93BF9358
:1028B000EF93FF938AEA9CE20E94B1018F3F2FEFD2
:1028C000920711F08093A009FF91EF91BF91AF9112
:1028D0009F918F917F916F915F914F913F912F9138
:1028E0000F900BBE0F900FBE0F901F9018950F9377
:1028F0001F93F894E0E0F4E0808591850091B32E79
:102900001091B42E20E030E0980111270027A0E0BC
:10291000B0E0082B192B2A2B3B2B7894B801C90166
:102920001F910F9108958091500082608093500014
:102930008091510081FFFCCF88ED84BF81E08093BE
:1029400040000895E0E0F4E081E08083A0E4B0E09E
:1029500013968C9383E0828308950E9493140C94C1
:10296000A2141F920F920FB60F9211248F939F9370
:102970008091B32E9091B42E01968093B32E9093B4
:10298000B42E9F918F910F900FBE0F901F901895AE
:102990002FB7F894E0E0F2E084A195A134E095959A
:1029A00087953A95E1F78093882E9093892E2FBFD3
:1029B0000895E0E0F2E081E0808396E1918392E186
:1029C000928397E0948381A393E090A392E092A3F3
:1029D00083A380A1806880A30895E0E0F6E091E001
:1029E000918380E281839683868392838283089594
:1029F0001F920F920FB60F9211240BB60F922F93C6
:102A00003F934F935F936F937F938F939F93AF9376
:102A1000BF93CF93DF93EF93FF93C0E0D2E08BA1FE
:102A200081608BA30E94C81488A1806888A3FF914D
:102A3000EF91DF91CF91BF91AF919F918F917F9156
:102A40006F915F914F913F912F910F900BBE0F901F
:102A50000FBE0F901F9018956F927F928F929F924A
:102A6000AF92BF92CF92DF92EF92FF920F931F939C
:102A7000CF93DF934B015C018A01E901C12C88E40B
:102A8000D82E88EEE82EFF24F394C701B601A501E5
:102A900094010E942B3B93E0692EF801668226A3E5
:102AA00037A3772473947082A3E0B0E0A50194016A
:102AB0000E94083B9B01AC01C701B6010E942B3B61
:102AC0006E822EA33FA37882DF91CF911F910F9149
:102AD000FF90EF90DF90CF90BF90AF909F908F903E
:102AE0007F906F900895FC014087518766837783BC
:102AF0001082118212820895E0E6F6E080E6858376
:102B0000818380E9828384898861848B8789886155
:102B1000878B1092C32EE0E0FAE033E0368381E445
:102B200093E086A397A321E02083E0E4F9E03683D5
:102B300085E191E086A397A320830895CF93DF9347
:102B4000EC01888599850E94CC01811107C0888598
:102B500099850E94B1019C01332702C02FEF3FEFFE
:102B6000C901DF91CF9108958F3F2FEF920731F088
:102B7000880F991F9260FB01818392830895FB0166
:102B800021813281232BD9F790E00C94B415FC01FC
:102B9000808591850E94CC0121E030E0882311F0EE
:102BA00020E030E0C90108951F920F920FB60F92F6
:102BB00011240BB60F922F933F934F935F936F9314
:102BC0007F938F939F93AF93BF93EF93FF938091E6
:102BD000BA2E81113BC08091B92E81110BC080911A
:102BE000680684FD36C081E08093B92E8093B82EAC
:102BF00083E02DC08130B9F48091680684FF07C05E
:102C00008091B52E9091B82E892B8093B52E80910E
:102C1000B82E880F8093B82E811103C082E0809374
:102C2000B92E82E014C08230A1F48091680684FF3E
:102C30000AC08091B52E6091BD2E7091BE2E0E946B
:102C400096011092B52E1092B92E03C08150809338
:102C5000BA2E8091C42E81113BC08091C32E811168
:102C60000BC08091680687FD36C081E08093C32E3B
:102C70008093C22E83E02DC08130B9F48091680624
:102C800087FF07C08091BF2E9091C22E892B809321
:102C9000BF2E8091C22E880F8093C22E811103C057
:102CA00082E08093C32E82E014C08230A1F4809130
:102CB000680687FF0AC08091BF2E6091C72E709171
:102CC000C82E0E9496011092BF2E1092C32E03C0F0
:102CD00081508093C42EFF91EF91BF91AF919F914E
:102CE0008F917F916F915F914F913F912F910F90B5
:102CF0000BBE0F900FBE0F901F901895FC016083C4
:102D000071834863DB0111964C93A081B1811596C4
:102D10002C930190F081E02D81E084830895DC0103
:102D2000ED91FC91848183700895FC01878580E09A
:102D300008950F93CF93DF93FC01253050F50530B4
:102D400040F58785811125C081E08787108A660F4D
:102D50006283DA0180E090E006C03D91EF01C80F88
:102D6000D91F3B8301968217C0F3238704871586FA
:102D700016868385882319F082818E7F05C084851D
:102D8000882349F0828181600190F081E02D868363
:102D900002C080E001C081E0DF91CF910F910895E2
:102DA0000F93042F20E040E050E00E9499160F910D
:102DB00008950F9300E00E9499160F910895FC0169
:102DC000A081B18114968C91149782FF02C094E087
:102DD00001C093E0908B886014968C9317860895B9
:102DE000CF93DF93FC0193858485A081B1811496F4
:102DF0002C91149724FF05C083E013968C9385E0F3
:102E00001AC02585291758F48585EF01C80FD11DF3
:102E10008B8117968C9385858F5F85870EC09685ED
:102E2000981728F48281816016968C9306C083E0FF
:102E300013968C9381E0808B1786DF91CF91089554
:102E4000FC018685A081B181843060F417968C9155
:102E50009685DF01A90FB11D17968C9386858F5F2C
:102E6000868706C083E013968C9382E0808B17865A
:102E700084859685A081B181981720F482E013960D
:102E80008C93089587E013968C9381E0808B17864E
:102E90000895DC01ED91FC912481322F3C7011F0FA
:102EA0000C94DF1626FD0C94F01627FD0C942017C9
:102EB00026E0FC01208B17860895FC01608B1786A5
:102EC0000895FC01138288E1848383E0858380E197
:102ED00086831782089580E090E008958FEF9FEF3A
:102EE0000895089580916D2990916E290C94403C2D
:102EF000CF93DF93EC018091562090E0C817D9075B
:102F000014F4D7FF12C0DF93CF9382E994E29F932A
:102F10008F938091882F8F938091872F8F930E941A
:102F2000453E8FEF9FEF0E947341CE01880F991F9E
:102F3000E0913E29F0913F29E80FF91F818190E04F
:102F40000E94A53BFC01C0838E2FDF91CF91089595
:102F5000EF92FF920F931F937B01DC01EC91F0E065
:102F6000EA5AFF4DE181F0E0E55AFF4D40814423EC
:102F700069F050E060E070E000E010E09C018091BA
:102F8000D72E9091D82E0E94861E0CC0AB01BC019A
:102F900080915D2F90915E2F1F910F91FF90EF9088
:102FA0000C94391E1F910F91FF90EF900895CF93CD
:102FB000DF9380914020909141200E947817EC018E
:102FC00080913E2990913F292881FC01E20FF11D5B
:102FD000E20FF11D2081FC01E20FF11D218130E0A3
:102FE0002F5F3F4F2C0F3D1F40818BE59FE250E04C
:102FF000BC01C9010E942C3E61E070E0CE010E943C
:10300000A817DF91CF910C946730EF92FF920F9346
:103010001F93CF93DF9300D01F92CDB7DEB76983A4
:103020007A838B839C837A0181E090E00E947817F9
:103030008C0180913E2990913F29F8012081FC016B
:10304000E20FF11DE20FF11D2081FC01E20FF11DE5
:10305000218130E02F5F3F4F200F311F40818BE5F2
:103060009FE250E0BC01C9010E942C3E80913E29A4
:1030700090913F29F8012081FC01E20FF11DE20F40
:10308000F11D2081FC01E20FF11D238130E02F5F53
:103090003F4F200F311F428150E0BE016F5F7F4FD5
:1030A000C9010E942C3EB701C8010E94A8172496AE
:1030B000CDBFDEBFDF91CF911F910F91FF90EF90B9
:1030C0000895EF92FF920F931F93CF93DF93CDB7A5
:1030D000DEB72897CDBFDEBF8B839C834D835E8395
:1030E0006F8378877901892BF1F582E090E00E9467
:1030F00078178C01A0913E29B0913F29FC01808175
:10310000FD01E80FF11DE80FF11D8081A80FB11D31
:103110001196EC911197F0E03196E00FF11F4C9170
:103120008BE59FE250E0BC01CF010E942C3EA091B4
:103130003E29B0913F29F8018081FD01E80FF11D82
:10314000E80FF11D8081A80FB11D1396EC91139724
:10315000F0E03196E00FF11F12964C91CE010596EA
:1031600050E0BC017BC019821A8280E090E00E948E
:1031700078178C01A0913E29B0913F29FC018081F4
:10318000FD01E80FF11DE80FF11D8081A80FB11DB1
:103190001196EC911197F0E03196E00FF11F4C91F0
:1031A0008BE59FE250E0BC01CF010E942C3EA09134
:1031B0003E29B0913F29F8018081FD01E80FF11D02
:1031C000E80FF11D8081A80FB11D1396EC911397A4
:1031D000F0E03196E00FF11F12964C91CE0103966C
:1031E00050E0BC01CF010E942C3EA0913E29B0913D
:1031F0003F29F8018081FD01E80FF11DE80FF11D65
:103200008081A80FB11D1596EC911597F0E03196CD
:10321000E00FF11F14964C91CE01059650E0BC01D1
:10322000CF010E942C3EA0913E29B0913F29F80188
:103230008081FD01E80FF11DE80FF11D8081A80FCD
:10324000B11D1796EC911797F0E03196E00FF11F42
:1032500016964C9150E0BE016F5F7F4FCF010E94E8
:103260002C3EB701C8010E94A8172896CDBFDEBF2B
:10327000DF91CF911F910F91FF90EF9008956EE82D
:103280007BE181E00E94860667ED77E18CE00C949B
:103290008606DF92EF92FF920F931F93CF93DF93F7
:1032A000F82E092FC0916D29D0916E298881209127
:1032B0003E2990913F29E22FF92FE80FF11DE80FE9
:1032C000F11D1181812F90E00E94A53BD82EE92E9F
:1032D000412F50E0BE010E942C3E2989277034E026
:1032E000239FC00111244F2D502F6D2D7E2D8D5900
:1032F000904D0E94391E812F90E00E94A53BD82E50
:10330000E92E412F50E0BE010E942C3E6F2D702F00
:103310008D2D9E2D0E94A817DF91CF911F910F91A7
:10332000FF90EF90DF90089581E090E00C944919B0
:103330008FEF9FEF0C944919CF92DF92EF92FF929B
:103340000F931F93CF93DF936091872F7091882FF6
:1033500089EA94E20E94873E0E94B91FC0905620DD
:10336000D12C00E010E2C0E0D0E01CC0F801E190F8
:10337000F1908F0167EF73E2C7010E943C3E009716
:1033800029F4C0934020D09341200BC065EB74E238
:10339000C7010E943C3E009721F4C0934820D0937F
:1033A00049202196CC15DD050CF30E941C1F0E94BC
:1033B000D51E0E94B434DF91CF911F910F91FF90E1
:1033C000EF90DF90CF900C947E3880E00E94C90689
:1033D00082E390E00E94240885E00E94C90682E30F
:1033E00090E00E942408F1CF0F931F93CF93DF93B7
:1033F000EC019A01E8818E2F90E04091562050E038
:103400008417950744F04BEB54E264E771E08CECD1
:1034100094E20E94E519E33021F0E43009F04AC05B
:1034200027C0161617060CF04DC0E0913E29F0910A
:103430003F298681E80FF11D81859E01280F311DEE
:103440008781AE01480F511DCA014581DE01A40FDD
:10345000B11D43818E01040F111DF9012181FC0171
:10346000418111966C91F80181810E94E1061BC097
:10347000161617063CF5E0913E29F0913F2980850C
:10348000E80FF11D8381FE01E80FF11D618172815A
:103490008381948129E030E040E050E00E944D3B80
:1034A000862F0E94C906CE01DF91CF911F910F9107
:1034B0000C94403CAB01BE01DF91CF911F910F9165
:1034C0000C94F82ADF91CF911F910F9108958F925C
:1034D0009F92AF92BF92CF92DF92EF92FF920F93A3
:1034E0001F93CF93DF93EC016B0149015A012881AF
:1034F00080915620281728F041E155E263E371E0FE
:103500006FC0181419041A041B0494F40E9446088E
:10351000AB01BC01480D591D6A1D7B1D7801860158
:103520009E018091D92E9091DA2E0E94861EC5C0F0
:1035300080913E2990913F29FC01E20FF11DE20F9D
:10354000F11D2081FC01E20FF11D8181FE01E80FD8
:10355000F11DC180D28080915B2F90915C2FC816A5
:10356000D90629F4B801CE010E94A817A6C00E946E
:10357000B103C816D90609F47BC00E94AC03C81673
:10358000D90609F479C00E94C503C816D90609F402
:1035900076C00E94C003C816D90609F474C00E9400
:1035A000B603C816D90609F472C00E94BB03C81638
:1035B000D90609F043C06FC008E919E1888120915C
:1035C0003E2990913F29E22FF92FE80FF11DE80FD6
:1035D000F11D2181223140F04FE255E269E571E0B1
:1035E0008CEC94E20E94E519E2E7EE2EE7E1FE2E74
:1035F000AE016A2D892D982D0E945D0781115DC055
:10360000892D982D0E94403CDF92CF9280915C2FB3
:103610008F9380915B2F8F9382E595E29F938F9399
:103620008091882F8F938091872F8F930E94453EA2
:103630008DB79EB708968DBF9EBF3FC0DF92CF92D9
:1036400080915C2F8F9380915B2F8F938BE895E215
:103650009F938F938091882F8F938091872F8F9343
:103660000E94453E8DB79EB708968DBF9EBF25C070
:1036700075E0A72EB12C12C0A12CB12C0FC063E0B5
:10368000A62EB12C0BC052E0A52EB12C07C0AA2447
:10369000A394B12C03C034E0A32EB12C61E070E000
:1036A00088E190E00E94873B982E892E1016110623
:1036B0000CF082CF04E919E181CFDF91CF911F9106
:1036C0000F91FF90EF90DF90CF90BF90AF909F90C1
:1036D0008F9008958530910511F40C94B1030097F3
:1036E00011F40C94AC038330910511F40C94C503D0
:1036F0008230910511F40C94C0038130910511F4CE
:103700000C94B603049711F40C94BB0343EB55E2FD
:1037100066E470E08CEC94E20E94E519CF93DF93AD
:10372000CDB7DEB72E97CDBFDEBF0E94921180933A
:103730005B2F90935C2F1091562064E070E0812FF6
:1037400090E00E94873B8093612F9093622F64E00A
:1037500070E081E090E00E94873B80935D2F909322
:103760005E2F62E070E081E090E00E94873B8093F2
:10377000D72E9093D82E62E070E0812F90E00E94C7
:10378000873B80937D2F90937E2F62E070E081E0F5
:1037900090E00E94873B8093D92E9093DA2E64E0CC
:1037A00070E0812F90E00E94873B80937B2F909365
:1037B0007C2F88E1E3E6FFE2DF011D928A95E9F7BD
:1037C0000E949C1920E240E860E080E80E94E10647
:1037D00080914820909149208F3FBFEF9B0729F1AE
:1037E0000E9478178C0180913E2990913F29F80121
:1037F0002081FC01E20FF11DE20FF11D2081FC018F
:10380000E20FF11D218130E02F5F3F4F200F311F6C
:1038100040818BE59FE250E0BC01C9010E942C3E33
:1038200061E070E0C8010E94A8170E949F03E82E83
:10383000F12C682F70E080E090E041E050E00E94C1
:1038400005188E010F5F1F4F412C512C3201C20110
:103850000E946A1BD8018D939D938D0121E030E079
:10386000B301A2010E946118BFEF4B1A5B0A6B0AF9
:103870007B0AE6E04E1651046104710441F7809121
:103880005D2F90915E2F0E940D1E811112C01D862A
:103890001E86BE01635F7F4F80915D2F90915E2FEA
:1038A0000E94621E6D857E854BED5EE20E94F419DA
:1038B00050C0E091D92EF091DA2E0190F081E02DE8
:1038C000309731F140805180628073800E944608B9
:1038D0006415750586059705D8F08091D92E9091CD
:1038E000DA2E0E947A1E6C01DC0116960D911C9155
:1038F00017971A966D917C911B9720E030E0A901F3
:1039000018968D919C9119970E94671AC6011AC04A
:103910008091D72E9091D82EFC0120813181232BCC
:10392000A1F00E947A1E8C01DC0116966D917C91AB
:1039300017974BED5EE218968D919C9119970E9416
:10394000F419C8010E94403C04C08EE190E00E943E
:1039500024080E943A010E949F03D82E082F10E0ED
:103960000E151F0591F0B701882777FD8095982FD8
:103970004FEF5FEF0E9405186D2D70E080E090E042
:1039800041E050E00E94051878018E010F5F1F4F43
:10399000412C512C32015201C2010E946A1B6C0160
:1039A000F80180819181C816D90649F112014301BD
:1039B0002FEF3FEFA201B3010E946118AA0CBB1CBC
:1039C000AA0CBB1C83E69FE2A80EB91E09C060E0EA
:1039D00070E0C5010E94621E6FEF7FEF0E94A81782
:1039E000C5010E940D1E882391F3D801CD92DC926F
:1039F00021E030E0A101B401C6010E9461180E5F10
:103A00001F4FBFEF4B1A5B0A6B0A7B0AE6E04E16AC
:103A100051046104710409F0BECF31CF08952091A3
:103A2000382930913929C90101968093382990931A
:103A30003929C901089520913A2930913B29C901BA
:103A4000019680933A2990933B29C90108952091CA
:103A50003C2930913D29C901019680933C299093DE
:103A60003D29C9010895CF93DF93DC01EB01E88183
:103A7000F9818081918112962D913C911397E217E3
:103A8000F30779F42D913C911197E217F30729F48C
:103A900012961D921C92139704C012966D937C93FC
:103AA0001397DB018D939C93D481C581CF010E9434
:103AB000403C8D2F9C2FDF91CF910895CF93DF93C2
:103AC000FA0185FF07C08F7144E0849F200D311DEE
:103AD000112453C08230B9F030F4882369F081306A
:103AE00009F03FC009C0843071F018F08F31C9F57A
:103AF00043C02BE53FE241C020813181C9010496DA
:103B0000808391833AC0A081B18111968C911197E5
:103B10008F719C91E90144E0849FC00DD11D112457
:103B20000990D881C02D1296A083B18320913E299F
:103B300080913F293881E22FF82FE30FF11DE30F29
:103B4000F11D3081E22FF82FE90FF11DE90FF11D72
:103B5000E30FF11D218130E02F5F3F4F2C0F3D1F00
:103B60000CC043EB55E267E571E085EB95E20E94FE
:103B7000E51920E030E001C09B01C901DF91CF9140
:103B800008954A3028F4483030F44130F0F1089577
:103B90004C30D8F51DC030913E2920913F29FC01C1
:103BA0004081E32FF22FE40FF11DE40FF11D40815E
:103BB000E32FF22FE60FF11DE60FF11DE40FF11DCB
:103BC0002181FC01E20FF11D818192810C949734D7
:103BD00030913E2920913F29FC014081E32FF22FB3
:103BE000E40FF11DE40FF11D4081E32FF22FE60FEA
:103BF000F11DE60FF11DE40FF11D2181FC01E20F23
:103C0000F11D818192810C946A3743EB55E26FE597
:103C100072E085EB95E20C94E519FC0181E02081CE
:103C20003181232B09F080E00895FC01808191818E
:103C3000892B29F462837383608371830895A28141
:103C4000B3816D937C93628373830895DC01ED915E
:103C5000FC911197309759F0808191818D939C93BD
:103C60001197892B21F412961D921C921397CF0164
:103C70000895BF92CF92DF92EF92FF920F931F931E
:103C8000CF93DF938C016B017A0186E090E00E9474
:103C9000A53BB92EC82FD92FCC82DD82EA82FB82C8
:103CA00018821982BE01C8010E94151E8C2F9B2DFF
:103CB000DF91CF911F910F91FF90EF90DF90CF9008
:103CC000BF9008950F931F93CF93DF93EB010E9452
:103CD000261EFC0104811581209721F02281338169
:103CE000288339830E94403CC801DF91CF911F9106
:103CF0000F910895DC01ED91FC911197309721F01F
:103D0000248135812D933C93CF010895AF92BF92CA
:103D1000CF92DF92EF92FF920F931F93CF93DF9397
:103D200000D01F92CDB7DEB76C0159018CE090E056
:103D300049835A836B837C830E94A53BFC01A08648
:103D4000B186E682F78249815A816B817C8140830A
:103D500051836283738302871387760104C07C01D9
:103D600024E0E20EF11CD7018D919C91009751F057
:103D7000DC010D911D912D913C910417150726072B
:103D800037076CF384839583D701ED93FC932496D6
:103D9000CDBFDEBFDF91CF911F910F91FF90EF90CC
:103DA000DF90CF90BF90AF900895EF92FF920F9366
:103DB0001F93CF93DF93C0915620D0E08E01000F68
:103DC000111FC8010E94A53B7C0180934229F092FB
:103DD0004329C8010E94A53B809340299093412923
:103DE00067E570E2FC01D70120E030E08E011AC0E7
:103DF0002F5F3F4FEB014991BE0150E0CA01845A49
:103E00009F4DEC018881808311823296CA0107960A
:103E1000455A5F4DEA014881840F911D8A5A9F4D92
:103E20008D939D93201731071CF3DF91CF911F9144
:103E30000F91FF90EF9008957F928F929F92AF9293
:103E4000BF92CF92DF92EF92FF920F931F93CF9387
:103E5000DF93E0905620F12CE701CC0FDD1FA7E5A2
:103E6000B0E2CE0120E030E00BC02F5F3F4FED917C
:103E7000F0E0E55AFF4D4081840F911D840F911DA4
:103E80002E153F0594F30E94A53B80933E29909305
:103E90003F29C80FD91FCC24C394D12C80E090E0D7
:103EA00056C020913E2930913F29FC01EE0FFF1FA3
:103EB000E20FF31FAE01421B530B4083712C00E055
:103EC00010E05C015FEFA51AB50A56E5852E50E2B9
:103ED000952E880E991E23C0E00FF11FE35AFF4D67
:103EE00080818093442910924529883018F48230CB
:103EF00078F402C0883011F484E00BC043EB55E243
:103F00006BEC70E085EB95E20E94E51980E001C062
:103F100082E088837982780E22960F5F1F4FD4014A
:103F20001196EC91F0E0DF01A55ABF4D8C9190E025
:103F3000081719078CF2E0913E29F0913F29EC0D0A
:103F4000FD1D73947082B2E0CB0ED11CC5018E159D
:103F50009F050CF4A6CFDF91CF911F910F91FF9099
:103F6000EF90DF90CF90BF90AF909F908F907F9019
:103F70000895CF92DF92EF92FF920F931F93CF930A
:103F8000DF93C0905620D12CE0E0EE2EE0E2FE2E32
:103F9000C0E0D0E040C0F701019111917F0165EBD5
:103FA00074E2C8010E943C3E009729F4C093482067
:103FB000D09349202FC067EF75E2C8010E943C3EB4
:103FC000009729F4C0934A20D0934B2023C06CEF74
:103FD00075E2C8010E943C3E009729F4C093462038
:103FE000D093472017C066E076E2C8010E943C3EAD
:103FF000009729F4C0934420D09345200BC06DE076
:1040000076E2C8010E943C3E009721F4C093422012
:10401000D09343202196CC15DD050CF4BCCFDF9165
:10402000CF911F910F91FF90EF90DF90CF90089567
:10403000DC01ED91FC9120E030E005C00190F081C1
:10404000E02D2F5F3F4F3097C9F7C90108952F9298
:104050003F924F925F926F927F928F929F92AF9218
:10406000BF92CF92DF92EF92FF920F931F93CF9365
:10407000DF93CDB7DEB76697CDBFDEBF8B839C8362
:104080005B014B875C8729012DB73EB72A8B3B8BA1
:1040900002C0AF80B884D501EC918E2F807F80372D
:1040A00009F4A5C2A0F4803309F4C6C130F4882312
:1040B00031F1803209F06FC69EC0803509F453C2D9
:1040C000803609F494C2803409F065C64CC2803C45
:1040D00009F453C450F4803909F4A5C2803A09F4B4
:1040E000DEC2803809F057C69EC2803E09F445C43E
:1040F000803F09F442C4803D09F04DC63EC48E2F76
:104100008F70823091F038F4882309F461C68130D1
:1041100009F05EC007C08330C9F08850843008F0D1
:1041200057C018C021E030E055C66091872F7091CC
:10413000882F87E196E20E94873E43EB55E26EECC2
:1041400073E085EB95E20E94E519A5CFBFEFAB1AAE
:10415000BB0AA1CFC501039689839A83F5018181AA
:10416000E081E37028E0E29FF0011124982F9295FE
:1041700096959770E92BEE0FFF1FEE0FFF1FE40DD2
:10418000F51DC080D180E280F3808F71F20134E0B0
:10419000839FE00DF11D11246080718082809380E7
:1041A0009201AE014F5F5F4FBE016D5F7F4FD50142
:1041B00012968C910E945E1DFC012081318142810A
:1041C00053810B851C85B301C6010E94671AE0C5A7
:1041D0001F92EF9322E336E23F932F938091882F33
:1041E0008F938091872F8F930E94453E43EB55E23A
:1041F0006DEE73E0E2C56DB67EB6D50111968C9179
:10420000982F9F714201B4E09B9F800C911C112458
:10421000EF7028E0E29FF001112482958695877067
:10422000E82BEE0FFF1FEE5CF64D808191819C0123
:10423000220F331F220F331F4DB75EB7421B530BA4
:104240004DBF5EBF2DB63EB6AFEF2A1A3A0A0697AB
:1042500044F049E456E267EF73E085EB95E20E9493
:10426000E519C501029689839A836101E12CF12C3D
:104270001BC0E981FA818191E983FA839201AE0141
:104280004F5F5F4FBE016D5F7F4F0E945E1DAA278B
:1042900097FDA095BA2FF60181939193A193B193C5
:1042A0006F01FFEFEF1AFF0AD501EC91EF70B8E054
:1042B000EB9FF0011124D50111968C918295869582
:1042C0008770E82BEE0FFF1FDF01AE5CB64D8D91BE
:1042D0009C91E816F9066CF28230910541F134F4B4
:1042E000009769F0019709F0A0C010C084309105D3
:1042F00009F447C074F1059709F097C060C0ED5C00
:10430000F64D0190F081E02D19950BC0ED5CF64D56
:10431000D1016D917D918D919C910190F081E02D65
:104320001995F40160837183828393837EC0ED5C71
:10433000F64DD10114962D913D914D915C911797B9
:104340006D917D918D919C910190F081E02D199559
:10435000E8CFED5CF64DD1011896ED90FD900D91F2
:104360001C911B9714962D913D914D915C9117973F
:104370006D917D918D919C910190F081E02D199529
:10438000D0CFED5CF64DD1011C96AD90BD90CD9097
:10439000DC901F971896ED90FD900D911C911B9746
:1043A00014962D913D914D915C9117976D917D9152
:1043B0008D919C910190F081E02D1995B2CFED5C2B
:1043C000F64DD1011C96AD90BD90CD90DC901F971D
:1043D0001896ED90FD900D911C911B9714962D91C0
:1043E0003D914D915C9117976D917D918D919C912F
:1043F00013975396BC91BF93D1015296BC91BF9332
:10440000D1015196BC91BF93D10150963C903F92FF
:104410000190F081E02D1995F4016083718382830E
:1044200093830F900F900F900F90A980BA80862DE4
:10443000972D8DBF9EBF2FCEC501029689839A838B
:10444000D5018C918F70B4E08B9FC0011124F501D0
:10445000918192959695969593709201AE014F5FDA
:104460005F4FBE016D5F7F4F892B0E945E1D8C01E7
:10447000D50111968C9185FF0AC08F719201B4E02D
:104480008B9F200D311D112484E090E066C08F7356
:104490008230D9F549815A81FA0181818F719081E9
:1044A000F20124E0829FE00DF11D1124A081B18171
:1044B0008C9170913E2960913F29E72FF62FE80FEC
:1044C000F11DE80FF11D8081272F362F290F311D97
:1044D000290F311DF901E80FF11D808190E04E5F39
:1044E0005F4F49835A834C91E72FF62FE40FF11D5C
:1044F000E40FF11D4081F901E40FF11D218130E04D
:104500002F5F3F4F2A0F3B1F28C043EB55E28130FE
:1045100019F46FEF70E011C0811103C061E071E028
:104520000CC08F3119F463E071E007C0833019F4D7
:1045300065E071E002C067E071E085EB95E20E9402
:10454000E51943EB55E26AE071E085EB95E20E94E4
:10455000E51980E090E020E030E0AC01B801C9014D
:104560000E942C3E15C4C501029689839A83D50109
:1045700011968C9111970C910F71B4E00B9F8001F3
:104580001124982F9295969596959370092B9201E8
:10459000AE014F5F5F4FBE016D5F7F4F8F730E9413
:1045A0005E1D6C017801EE0CFF1CEFEFEE1AFE0AA7
:1045B000E0913E29F0913F29EE0DFF1D808190E0B2
:1045C0000E94A53BD6018C9311969C93E0913E29C5
:1045D000F0913F29EE0DFF1D408150E060E070E05A
:1045E0000E94353ED601ED91FC910083D1C3EF715D
:1045F000920144E0E49F200D311D1124F9018081D6
:104600009181A281B381892B8A2B8B2B41F4D50117
:1046100011968D919C911297A80EB91E3CCDB3E0D6
:10462000AB0EB11C38CD2B853C85121613069CF5BC
:10463000EF71A20184E0E89F400D511D1124FA01A1
:1046400000811181D8018C9120913E2990913F29C0
:10465000E22FF92FE80FF11DE80FF11D4181842FA2
:1046600090E04E8B0E94A53B4E8950E0B8010E941D
:104670002C3EA2016FEF7FEF0E94F419F5018081BB
:104680008F71F20124E0829FE00DF11D1124108250
:104690001182128213823FEFA31AB30AFCCCD50118
:1046A00011962C9111972F771296ED91FC911397FB
:1046B000EA0DFB1DEF83F887822F90E0AC01440FD9
:1046C000551F4F87588BE0913E29F0913F29E40F09
:1046D000F51FD180FC01EA5AFF4DE181F0E0E85A74
:1046E000FF4D308131FF4FC030FD4DC0E0905F2F56
:1046F000F090602F56E0259FE00CF11C1124D701AB
:1047000014962D903C901597C101880F991F0E9417
:10471000A53B8C018D839E83ED2DF0E0ED87FE8718
:10472000C12CD12C612C712C43011CC00E942D3D49
:10473000A40193010E944D3BFB01EE0FFF1FE00F10
:10474000F11F80819181AD81BE818D939D93AD8359
:10475000BE83D7018D919C918C0D9D1D808391838B
:10476000C984DA84BFEF6B1A7B0A8B0A9B0AED853A
:10477000FE85EC0DFD1DE987FA87C30101978215BF
:104780009305A4F23FC09C01220F331F220F331F59
:104790008091612F9091622F820F931FDC01ED9029
:1047A000FC900E9418201C01880F991F0E94A53BB5
:1047B0008C016C01612C712C43011AC00E942D3DAB
:1047C000A40193010E944D3BFB01EE0FFF1FE00F80
:1047D000F11F80819181D6018D939D936D01D70149
:1047E00014968D919C91159780839183ED90FC9008
:1047F000BFEF6B1A7B0A8B0A9B0AC30101978215D4
:104800009305E4F22114310409F443CC09871A8793
:10481000612C712C4501E4E08E0E911C95012A5FFC
:104820003F4F2C8B3D8BA1C0A985BA85CD90DD90E3
:10483000A987BA87F5018581807C803C49F4D50140
:1048400015968C91807C803C09F45BC0B4015CC0FF
:104850007401B1E0BD83C701029689839A83F70191
:104860002081E0913E29F0913F29AF85B889AE0FB4
:10487000BF1F3C91CF01820F911D820F911DDC0162
:10488000A30FB11D2C912D87D6012C91E20FF11DA4
:10489000E20FF11D2081FC01E20FF11DB181B98B06
:1048A000F70181819201AE014F5F5F4FBE016D5FE5
:1048B0007F4F8F730E945E1DFD81FF2391F0498918
:1048C000242F30E02F5F3F4F4D8550E0BC01C601E3
:1048D000820F931F0E941F3E9C0181E090E0232BDA
:1048E00011F080E090E08D83D70111968C91807C4F
:1048F000803419F0E980FA80AECFBD81BB2391F1FD
:104900009ECF6C897D8922C0FB019181892F8F7395
:1049100009F402C0813019F46C5F7F4F12C06E5FE2
:104920007F4F823071F0843061F043EB55E269EFE4
:1049300074E085EB95E20E94E51981E090E00E9429
:1049400073416E5F7F4F907C9034F1F692014B85FE
:104950005C85C6010E942720892B21F4C8010E9492
:10496000403C36C2FFEF6F1A7F0A621473040CF4E6
:104970005BCFC8010E94403C8CCBC5010396898364
:104980009A83D5018C919201AE014F5F5F4FBE01BA
:104990006D5F7F4F8F730E945E1D7C01F5018181E9
:1049A0009201AE014F5F5F4FBE016D5F7F4F8695F5
:1049B00086950E945E1D3C01D50112968C9112973E
:1049C00011960C910370B8E00B9F80011124982F71
:1049D000929596959770092B000F111F000F111FCC
:1049E000040D151D8F7190E08831910508F0D0C13C
:1049F0008C509F4FFC010C94693B81E090E0A0E05B
:104A0000B0E0F701C080D180E280F380F301408103
:104A1000518162817381C416D506E606F70609F056
:104A2000B2C1AEC181E090E0A0E0B0E0F701C0808B
:104A3000D180E280F380F3014081518162817381F2
:104A4000C416D506E606F70609F49DC199C181E0B2
:104A500090E0A0E0B0E0F701C080D180E280F38078
:104A6000F3014081518162817381C416D506E60647
:104A7000F7060CF488C184C181E090E0A0E0B0E0CA
:104A8000F701C080D180E280F380F3014081518141
:104A9000628173814C155D056E057F050CF073C155
:104AA0006FC181E090E0A0E0B0E0F701C080D1806C
:104AB000E280F380F30140815181628173814C1562
:104AC0005D056E057F050CF45EC15AC181E090E082
:104AD000A0E0B0E0F701C080D180E280F380F30174
:104AE0004081518162817381C416D506E606F706BE
:104AF0000CF049C145C1D7016D917D918D919C917B
:104B0000F30120813181428153810E944D3B2AC0B3
:104B1000F70180819181A281B381F30140815181AC
:104B200062817381840F951FA61FB71F2CC1F701E7
:104B300080819181A281B381F301408151816281A1
:104B40007381841B950BA60BB70B1DC1D7012D914B
:104B50003D914D915C91F3016081718182819381DE
:104B60000E941B3BD8016D937D938D939C9313976B
:104B70000FC1F7016081718182819381D3012D91F1
:104B80003D914D915C910E944D3BF8012083318312
:104B900042835383FDC0812C912C54018394D30113
:104BA0002D913D914D915C91F701608171818281E0
:104BB00093810E942739811150C04CC0812C912CC7
:104BC00054018394F3012081318142815381D701C3
:104BD0006D917D918D919C910E942739882309F4D4
:104BE00058C054C0812C912C54018394D3012D9131
:104BF0003D914D915C91F70160817181828193813A
:104C00000E94273987FD29C025C0812C912C540191
:104C10008394F3012081318142815381D7016D91C9
:104C20007D918D919C910E942739181694F52EC084
:104C3000812C912C54018394D3012D913D914D9160
:104C40005C91F70160817181828193810E94A13A18
:104C500018161CF0812C912C5401D8018D929D9234
:104C6000AD92BC92139794C0812C912C54018394E3
:104C7000F3012081318142815381D7016D917D9172
:104C80008D919C910E94A13A87FF03C0812C912CA9
:104C90005401F80180829182A282B38279C0D3014B
:104CA0002D913D914D915C91F701608171818281DF
:104CB00093810E94D739462F572F682F792FD8011B
:104CC0004D935D936D937C93139762C0F3012081A4
:104CD000318142815381D7016D917D918D919C915C
:104CE0000E94C33819C0D3012D913D914D915C9123
:104CF000F70160817181828193810E94C2381EC058
:104D0000F3012081318142815381D7016D917D91E1
:104D10008D919C910E94A53AF801608371838283F2
:104D2000938336C0D3012D913D914D915C91F70154
:104D300060817181828193810E942B39D8016D93AA
:104D40007D938D939C93139723C081E090E0A0E026
:104D5000B0E0F70140815181F30120813181421798
:104D6000530789F40DC081E090E0A0E0B0E0F701C6
:104D700040815181F301208131814217530719F09D
:104D800080E090E0DC01F80180839183A283B3830B
:104D9000A980BA8080C91F92EF9322E336E23F9345
:104DA0002F938091882F8F938091872F8F930E94CC
:104DB000453E43EB55E26CE475E085EB95E20E94DD
:104DC000E5190F900F900F900F900F900F9063C9FF
:104DD00020E030E0C901AA89BB89ADBFBEBF66969D
:104DE000CDBFDEBFDF91CF911F910F91FF90EF906C
:104DF000DF90CF90BF90AF909F908F907F906F90FB
:104E00005F904F903F902F9008952F923F924F9236
:104E10005F926F927F928F929F92AF92BF92CF924A
:104E2000DF92EF92FF920F931F93CF93DF93CDB753
:104E3000DEB76097CDBFDEBF4C016A877B874C87AA
:104E4000DC011496ED91FC911597408150E0FA0138
:104E5000EA5AFF4DA180EA2DF0E0EF83F887E75A88
:104E6000FF4D8081F82FF295FF70F9838F7089874D
:104E70001296ED91FC911397208131812A833B8317
:104E8000D9011496CD90DC90159780913E29909190
:104E90003F29F6012081F9856F2E712C660C771C55
:104EA000FC01E20FF11DE20FF11D60819C01260D56
:104EB000371DF901E60FF11D018110E00F5F1F4F53
:104EC0000C0D1D1D7A01EE0CFF1CFC01EE0DFF1DEB
:104ED0008081F901E80FF11D20812E83822F90E05F
:104EE0000E94A53B8D879E87AA81BB8112962D903B
:104EF0003C901397B981B73050F4B530E8F5B43031
:104F000060F5B230F0F4B13009F0BAC013C0E981F5
:104F1000E93009F45DC030F4E730D1F1E83009F050
:104F2000AFC04DC0F981FA3009F460C0FB3009F020
:104F3000A7C07EC04E8150E0B8018D850E942C3EF6
:104F4000A8C0F80180819181A281B381ED85FE85A1
:104F500080839183A283B3839CC0D8012D913D911E
:104F60004D915C91D1010E94133BED85FE856083DC
:104F70007183828393838DC0F80180819181A281A6
:104F8000B381ED85FE8580839183A283B38381C045
:104F9000B101882777FD8095982F0E9495399B0154
:104FA000AC01D8016D917D918D919C910E94A53AA3
:104FB000ED85FE8560837183828393836AC00E943E
:104FC0009E335C01D8016D917C910E94E2330AC04E
:104FD0000E94C0335C01D8014D915D916D917C912F
:104FE0000E94F433C5010E94093445C00E94DD359A
:104FF0005C01D801ED91FC9100811181442437FCC2
:105000004094542C11C0F801628173818481958190
:10501000A20191010E941B3BAB01BC01C5010E9492
:105020002E36D8010D911C910115110561F723C091
:105030000E94F1355C01D801ED91FC910081118154
:10504000442437FC4094542C13C0C201B1010E9487
:105050009539F80122813381448155810E94A53A16
:10506000AB01BC01C5010E947C36D8010D911C9199
:105070000115110551F7ED85FE85A082B18209C0A9
:1050800043EB55E261E472E085EB95E20E94E5199D
:10509000FFCF80913E2990913F29DC01AE0DBF1DCD
:1050A0002C91F301E20FF11DE80FF91F018110E0CF
:1050B0000F5F1F4F8081080F111D11964C90512CCE
:1050C000401A510A19F4212C312C01C01601AA8171
:1050D000BB81ABC1F50162817381248135812A8353
:1050E0003B83D9012C91FC01E20FF11DE20FF11D70
:1050F0002081FC01E60DF71DE20FF11DC180D12CCE
:10510000BFEFCB1ADB0AEA81FB81CE0EDF1EF981ED
:10511000F63009F49AC098F4F33009F450C038F42A
:10512000F13009F481C1F23009F075C136C029812E
:10513000243009F45AC0253009F06DC16DC03981A1
:105140003930D9F038F4373009F498C0383009F0E4
:1051500062C108C089818A3009F4AEC08B3009F081
:105160005AC1FDC0AD85BE85ED90FC90F601608111
:105170007181C7010E94E2330CC0AD85BE85ED9000
:10518000FC90F6014081518162817381C7010E94C8
:10519000F433C7010E94093447C1F601808191812F
:1051A000A281B381ED85FE85408151816281738149
:1051B000481759076A077B070CF036C111C0F60182
:1051C00080819181A281B381ED85FE8540815181ED
:1051D0006281738184179507A607B7070CF024C175
:1051E00080839183A283B38300C2D6012D913D9128
:1051F0004D915C91DB010E94133BED85FE85C080E3
:10520000D180E280F380C60ED71EE81EF91EC08250
:10521000D182E282F38208C1F601C080D180E280AF
:10522000F380AD85BE852D913D914D915C91C70177
:10523000B6010E94A13A18160CF0F6C0ED85FE8565
:10524000C082D182E282F382D0C1D601CD90DD90BE
:10525000ED90FC90ED85FE85208131814281538166
:10526000C701B6010E94273987FFDEC0AD85BE8524
:10527000CD92DD92ED92FC921397B7C1882777FD0E
:105280008095982F0E949539F601208131814281C5
:1052900053810E94A53A9B01AC01AD85BE856D91FD
:1052A0007D918D919C910E94C338ED85FE85608330
:1052B000718382839383B8C0ED85FE85A081B1811F
:1052C000F6012081318114968D919C911597F901F9
:1052D000448155818417950739F05F934F939F93CD
:1052E0008F938CE596E252C0ED91FC91EF87F88B9D
:1052F000D9010D90BC91A02DAA83BB836B01EE2434
:10530000D7FCE094FE2C26C0EA81FB816281738188
:1053100084819581A70196010E941B3BEF85F88946
:105320002281338144815581260F371F481F591F21
:105330002283338344835583EA81FB810190F0818A
:10534000E02DEA83FB83EF85F8890190F081E02D61
:10535000EF87F88BEF85F889EF2BB1F665C0AD8547
:10536000BE852D913C91D601ED91FC91D901149609
:105370008D919C9115974481558184179507A1F0D3
:105380005F934F939F938F938DE996E29F938F93B3
:105390008091882F8F938091872F8F930E94453E15
:1053A00081E090E00E947341D901ED90FC90C080B3
:1053B000D180CB01AA2797FDA095BA2F8A839B8322
:1053C000AC83BD8324C06A817B818C819D810E94D6
:1053D0009539D60112962D913D914D915C9115977D
:1053E0000E94A53A9B01AC01F7016281738184811F
:1053F00095810E94C338D70112966D937D938D934A
:105400009C931597ED90FC90F601C080D180E1143B
:10541000F104C9F609C043EB55E262EC71E085EB9B
:1054200095E20E94E519FFCFD501AD90BC90809127
:105430003E2990913F29A114B10409F04BCEF4010B
:10544000A481B5812C91FC01E20FF11DE20FF11D49
:105450002081FC01E60DF71DE20FF11DE180F12C2A
:10546000FFEFEF1AFF0AEA0EFB1E2C85222341F004
:105470004E8150E06D857E85C7010E942C3E9CC008
:105480003981383040F43530F0F4313009F494C0CB
:1054900008F449C007C089818A3028F18C3008F0AF
:1054A00042C031C0D7014D915D916D917C91ED85E8
:1054B000FE8580819181A281B381481759076A07CF
:1054C0007B07C9F579C0AD85BE852D913D914D9184
:1054D0005C91F70160817181828193810E942739FB
:1054E000811129C069C0AD85BE85CD90DC90B60123
:1054F000F701808191810E945634892BE1F0C60129
:105500000E94973459C0AD85BE85CD90DC90B60120
:10551000F701808191810E948137892B61F0C6015A
:105520000E946A3749C043EB55E264EF71E085EBB6
:1055300095E20E94E519AF80B88426E530E2A20E1C
:10554000B31ED5016D917C91620F731F2A853B8537
:105550004FEF5FEFF401848195810E9427204981FC
:105560006985D40114968D919C9115970E94C11D57
:105570004E8150E06D857E85C7010E942C3E41140E
:10558000510461F0F40124813581200F311F020D97
:10559000131DA201B801C9010E942C3ED5016D91D5
:1055A0007C916A5A7F4D2A853B8541E050E0F401A9
:1055B000848195810E9427208D859E856096CDBF30
:1055C000DEBFDF91CF911F910F91FF90EF90DF90A1
:1055D000CF90BF90AF909F908F907F906F905F9093
:1055E0004F903F902F900C94403C2A803B801CCFE2
:1055F0002F923F924F925F926F927F928F929F92E3
:10560000AF92BF92CF92DF92EF92FF920F931F93D0
:10561000CF93DF93CDB7DEB76697CDBFDEBF8C01EA
:105620001B012A0129873A87FC01EA5AFF4D818133
:10563000282F30E02D873E87490188E590E2880ECB
:10564000991ED4018C9186FF8EC0C801880F991FC6
:10565000880F991FE0917B2FF0917C2FE80FF91FA5
:10566000C201AA2797FDA095BA2F4081518162817E
:105670007381840F951FA61FB71F80839183A28318
:10568000B3838D839E83AF83B887C0904420D0902E
:1056900045208091562090E0C816D90614F4D7FE14
:1056A00012C0DF92CF9282E994E29F938F93809110
:1056B000882F8F938091872F8F930E94453E8FEF85
:1056C0009FEF0E947341A0903E29B0903F29360180
:1056D000660C771C6A0C7B1CF301818190E00E94B0
:1056E000A53B7C01DC01CC92C801AA2797FDA095BF
:1056F000BA2F89839A83AB83BC83F3018081F50140
:10570000E80FF11D218130E02F5F3F4F2E0D3F1D2F
:10571000408150E0BE016F5F7F4FC9010E942C3E67
:1057200080913E2990913F29D7012C91FC01E20FF5
:10573000F11DE20FF11D2081FC01E20FF11D23811B
:1057400030E02F5F3F4F2E0D3F1D4281CE01059669
:1057500050E0BC01C9010E942C3E61E070E0C7012D
:105760000E94A81734C080914420909145200817CA
:10577000190771F4ED85FE85EA5AFF4D608171814C
:105780006A5A7F4D29853A85C1010E94272007C0AA
:10579000809142209091432008171907C1F4C1015C
:1057A0006696CDBFDEBFDF91CF911F910F91FF9025
:1057B000EF90DF90CF90BF90AF909F908F907F90B1
:1057C0006F905F904F903F902F900C94403CF4016D
:1057D0002081C801880F991F20FD8BC021FF8BC03D
:1057E00046E0409F9001419F300D112400915F2FB2
:1057F0001091602F020F131FE0913E29F0913F2975
:10580000E80FF91F7180C72CD12C57FC0AC0D801B2
:105810001296ED90FC901397812C912CA12CB12C19
:105820001EC06091872F7091882F80EE96E20E94B3
:10583000873E8FEF9FEF0E947341F8018081918135
:10584000472D50E0B101880D991D0E941F3E8C0C20
:105850009D1C009709F4A3CFFFEFAF1ABF0AAE1447
:10586000BF045CF3D80114968D919C911597E816AE
:10587000F90611F5E114F10439F482E090E0129692
:105880008D939C93139705C0EE0CFF1CF801E282E8
:10589000F382D80112968D919C911397C89EB00106
:1058A000C99E700DD89E700D11248D919C910E94FF
:1058B0003A3DF80180839183D80114962D913C9153
:1058C0001597C29EC001C39E900DD29E900D1124CB
:1058D0002D913C91280F391F472D50E0B101C9018E
:1058E0000E942C3EF80184819581019684839583E2
:1058F0007CC222FF7EC19801220F331F220F331F6B
:10590000E090612FF090622FE20EF31E6701019686
:1059100060903E2970903F29680E791E60C0D301C7
:105920004C9150E0B101F501848195810E941F3EA8
:10593000009709F053C0D50112968D919C91139751
:10594000840D951D12968D939C9313971816190626
:105950000CF425CFF401808182FD15C0D101EC91BA
:10596000F0E0EA5AFF4DE181F0E0EA5AFF4D608134
:1059700071816A5A7F4D29853A854FEF5FEFC101EA
:105980000E94272026C0000F111FE0914029F091AE
:105990004129E00FF11F80819181892BD1F0E091A5
:1059A0007D2FF0917E2FE00FF11F80819181009774
:1059B00011F00E94403CA0907D2FB0907E2FA00E51
:1059C000B11EB601C7010E94331DF501808391838A
:1059D000E6CEB601C7010E94331DA9C16501D601FB
:1059E000AD90BC90A114B10409F099CF1414150422
:1059F0000CF0D5CEA201B101C7010E94391EF401FD
:105A0000808182FFEEC04801880C991CE0914029FA
:105A1000F0914129E80DF91D80819181892B09F4CC
:105A2000E0C0E0917D2FF0917E2FE80DF91DE08020
:105A3000F180E114F10409F4D4C01082118221E054
:105A400030E02B873C87A12CB12CBCC0E0914229CF
:105A5000F0914329E80DF91D80819181F501EE0F48
:105A6000FF1FE80FF91F3081EB85FC85E80FF91F58
:105A7000208160903E2970903F296301C30ED11CA4
:105A8000C30ED11CD60111964C91842F90E02D8B22
:105A90003C8B4E8B0E94A53B8C014E8950E0B70198
:105AA0000E942C3E3C89F80130832D8930E0C901E9
:105AB000880F991FD6014C91860D971DFC01E40FAC
:105AC000F11DC180D12CBFEFCB1ADB0AC00ED11E55
:105AD000F7014081F301E40FF11DE40FF11D408156
