:100000000C94F4000C9415010C9415010C9415013A
:100010000C9415010C9415010C9415010C94150108
:100020000C9415010C9415010C949F1B0C94150154
:100030000C9415010C9415010C9415010C941501E8
:100040000C9415010C9415010C9415010C941501D8
:100050000C9415010C9415010C9415010C941501C8
:100060000C9415010C94A11A0C9415010C94CD1A42
:100070000C948D190C9415010C94B9190C9415015C
:100080000C9415010C9415010C94F2130C941501A9
:100090000C9415010C9415010C9415010C94150188
:1000A0000C9415010C9415010C9415010C94150178
:1000B0000C9415010C9415010C9431140C94150139
:1000C0000C9415010C9415010C9415010C94150158
:1000D0000C9415010C9415010C9415010C94150148
:1000E0000C9415010C9415010C94451A0C941501EF
:1000F0000C94711A0C9415010C9415010C941501B3
:100100000C9415010C9415010C9415010C94150117
:100110000C9415010C9415010C9415010C94E61B1C
:100120000C9415010C9415010C9415010C941501F7
:100130000C9415010C9415010C9415010C941501E7
:100140000C9415010C9415010C9415010C94C21C0F
:100150000C9415010C9415010C9415010C941501C7
:100160000C94FD1A0C9415010C94291B0C94311954
:100170000C9415010C945D190C9415010C94150147
:100180000C9415010C9415010C9415010C94150197
:100190000C9415010C9415010C9415010C94150187
:1001A0000C9415010C9415010C9415010C94150177
:1001B0000C9490140C9415010C9415010C941501D9
:1001C0000C9415010C9415010C9415010C94150157
:1001D0000C9415010C9415010C9415010C94E9195B
:1001E0000C9415010C94151A11241FBECFEFDFE5F6
:1001F000DEBFCDBF00E00CBF10E2A0E0B0E2E8E857
:10020000FAE400E00BBF02C007900D92A033B107E3
:10021000D9F715E2A0E3B0E201C01D92A03FB107FB
:10022000E1F70E94601E0C9442250C9400000E948D
:10023000680C28EB3BE040E050E00E94E420CA015B
:10024000B90129E030E040E050E00E94E420862F30
:10025000643011F0663009F481E0089503C086E04F
:100260000E9437070E9406048823C9F307C084E070
:100270000E94370786E090E00E9492080E94BC0C22
:100280008823A9F30E9417010E9437070E94680C77
:1002900028EB3BE040E050E00E94E4202F5F3F4F1E
:1002A0004F4F5F4FA8EBBBE00E94B9206B017C0170
:1002B00088EB882E8BE0982EA12CB12C04C081E015
:1002C00090E00E9492080E94680C6C157D058E05D6
:1002D0009F05A8F30E94900C882311F080E002C0D3
:1002E0000E9417010E94370781E090E00E94920867
:1002F0000E94680CA50194010E94E4202F5F3F4FEB
:100300004F4F5F4FA8EBBBE00E94B9206B017C010F
:10031000DACF6EE271E081E00C94F40660914E2039
:1003200070914F20809150209091512008950C940D
:10033000F5120C940313CF9381E090E08093322068
:10034000909333208091302090913120892B31F08F
:100350000E949701892B11F00E9499010E94B60812
:100360000E949D09C0E08C2F0E94DB150E940B03A8
:100370008C2F0E941617CF5FC630A9F70E94460641
:100380001092322010923320CF9108950E942D06B2
:100390000E942E0A0E9461070E9466080E94420382
:1003A0000E94E8170E9444080E9408060E948314D5
:1003B0000E94561381E090E080933020909331208A
:1003C0000E94140D0C94C71B809317219093182141
:1003D0000895809317219093182144E050E067E13D
:1003E00071E280E090E00C9418180C94BF14FB01AB
:1003F0002FB7F894978DDB01A90FB11D8C93892F2E
:100400008F5F8E3111F0878F01C0178E878D968D8B
:10041000891711F02FBF08958F5F868F8E31D1F726
:10042000168EF8CFFC01968D878D981308C004C0F6
:10043000168E9FBF30E00FC02FEF3FEF0CC09FB76D
:10044000F894868DDF01A80FB11D2C918F5F8E313E
:1004500079F3868FEECFC9010895FC0181E0268DE6
:10046000978D291380E0089581E00895E091572049
:10047000F0915820309779F08081803651F08F3F8D
:1004800019F0813041F402C00E94F5010E948004FD
:1004900002C00E94CF0E80E00895863008F03FC071
:1004A00098E5899FF0011124E45AFC4D87859089D5
:1004B000892BA9F12FB7F894A785B08952968D9111
:1004C0009C9153978787908B892BA1F0A0935720FD
:1004D000B09358202FBFA0915720B091582052962A
:1004E0001D921C9253975696ED91FC915797309719
:1004F00039F40FC0118A128A86858F778687E6CFF6
:10050000687151968C915197877E682B51966C93A8
:100510001995109257201092582081E0089580E09C
:100520000895CF93C82F863030F468E18C2F0E9455
:100530004D028111FACFCF910895EF92FF920F9360
:100540001F93CF93DF93EC01CA01209751F16630DE
:1005500040F5223130F5009721F138E5639FF00135
:100560001124E45AFC4D30813068398B1A8A1B8A79
:100570000C8B1D8BEE8AFF8A022F10E0422F50E079
:10058000BC01CE010E947A22C00FD11F41E150E090
:10059000401B510B6FEF70E0CE010E94832281E07F
:1005A00001C080E0DF91CF911F910F91FF90EF90FC
:1005B0000895009771F1DC015196EC91E770E630F7
:1005C00030F56FB7F8942E2F30E0B8E5EB9FF001CF
:1005D0001124E45AFC4D47855089452B19F487872F
:1005E000908B05C00188F289E02D828B938B48E5C2
:1005F000429FF001439FF00D1124E45AFC4D818B82
:10060000928B8685806886876FBF81E008950E94FF
:10061000720780E008950E94F1168093572090930E
:100620005820009769F1DC015496ED91FC915597A3
:10063000309719F40E94360201C019958091572015
:1006400090915820FC012189E22FE77038E5E39F63
:10065000F0011124E45AFC4D25FB442740F921E028
:1006600030E001C0220F4A95EAF73685322B3687F3
:100670000E947207109257201092582081E008952E
:1006800080E008950E94BF171092522010925320CC
:1006900010925420109255201092562008950C94D8
:1006A0005F1E0F931F93CF93DF9300D000D0CDB781
:1006B000DEB781E0898383E08A830E9474189B837C
:1006C0008C83A0916C25B0916D2519968C9119970A
:1006D00090E0FC01EE0FFF1FE75AFF4D20813181B2
:1006E0003D832E8321E1289FF001299FF00D1124E5
:1006F000EB59FF4D108A0DEE15E020E030E046E0AA
:10070000BE016F5F7F4F19968C910E94E707269676
:10071000CDBFDEBFDF91CF911F910F910895FF9262
:100720000F931F93CF93DF9300D01F92CDB7DEB707
:10073000E0916C25F0916D25F18481E089838A83B5
:100740000E9474189B838C8381E1F89E9001112490
:10075000F901EB59FF4D108A8285882329F0C901E0
:1007600089599F4D0E94470908EC13E020E030E0D2
:1007700044E0BE016F5F7F4F8F2D0E94E7072496F4
:10078000CDBFDEBFDF91CF911F910F91FF900895F4
:100790008091572090915820DC015196EC912E2F9A
:1007A0002871AE2FA770283059F421E1A29FD00103
:1007B0001124AB59BF4D44E650E060E070E00AC040
:1007C00021E1A29FD0011124AB59BF4D42E350E07B
:1007D00060E070E01C964D935D936D937C931F9742
:1007E000E770A1E1EA9FF0011124EB59FF4D21E0F0
:1007F000208B0C947207FB01908381830895FC0188
:10080000308120E08181282BC9010895E9E5F0E2DB
:1008100080E021913191232B09F08F5F90E2E53642
:10082000F907B9F70895E9E5F0E28081918108952B
:10083000E3E6F0E2808191810895EBE5F0E28081CA
:1008400091810895E1E6F0E2808191810895EDE5DE
:10085000F0E2808191810895EFE5F0E2808191815D
:100860000895CF93C82F8630A0F4E82FF0E0EE0F64
:10087000FF1FE75AFF4D208131812617370749F0C6
:100880006083718383E10E94BD068C2FCF910C940D
:100890000E0DCF9108951F93CF93DF93182F60E033
:1008A00070E00E943104C12FD0E081E1189F9001D7
:1008B0001124F901EB59FF4D108A8285882329F014
:1008C000C90189599F4D0E94470981E18C9FF00120
:1008D0008D9FF00D1124EB59FF4D13878FE893E0A6
:1008E0008087918782E390E0A0E0B0E084879587DD
:1008F000A687B78781E0808BDF91CF911F91089504
:10090000DF92EF92FF920F931F93CF93DF9300D06C
:1009100000D0CDB7DEB7E0915720F0915820309746
:1009200009F400C19181923009F45CC0933009F45C
:10093000BEC0913009F0F8C0E189E77011E11E9F57
:10094000F0011124EB59FF4D448555856685778567
:10095000443651056105710509F4E6C0998382E0CA
:100960008A830E9474189B838C83E0915720F091B6
:10097000582082818D8383818E83818960E070E03D
:1009800087700E943104A0915720B0915820519651
:10099000EC915197E7701E9FF0011124EB59FF4D28
:1009A000108A51968C918770189FC0011124FC0108
:1009B000EB59FF4D2285222321F089599F4D0E943A
:1009C0004709E0915720F0915820818900EA15E00D
:1009D00020E030E046E0BE016F5F7F4F87700E94ED
:1009E000E707A2C0A189A77051E1D52EDA9ED001F8
:1009F0001124AB59BF4D1C964D915D916D917C9129
:100A00001F97443651056105710509F08DC00281BB
:100A10001381348120E085817901E82A0E947418CD
:100A2000E816F90609F080C0A0915720B09158202F
:100A30005196EC915197E770DE9EF0011124EB592D
:100A4000FF4D108A51968C918770D89EC001112459
:100A5000FC01EB59FF4D2285222321F089599F4D3E
:100A60000E9447092091572030915820D901519672
:100A7000EC91E770B1E1EB9FF0011124EB59FF4DD0
:100A800084EF91E0A0E0B0E084879587A687B787E0
:100A900081E593E08087918781E0808B702F60E013
:100AA000612BF901818987700E9431043DC0A189C1
:100AB000A77021E1A29FD0011124AB59BF4D1C9614
:100AC0008D919D910D90BC91A02D843F9140A105E9
:100AD000B10551F5E280F380948180E025818C019D
:100AE000022B0E9474180817190799F49E2D80E0B4
:100AF0008F29E0915720F0915820E189E770F0E0CC
:100B0000EE0FFF1FE75AFF4D2081318182179307B7
:100B100059F0E0915720F0915820818987700E9408
:100B20004B0402C080E001C081E02696CDBFDEBF4D
:100B3000DF91CF911F910F91FF90EF90DF9008957B
:100B4000CF93DF93E0915720F09158208189982F1F
:100B500098719830B9F5748160E09581EB01C92BEB
:100B6000877021E1829FC0011124FC01EB59FF4DE8
:100B700044EF51E060E070E04487558766877787EF
:100B80002285222321F089599F4D0E944709A09177
:100B90005720B09158205196EC915197E77081E120
:100BA000E89FF0011124EB59FF4D81E593E0808728
:100BB000918781E0808B51968C91BE0187700E9455
:100BC000310403C087700E944B048091572090919C
:100BD0005820DF91CF910C947207E0915720F0914B
:100BE00058208189982F98718770983049F491E145
:100BF000899FF0011124EB59FF4D81E0808B02C0E9
:100C00000E944B0480915720909158200C947207B9
:100C1000FF920F931F93CF93DF9305E710E2C0E09D
:100C2000D0E061E1F62EFC9EC001FD9E900D1124E6
:100C30008B599F4D0E94C809F80110828C2F0E9489
:100C40004B0421960F5E1F4FC630D10561F7DF912F
:100C5000CF911F910F91FF9008951092CB20109289
:100C6000CC201092CD201092CE201092CF20109246
:100C7000D0201092D1201092D220E3EDF0E2119218
:100C8000119281E2E331F807D1F708958F929F9294
:100C9000AF92BF92CF92DF92EF92FF920F931F938A
:100CA000CF93DF932091CB203091CC204091CD2069
:100CB0005091CE206091CF207091D0208091D12092
:100CC0009091D220A0E00E94062109F449C003EDD2
:100CD00010E2C12CD12C7601C3948090CB2090904F
:100CE000CC20A090CD20B090CE20D701C6012C2DD5
:100CF0002821392F39214A2F4A215B2F5B2160E0BF
:100D000070E080E090E0A0E00E940621F1F0D701C1
:100D1000C60180959095A095B09588229922AA2227
:100D2000BB228092CB209092CC20A092CD20B0927A
:100D3000CE201092CF201092D0201092D12010926D
:100D4000D220D801ED91FC911995CC0CDD1CEE1C44
:100D5000FF1C0E5F1F4FB1E203311B0709F0BDCF2F
:100D6000DF91CF911F910F91FF90EF90DF90CF9087
:100D7000BF90AF909F908F900895CF93DF93482FAF
:100D8000803260F5E82FF0E0EE0FFF1FED52FF4DCF
:100D900020813181232B11F181E090E0A0E0B0E0CF
:100DA00004C0880F991FAA1FBB1F4A95D2F7509104
:100DB000CB20582B4091CC20492B3091CD203A2B81
:100DC0002091CE202B2B5093CB204093CC203093DE
:100DD000CD202093CE2021E030E002C020E030E0A2
:100DE000C901DF91CF910895803278F4E82FF0E0C7
:100DF000EE0FFF1FED52FF4D80819181892B29F469
:100E00006083718321E030E002C020E030E0C9015E
:100E10000895803278F4E82FF0E0EE0FFF1FED52D6
:100E2000FF4D80819181892B29F01082118221E070
:100E300030E002C020E030E0C9010895803260F463
:100E4000E82FF0E0EE0FFF1FED52FF4D0190F08113
:100E5000E02D309709F01994089580911621089596
:100E6000809116218F5F893008F080E0089580938B
:100E7000162190E0FC01EE0FFF1FE80FF91FEF5F56
:100E8000FF4D209100204281618180810C94C01728
:100E90000E9430070E9437078091162108950C9414
:100EA000C01780930020282F4091152160911421B4
:100EB000809113210C94C0178091002008950C9408
:100EC000E817ECE4F2E21082789683E2EC36F80759
:100ED000D1F7ECE2F1E21082789682E2EC34F80786
:100EE000D1F70895FC0109C0818987FD118A928993
:100EF0008389128A138AE92FF82F3097A9F708956A
:100F0000811103C08BE392E202C08BE191E22CE0FD
:100F1000FC01E85FFE4FDC01A75EBE4F3C9137FD50
:100F200005C080E8818B128A138A06C02150489739
:100F30002111EECFE0E0F0E0CF01089580E00C94C5
:100F4000800781E00C948007EF92FF920F931F932C
:100F5000CF93DF93EC01CB01E9E5F0E260E0A191F2
:100F6000B191A817B90761F4CE010E949D028111C9
:100F700002C080E009C0CE010E94D90281E004C015
:100F80006F5F663061F7F5CFDF91CF911F910F91C1
:100F9000FF90EF900895EF92FF920F931F93CF93DE
:100FA000DF93EC016F3F11F480E00AC06630E0F798
:100FB0000E949D028823C1F3CE010E94D90281E0E4
:100FC000DF91CF911F910F91FF90EF9008956F9255
:100FD0007F928F929F92AF92BF92CF92DF92EF92C9
:100FE000FF920F931F93CF93DF93782E6B01642EA4
:100FF000590148018FEF78121BC0712C0E94A10784
:10100000EC01009781F074018501262DA601672D62
:101010000E949D02811104C0CE010E94720703C08C
:10102000CE010E94D902739486E07812E7CF1CC0EB
:1010300085E0871508F411C00E94A107EC01009714
:1010400061F078018501262DA601672D0E949D0281
:10105000811105C0CE010E947207712C05C0CE011E
:101060000E94D90277247394872DDF91CF911F912D
:101070000F91FF90EF90DF90CF90BF90AF909F9037
:101080008F907F906F9008950895E0916C25F09176
:101090006D250284F385E02D85858064858708951C
:1010A000FC01158680E48687CF01019683879487AB
:1010B00085E498E0878390871786108A118A128AC0
:1010C000138A148A158A168A178A0895FF920F9335
:1010D0001F93CF93DF930CE513E2C0E0D0E088E5E7
:1010E000F82EF801C083FC9EC001FD9E900D1124D6
:1010F000845A9C4D0E9450082196085A1F4FC630B2
:10110000D10579F7DF91CF911F910F91FF900C944A
:10111000D7180E94C6010E94890180E00E941E0724
:1011200081E0FCCFCF92DF92EF92FF92CF93DF93DB
:10113000EC010E94591B6B017C01CE01AA2797FD8F
:10114000A095BA2FC80ED91EEA1EFB1E0E94591B7D
:101150006C157D058E059F05C8F3DF91CF91FF903B
:10116000EF90DF90CF9008950C94591B0F931F932D
:10117000CF93DF9300D01F92CDB7DEB7809170255B
:1011800090917125892B99F10E94591BE09170254E
:10119000F0917125028113812481358160177107D7
:1011A0008207930720F1E0936C25F0936D25208151
:1011B000318120937025309371252085222361F0A1
:1011C0000680F781E02D69837A838B839C83199550
:1011D0009C818B817A816981E0916C25F0916D25EC
:1011E00010862091702530917125232B79F6249655
:1011F000CDBFDEBFDF91CF911F910F9108950F9367
:101200001F93CF93DF93FC0110821182A091702570
:10121000B0917125109729F48093702590937125D2
:101220002DC04281538164817581C0E0D0E003C04C
:10123000DC01C32FD22F12960D911D912D913C915F
:101240001597041715072607370718F0209791F40C
:101250000CC08D919C9111973A2F2B2F009741F73D
:10126000ED93FC931082118209C0E0937025F093F6
:10127000712502C0E883F983A083B18381E0808770
:1012800081E090E0DF91CF911F910F910895E0915F
:101290007025F09171253097D1F0A0E0B0E007C043
:1012A00020813181DF012115310589F0F9018E1787
:1012B0009F07B1F70FC0209370253093712502C0AE
:1012C0002D933C93FC01108621E030E009C020E022
:1012D00030E006C0FC0120813181109789F7EBCF07
:1012E000C9010895E0917025F09171253097D9F0EA
:1012F000A0E0B0E007C020813181DF012115310578
:1013000091F0F9012681378128173907A1F70EC01E
:10131000809370259093712502C08D939C931086C5
:1013200021E030E008C020E030E005C080819181FC
:10133000109799F7EDCFC90108950F931F93CF939D
:10134000DF93C0916E25D0916F251BC088898130B5
:10135000A9F48A85811112C00E94591B0C851D8534
:101360002E853F85600F711F821F931F6C837D83C5
:101370008E839F83CE0102960E94FF080990D88138
:10138000C02D209719F7DF91CF911F910F910895EC
:10139000FC0110821182E0916E25F0916F2530974B
:1013A00059F480936E2590936F2510C08E179F0778
:1013B00011F40E947522F901208131812115310536
:1013C000A9F78E179F07A9F38083918321E0FC0181
:1013D000208B81E090E00895E0916E25F0916F25DB
:1013E0003097D9F0A0E0B0E007C020813181DF0163
:1013F0002115310591F0F901E817F907B1F710C08F
:1014000080936E2590936F2502C08D939C931082DC
:101410001182108A21E030E008C020E030E005C0F1
:1014200080819181109789F7EBCFC90108950F93BF
:101430001F93CF93DF938C010E94EC09EC010115FF
:10144000110531F0C80102960E944709C80FD91F43
:10145000CE01DF91CF911F910F91089510927025C9
:101460001092712510926C2510926D2510926E25A8
:1014700010926F250C949B1B80917225909173257F
:10148000089580915720909158200C94D7219091E5
:101490001C20891306C081E090E020913420213087
:1014A00011F080E090E008958F929F92BF92CF92CA
:1014B000DF92EF92FF920F931F93CF93DF931F92D0
:1014C000CDB7DEB7B82E6B0161E070E088E190E047
:1014D00049830E941E214C012981009781F081E4FB
:1014E000E82E8AE0F82E00E010E0A6016B2DC40182
:1014F0000E94CB07811105C0C4010E94D72180E062
:1015000001C081E00F90DF91CF911F910F91FF906B
:10151000EF90DF90CF90BF909F908F900895CF93E2
:10152000DF931F921F92CDB7DEB790E5998392E0CB
:101530009A8342E0BE016F5F7F4F0E94540A0F9072
:101540000F90DF91CF9108950F931F93CF93DF9367
:10155000082FC9E5D0E210E0101739F02881398151
:10156000232B19F0812F0E948F0A1F5F22961630BD
:1015700099F7DF91CF911F910F910895BC01809150
:101580001C20883C19F041E10C94540A0895FF9204
:101590000F931F93CF93DF931F921F92CDB7DEB7A8
:1015A00088EC80931C201092342080E5898383E0AE
:1015B0008A8381E00E94370715C0F801219131919B
:1015C0008F01232B39F042E0BE016F5F7F4F8F2DDB
:1015D0000E94540AF394F6E0FF12EFCF86E090E009
:1015E0000E94920880911C20883C21F409E510E2B9
:1015F000F12CE3CF0F900F90DF91CF911F910F91BE
:10160000FF900895E0915720F0915820309789F18C
:101610009181923081F018F4913069F505C09330D2
:10162000B9F0943041F51DC08189877080931C20EA
:10163000909334200AC080911C20883CE1F4818979
:10164000877080931C20109234200E94A40A13C03B
:1016500080911C20883C79F0818987700E948F0AD4
:101660000AC080911C20883C31F0CF010E94BE0A44
:1016700002C080E0089581E008950097A1F0DC01A8
:101680000D900020E9F71197A81B8A2F8F5F8B30F0
:1016900060F08A506BE00E94C420911102C08F5FFD
:1016A00008958E5F089580E0089581E008958F92F7
:1016B0009F92AF92BF92CF92DF92EF92FF920F93E1
:1016C0001F93CF93DF93CDB7DEB76197CDBFDEBF5A
:1016D0008C010E943D0BB82E80911C20883C09F49F
:1016E0007AC080E5898384E08A830E947418BE01F1
:1016F0006D5F7F4F0E94FB03809135208D8381E0D9
:10170000B81256C0D8010D900020E9F71197FA2EB3
:10171000F01A9E01285F3F4F4F2D4F5F50E0B801F8
:10172000C9010E947A221E82BF824F2D485FBE01EE
:101730006F5F7F4F80911C200E94540A45C0EE824B
:10174000811106C0BF8247E0842E5AE0A52E13C047
:10175000EC14FD0461F4F801E90DF11DDF010D90B9
:101760000020E9F7AA2EAE1A36E0832E04C096E0D8
:10177000892E2BE0A22E21E030E02C0F3D1F280DFA
:10178000311DF801E90DF11D4A2D50E0BF01C901DD
:101790000E947A229A0C482D4A0DBE016F5F7F4F3E
:1017A00080911C200E94540A8FEFE81AF80A08C0A2
:1017B000E12CF12C912CCB2CD12C81E0C81AD10832
:1017C0008E2DEB1408F4BBCF809135208F5F809372
:1017D000352081E001C080E06196CDBFDEBFDF91A2
:1017E000CF911F910F91FF90EF90DF90CF90BF901E
:1017F000AF909F908F900895CF93DF93EC0104C03A
:1018000081E090E00E94920880911C20883CC1F306
:10181000CE01DF91CF910C94570B8091572090917E
:1018200058200C94D7210895CF92DF92EF92FF9227
:101830000E94601F209148203091492040914A2009
:1018400050914B200E940D206B017C0160913E2045
:1018500070913F2080914020909141200E94621F12
:101860009B01AC01C701B6010E94631E0E94341F98
:10187000FF90EF90DF90CF900895CF92DF92EF929C
:10188000FF920E94B4080E94601F2091482030916E
:10189000492040914A2050914B200E940D206B011D
:1018A0007C0160913E2070913F208091402090917A
:1018B00041200E94621F9B01AC01C701B6010E943A
:1018C000631E0E94341FFF90EF90DF90CF90089529
:1018D000CF93DF9300D01F92CDB7DEB76091362053
:1018E0007091372080913820909139200E94601F9C
:1018F0009B01AC0169833A834B835C830E943D0C5E
:101900000E94601F29813A814B815C810E949D1F4A
:101910000E94341F2496CDBFDEBFDF91CF91089582
:1019200080914D20089580914C200895FC01848978
:101930009589892B39F48081803621F481E0918169
:10194000933009F080E00895CF93DF93EC010E947B
:10195000B408698778878F839E83DF91CF9108953C
:10196000CF93DF93EC010E943D0C6D837C838B83CE
:101970009A83DF91CF91089580914D20811111C0FC
:1019800081E090E040913A2050913B2060913C20D2
:1019900070913D20452B462B472B29F480E090E0A9
:1019A000089581E090E00895109293251092942577
:1019B00010929525109296251092972510929825B1
:1019C000089510924D201092852585E795E20E949A
:1019D000EC0987E795E20C94470980914C2081112E
:1019E0001CC088E895E20E9447090E94B4086C5028
:1019F0007E4F8F4F9F4F60938A2570938B258093E6
:101A00008C2590938D2586E99EE080938E2590937A
:101A10008F2588E895E20C94FF08089510924C20D9
:101A20000E94ED0C80E0089510923E2010923F201D
:101A3000109240201092412010923A2010923B20A8
:101A400010923C2010923D201092362010923720A8
:101A5000109238201092392080E090E0A0E8BFE397
:101A60008093482090934920A0934A20B0934B2024
:101A70001092442010924520109246201092472048
:101A800010924220109243200E94D40C8FEF80933A
:101A900092250E9474188093862590938725109232
:101AA0004C200E94E10C0C94ED0C8F929F92BF92FF
:101AB000CF92DF92EF92FF920F931F93CF93DF931A
:101AC0001F92CDB7DEB7B82E6B0161E070E088E100
:101AD00090E049830E941E214C012981009781F0EA
:101AE0008DE0E82E8CE0F82E00E010E0A6016B2DD2
:101AF000C4010E94CB07811105C0C4010E94D721F7
:101B000080E001C081E00F90DF91CF911F910F9194
:101B1000FF90EF90DF90CF90BF909F908F900895AF
:101B20001F93CF93DF9300D01F92CDB7DEB7182F4E
:101B30009B0180E6898381E08A83BE016D5F7F4FD0
:101B4000C9010E94FB0344E0BE016F5F7F4F812FFC
:101B50000E94550D2496CDBFDEBFDF91CF911F911E
:101B600008950F931F93CF93DF93CDB7DEB72597DB
:101B7000CDBFDEBF182F062F80E6898382E08A83DF
:101B8000BE016D5F7F4F80918625909187250E94D1
:101B9000FB030D8345E0BE016F5F7F4F812F0E94E5
:101BA000550D2596CDBFDEBFDF91CF911F910F91CF
:101BB0000895CF93DF9300D01F92CDB7DEB790E6A4
:101BC000998393E09A8342E0BE016F5F7F4F0E944A
:101BD000550D2496CDBFDEBFDF91CF910895EF92D2
:101BE000FF920F931F93CF93DF9303E915E2C9E5AB
:101BF000D0E2E12CF12CF80181918F01882341F092
:101C000028813981232B21F08F2D0E94D90DE39457
:101C1000F3942296F6E0FF12EECF8E2DDF91CF9156
:101C20001F910F91FF90EF900895CF93C1E0C09363
:101C30004D2088EB9BE0A0E0B0E08093812590935D
:101C40008225A0938325B09384258FEE9DE0809319
:101C50007D2590937E250E94EF0D85E795E20E94F9
:101C6000C809C0938525CF910895CF93DF931F9224
:101C70001F92CDB7DEB790E6998394E09A8342E055
:101C8000BE016F5F7F4F0E94550D0F900F90DF9147
:101C9000CF910895CF92DF92EF92FF920F931F930F
:101CA000CF93DF93D82E8B01C42EC9E5D0E2E12C6F
:101CB000F12CFD1459F028813981232B39F04C2D5A
:101CC000B8018F2D0E94550D8111E394F394229653
:101CD00086E0F812EECF8E2DDF91CF911F910F91FC
:101CE000FF90EF90DF90CF9008951F93CF93DF93F5
:101CF00000D01F92CDB7DEB7182F9B0180E68983F5
:101D000081E08A83BE016D5F7F4FC9010E94FB03A2
:101D100044E0BE016F5F7F4F812F0E944A0E2496E0
:101D2000CDBFDEBFDF91CF911F910895CF93DF9399
:101D300080914C20811130C00E94E10C0E947418E7
:101D400080938625909387258FEF8093922581E05D
:101D500080934C200E94D40C0E947418BC018FEF19
:101D60000E94750E80937425811116C010924C202C
:101D7000C0918625D09187250E947418C817D9076D
:101D800021F4DF91CF910C94150E61E080919225A2
:101D9000DF91CF910C94B10DDF91CF9108952F92E7
:101DA0003F924F925F926F927F928F929F92AF92EB
:101DB000BF92CF92DF92EF92FF920F931F93CF9338
:101DC000DF93CDB7DEB72897CDBFDEBF0091572098
:101DD000109158200115110509F48CC1F801818179
:101DE000823009F459C120F4813009F085C1FCC06A
:101DF000833021F0843009F07FC1EBC0F801C58049
:101E00008281D12CE12CF12CF82A8481D82A83817B
:101E1000E82A81848681912CA12CB12CB82A808556
:101E2000982A8781A82A6091362070913720809166
:101E30003820909139200E94601F9B01AC016D8376
:101E40003E834F8358870E94680C0E94601F2D813B
:101E50003E814F8158850E949D1F0E94341F6093D0
:101E60003620709337208093382090933920F6E005
:101E7000CF0ED11CE11CF11C809142209091432097
:101E800001968093422090934320019779F4D701E3
:101E9000C60188199909AA09BB0980933E2090932D
:101EA0003F20A0934020B093412080C00E94B408FE
:101EB00040903A2050903B2060903C2070903D2014
:101EC00064197509860997096C3D7540810591056E
:101ED000F0F28091442090914520A0914620B0914D
:101EE0004720A7019601281B390B4A0B5B0BCA013F
:101EF000B9010E94601F69837A838B839C83C5012B
:101F0000B40164197509860997090E94601F9B0135
:101F1000AC0169817A818B819C810E94C71E1B0163
:101F2000182F092F9801862F932DA32FB22F80935E
:101F3000482090934920A0934A20B0934B200E94C0
:101F4000B40869837A838B839C83C701B6010E949E
:101F5000601F2B013C0169817A818B819C810E94E9
:101F6000601F9B01AC01F801622D732D8F2F9E2FF6
:101F70000E940D209B01AC01C301B2010E94621EB0
:101F80000E9470200E942F1F60933E2070933F207C
:101F90008093402090934120809142209091432053
:101FA00065E070E00E94D020892B81F4C09244202B
:101FB000D0924520E0924620F092472080923A202D
:101FC00090923B20A0923C20B0923D200E94EF0DC9
:101FD00093C00E94BC0C811101C08EC0F8018189A0
:101FE00087700E94D90D88C0C80102960E94FF0325
:101FF0008C0180914C20811106C088E895E20E94F6
:1020000047090E94960E8091862590918725081792
:10201000190749F4E0915720F0915820818960E038
:1020200087700E94B10D80918625909187250817B1
:10203000190708F061C00093862510938725E09169
:102040005720F091582081898770809392250E94B3
:10205000D40CE0915720F09158208189B801877005
:102060000E94750E80937425811146C010924C20F9
:1020700000918625109187250E947418081719076A
:1020800019F40E94150E38C0E0915720F0915820A5
:10209000818961E087702BC0C80102960E94FF030E
:1020A0008C0180918625909187250817190721F5C5
:1020B00080917425815080937425A0915720B09110
:1020C00058205196EC915197E770F0E0ED56FA4D9B
:1020D00014969C91908381110FC010924C200E9405
:1020E00074180817190769F261E0809192250E941F
:1020F000B10D02C080E001C081E02896CDBFDEBFF7
:10210000DF91CF911F910F91FF90EF90DF90CF90D3
:10211000BF90AF909F908F907F906F905F904F9007
:102120003F902F9008958091CF0187FDFCCF0895B7
:10213000CF93DF931F921F92CDB7DEB76A83898357
:102140000E9493106A816F71898120E2829FC00191
:102150001124862BE0ECF1E080839183128286E0EB
:102160008287EF93FF930F932F93EBECF1E008ED51
:1021700021E004BF20832F910F91FF91EF91848183
:102180000F900F90DF91CF9108950E94931080914E
:10219000CF0181FF11C086E38093CA01EF93FF93C3
:1021A0000F932F93EBECF1E008ED21E004BF2083C7
:1021B0002F910F91FF91EF910895CF93DF9300D06E
:1021C000CDB7DEB74B836A8389830E94C510E0ECEC
:1021D000F1E093E392876A816F71898120E2829FA7
:1021E000C0011124862B8083918312824B8144830A
:1021F00085E38287EF93FF930F932F93EBECF1E04E
:1022000008ED21E004BF20832F910F91FF91EF9102
:102210002396CDBFDEBFDF91CF910895CF93DF939B
:102220001F921F92CDB7DEB76A8389830E949310F5
:10223000E0ECF1E093E3928789818083118212823E
:102240006A8164830F900F90DF91CF910895CF93AF
:10225000DF93EC010E94931083E38093CA011092F4
:10226000C1011092C20180E08093C00199919093C6
:10227000C4018F5F8032C1F7DF91CF9108950F9332
:102280001F93CF93DF931F921F92CDB7DEB78C01C0
:102290004A8369830E94931083E38093CA0110925A
:1022A000C1011092C2014A816981460F08C0609342
:1022B000C001F80181918F018093C4016F5F6417A1
:1022C00011F06032A0F30F900F90DF91CF911F912A
:1022D0000F910895CF93DF931F92CDB7DEB7898317
:1022E0000E949310898120E2829FC0011124E0ECBA
:1022F000F1E080839183128285E38287EF93FF93DD
:102300000F932F93EBECF1E008ED21E004BF208365
:102310002F910F91FF91EF910F90DF91CF91089541
:10232000CF93DF931F92CDB7DEB789830E949310BE
:10233000898120E2829FC0011124E0ECF1E08083DA
:102340009183128282E38287EF93FF930F932F93FF
:10235000EBECF1E008ED21E004BF20832F910F9119
:10236000FF91EF910F90DF91CF910895CF93DF937D
:102370001F92CDB7DEB789830E949310898120E236
:10238000829FC0011124E0ECF1E0808391831282EE
:1023900084E38287EF93FF930F932F93EBECF1E0AD
:1023A00008ED21E004BF20832F910F91FF91EF9161
:1023B0000F90DF91CF9108950E94931080E3E0EC9D
:1023C000F1E08287EF93FF930F932F93EBECF1E013
:1023D00008ED21E004BF20832F910F91FF91EF9131
:1023E00008958093C30A8091C20A87FFFCCF809131
:1023F000C30A0895019749F480E1672B19F080938F
:10240000A50608958093A606089580E1672B19F02C
:10241000809385060895809386060895EF92FF9233
:102420000F931F93CF93DF93EB018A0179010197FB
:10243000F1F480E18093A60683E00E94F1118D2FD4
:102440000E94F1118C2F0E94F111E80106C080E07A
:102450000E94F111F80181938F01C8018C1B9D0B23
:102460008E159F05A4F380E18093A50626C080E128
:102470008093860684ED0E94F11180E00E94F111A4
:10248000CE0188279370892F0E94F1118C2F0E9412
:10249000F11180E00E94F111E80106C080E00E9485
:1024A000F111F80181938F01C8018C1B9D0B8E15D2
:1024B0009F05A4F380E18093850681E090E0DF91A1
:1024C000CF911F910F91FF90EF900895EF92FF929F
:1024D0000F931F93CF93DF93EB018A01790101974B
:1024E000E9F480E18093A60682E00E94F1118D2F2D
:1024F0000E94F1118C2F0E94F111E80105C0F80132
:1025000081918F010E94F111C8018C1B9D0B8E15CA
:102510009F05ACF380E18093A50622C080E1809303
:10252000860684E80E94F11180E00E94F111CE013C
:1025300088279370892F0E94F1118C2F0E94F1112E
:10254000E80105C0F80181918F010E94F111C801D5
:102550008C1B9D0B8E159F05ACF380E18093850647
:1025600081E090E0DF91CF911F910F91FF90EF906C
:10257000089508951F93CF93DF93C0EAD6E010E14A
:102580001E8381E00E94F11181E40E94F1111D83FC
:102590001E8385E00E94F11180E00E94F1111D83ED
:1025A0001F928F9383E290E29F938F930E948A22DF
:1025B0000F900F900F900F90DF91CF911F91089582
:1025C000E0E8F6E080E185838183A0EAB6E0159635
:1025D0008C93159711968C9380EA818380E4828393
:1025E00080E58093C00A0C94BA128091A9258130AD
:1025F00031F48091A82521E030E0882311F020E01B
:1026000030E0C9010895CF938091A925813009F068
:102610004BC08091A825811147C0C0915120809165
:10262000A02524E0829FC001112485958595809383
:102630004E208091A12524E0829FC0011124859520
:10264000859580934F208091A22524E0829FC00130
:10265000112485958595809350208091A3258093A2
:1026600051201092A9258BE00E94BD06892BE1F430
:102670008091512085FF03C08CE00E94BD068091AF
:10268000512087FF03C08DE00E94BD06CF712C2F23
:1026900030E0809151208F7190E02817390721F0A8
:1026A0008CE0CF910C94BD06CF9108950F93CF93FA
:1026B000DF931F921F92CDB7DEB72BE940E460EAAB
:1026C00074E089E995E20E946C1D87E0898388E1C6
:1026D0008A8300E022E0AE014F5F5F4F6CE489E93E
:1026E00095E20E94871D8091A8258111FCCF85E08D
:1026F00089831A8200E022E0AE014F5F5F4F6CE4F5
:1027000089E995E20E94871D8091A8258111FCCF5F
:1027100086E0898387E08A8300E022E0AE014F5F94
:102720005F4F6CE489E995E20E94871D8091A8259E
:102730008111FCCF88E0898380EE8A8300E022E06B
:10274000AE014F5F5F4F6CE489E995E20E94871DFF
:102750008091A8258111FCCF89E0898380E18A835B
:1027600000E022E0AE014F5F5F4F6CE489E995E243
:102770000E94871D8091A8258111FCCF8AE0898362
:1027800080E18A8300E022E0AE014F5F5F4F6CE49E
:1027900089E995E20E94871D8091A8258111FCCFCF
:1027A00087E0898389E18A8300E022E0AE014F5F00
:1027B0005F4F6CE489E995E20E94871D8091A8250E
:1027C0008111FCCF81E0809322069AE1909330063C
:1027D00080932A06809329060F900F90DF91CF9166
:1027E0000F9108951F920F920FB60F9211240BB6FE
:1027F0000F920F932F933F934F935F936F937F931A
:102800008F939F93AF93BF93EF93FF93CF93DF93F8
:102810001F92CDB7DEB78091A82581110BC0198218
:1028200004E021E0AE014F5F5F4F6CE489E995E27F
:102830000E94871D0F90DF91CF91FF91EF91BF9183
:10284000AF919F918F917F916F915F914F913F9148
:102850002F910F910F900BBE0F900FBE0F901F90F6
:1028600018951F920F920FB60F9211240BB60F926C
:102870002F933F934F935F936F937F938F939F9388
:10288000AF93BF93EF93FF9389E995E20E94371EC0
:10289000FF91EF91BF91AF919F918F917F916F9138
:1028A0005F914F913F912F910F900BBE0F900FBEF4
:1028B0000F901F9018950F93CF93DF931F921F9245
:1028C000CDB7DEB789836A8300E022E0AE014F5FB7
:1028D0005F4F6CE489E995E20E94871D8091A825ED
:1028E0008111FCCF0F900F90DF91CF910F91089540
:1028F000E0E0FBE081E0808380E89EE386A397A38D
:1029000082E08683089510923220109233200E9434
:102910007814E0EAF0E082818760828378940895F9
:102920001F920F920FB60F9211240BB60F922F9396
:102930003F934F935F936F937F938F939F93AF9347
:10294000BF93EF93FF938091322090913320892B96
:1029500019F4A8950E949B01FF91EF91BF91AF914F
:102960009F918F917F916F915F914F913F912F91A7
:102970000F900BBE0F900FBE0F901F901895E8E7B9
:10298000F0E08181816098ED94BF8183089568278C
:1029900028E030E067FF09C0862F90E0880F991F7C
:1029A00046EA84279095682F01C0660F21503109AF
:1029B00089F7862F08950F931F93CF93DF9398E5A0
:1029C000899F80011124E801C45ADC4D3E859D8910
:1029D000292F2695422F49279C7F9D8B40FF18C0A9
:1029E00032FB992790F92170921312C068E00E947F
:1029F0004D0294E09D878E85892780648E87C8016B
:102A0000835A9C4DDF91CF911F910F910C944709F0
:102A1000DF91CF911F910F9108950097D9F0FC019C
:102A2000128A138A2091522030915320232B29F4AB
:102A3000809352209093532006C0E0915420F0914F
:102A40005520828B938B809354209093552080E85F
:102A5000809356200895282F982F9E7F81E09830EC
:102A600041F09A3031F0923129F02D3719F080E0A1
:102A70000895089508959F92AF92BF92CF92DF92EA
:102A8000EF92FF920F931F93CF93DF93B82E7B01AA
:102A90006115710509F483C062E1C62EC42A00E005
:102AA00010E0D12C88E5B89EE0011124CC56DC4D15
:102AB00070E2972EF701E00FF11FA4886A2D8D2D8B
:102AC0000E94C714D82E8A2D0E942B15BE01882380
:102AD00039F08DE70E94F701BE018A2D892501C0DA
:102AE0008A2D0E94F7010F5F1F4F0230110511F769
:102AF00001E1E8E5BE9EE0011124CC56DC4D50E238
:102B0000952EF70111917F01612F8D2D0E94C71421
:102B1000D82E812F0E942B15A82EBE01882339F0B4
:102B20008DE70E94F701BE01812F892501C0812F09
:102B30000E94F701015029F72B2D30E088E5AA20EB
:102B400079F0829FE001839FD00D1124CC56DC4D9B
:102B5000BE018DE70E94F701BE0180E28D2508C00D
:102B6000829FB001839F700D11246C567C4D8D2D7A
:102B70000E94F70188E5B89EF0011124E45AFC4D4B
:102B800060818C2DDF91CF911F910F91FF90EF907D
:102B9000DF90CF90BF90AF909F900C949518DF91ED
:102BA000CF911F910F91FF90EF90DF90CF90BF904A
:102BB000AF909F9008952F923F924F925F926F92A5
:102BC0007F928F929F92AF92BF92CF92DF92EF92BD
:102BD000FF920F931F93CF93DF93382EE82EF12CA3
:102BE000F701E655FA4D208088E58E9DE0018F9D26
:102BF000D00D1124F4E76F2EF3E27F2E6C0E7D1EB4
:102C0000C3010E942D028111D9C0FE01E45AFC4D7E
:102C1000468857884114510421F0F201818986FDCC
:102C2000ACC088E58E9DF0018F9DF00D1124E45A13
:102C3000FC4D138A148A212C412C512C9EC0C301B7
:102C40000E941202BC016E7F77276830710591F4F3
:102C50008170992721E030E002C0220F331F8A954E
:102C6000E2F7C901F8019081982B9083832D0E948F
:102C7000DB149AC06231710501F581709927282E05
:102C80002294220CE0EE2E22F6011082F501108231
:102C9000F401408051804114510449F40E949E0780
:102CA0002C01009709F464C0F4018083918398811A
:102CB000906C9229F201918B5BC04114510409F48C
:102CC00073C0682F8D3709F455C0222019F0F0E247
:102CD0008F27682FF60180818331B0F1F501808163
:102CE00068132AC0F20181898F7B818BF801808172
:102CF00080688083F201918995FB992790F986FB82
:102D0000882780F9981791F0C2010E94960C8130B3
:102D100019F4C2010E94A40CC2010E940D15F80111
:102D20008081F0E48F27F801808303C0C2010E94F4
:102D30007207F40110821182F6011082F5011082EF
:102D4000212C412C512C30C0E82FF0E0E40DF51D72
:102D5000823010F4648B02C032976083F501808169
:102D60000E94C714F5018083F60180818F5F808304
:102D7000212C1AC02224239417C088E58E9DE001DF
:102D80008F9DD00D1124C45ADC4D6E01F3E1CF0E9E
:102D9000D11C5E0124E1A20EB11C8E010B5E1F4FFF
:102DA0004E0136E1830E911CC3010E942D0288233F
:102DB00009F445CFF701E655FA4D2082DF91CF9116
:102DC0001F910F91FF90EF90DF90CF90BF90AF9049
:102DD0009F908F907F906F905F904F903F902F903B
:102DE0000895E0915220F0915320309751F41092C1
:102DF000542010925520809156208F778093562032
:102E000013C0828993898093522090935320892BF9
:102E100049F4809156208F77809356201092542049
:102E200010925520128A138ACF010895DF92EF92F3
:102E3000FF920F931F93CF93DF93D82E082F10E0AC
:102E400028E5829FC0011124EC01C45ADC4D2E8577
:102E500021FF14C0B4E9EB2EB3E2FB2EE80EF91EFD
:102E6000C7010E942D02882329F0688189E00E9411
:102E7000951804C0B70189E00E94F70188E5809F9A
:102E8000E001819FD00D1124ACE5EA2EA3E2FA2ED9
:102E9000EC0EFD1EF701868580FF11C0CC56DC4D7F
:102EA000CE010E942D02882331F0F701608188E075
:102EB0000E94951804C0BE0188E00E94F70128E531
:102EC000209FC001219F900D1124EC01C45ADC4DBC
:102ED0002E852C7F2E8727FF4AC026FF48C02D85D0
:102EE0002150243070F0835A9C4D0E9447098D2D4B
:102EF0000E94910294E09D878E85806489278E8749
:102F000036C02D878F8598890E94960C813021F4D8
:102F10008F8598890E94B00C88E5809F7001819F01
:102F2000F00C1124E701C45ADC4D4E8542FB4427C6
:102F300040F96F8578898D2D0E943B158E858F7B9A
:102F40008E870E94B4086E5C7F4F8F4F9F4F6B83BC
:102F50007C838D839E83C701835A9C4DDF91CF91E3
:102F60001F910F91FF90EF90DF900C94FF08DF917D
:102F7000CF911F910F91FF90EF90DF9008950895EA
:102F8000809313216093142140931521289FC00141
:102F90001124269FB0011124249FA00111248095A3
:102FA00090956095709540955095E0E0F8E080AF81
:102FB00091AF82AF93AFE0E0F9E060AF71AF42AFA5
:102FC00053AFE0E4F8E060AF71AF42AF53AF0895A4
:102FD000E0E0F8E080818360808333E331838FEF2A
:102FE0009FEF86AB97AB10AE11AE12AE13AEA0E45E
:102FF000B6E023E011962C931197E0E4F8E02083EB
:10300000318386AB97AB10AE11AE12AE13AE40E378
:1030100011964C93E0E0F9E02083318386AB97ABC7
:1030200010AE11AE12AE13AEE0E6F6E021830895C5
:10303000CF92DF92EF92FF920F931F93CF93DF9384
:103040008C017B01EA0130E2C32E1EC0602F6F713C
:10305000DC2CD61A8D2D90E0C817D9070CF4DC2E85
:103060004D2DC7010E943F11C80125E09695879517
:103070002A95E1F70E946A114D2D50E0C41BD50B33
:10308000040F151FE40EF51E209701F7DF91CF9175
:103090001F910F91FF90EF90DF90CF900895EF92E6
:1030A000FF920F931F93CF93DF937A01E60EF71EE3
:1030B000EB018C010FC0BE016F717727CE0145E097
:1030C000969587954A95E1F70E949810F8018193AB
:1030D0008F012196CE15DF0571F7DF91CF911F91FA
:1030E0000F91FF90EF900895CF9360E080E00E94F1
:1030F0009810C82F61E080E00E9498103C2F20E0DB
:10310000282BC901CF910895FB01918195FFFCCF38
:1031100080830895FC01218127FF03C0208130E0D6
:1031200002C02FEF3FEFC9010895663078F470E0D8
:10313000FB01EE0FFF1FE60FF71FE055FA4D9281DE
:10314000911104C0608171810C94841808958630B7
:10315000A0F490E0FC01EE0FFF1FE80FF91FE0550F
:10316000FA4D8281811109C00190F081E02D8181A9
:1031700087FF03C0208130E002C02FEF3FEFC9017D
:103180000895FC0188E1848383E085838CE3838355
:1031900083E38683178208956115710539F0FC0178
:1031A000608371831282CB010C94C1180895FF9241
:1031B0000F931F93CF93DF93C0E6D6E030E8F32E52
:1031C000F98280EB99E08093BF259093C0251092FF
:1031D000C1250E94C11800E416E0F801F18280EBDD
:1031E00098E08093B3259093B4251092B5250E9462
:1031F000C11848E0F42EE0E8F6E0F18280EA9AE0B7
:103200008093BC259093BD251092BE250E94C118C5
:10321000E0EAF6E0F18280EA9BE08093B6259093A5
:10322000B7251092B8250E94C118F801F18280EAF2
:1032300098E08093B9259093BA251092BB250E94FF
:10324000C118F98280EA99E08093B0259093B12566
:103250001092B225DF91CF911F910F91FF900C94A6
:10326000C1181F920F920FB60F9211240BB60F9236
:103270002F933F934F935F936F937F938F939F937E
:10328000AF93BF93EF93FF938091B0096CE275E227
:103290000E94F701FF91EF91BF91AF919F918F91A4
:1032A0007F916F915F914F913F912F910F900BBE46
:1032B0000F900FBE0F901F9018951F920F920FB690
:1032C0000F9211240BB60F922F933F934F935F935E
:1032D0006F937F938F939F93AF93BF93EF93FF93DE
:1032E0008CE495E20E9412028F3F2FEF920711F0BB
:1032F0008093B009FF91EF91BF91AF919F918F9112
:103300007F916F915F914F913F912F910F900BBEE5
:103310000F900FBE0F901F9018951F920F920FB62F
:103320000F9211240BB60F922F933F934F935F93FD
:103330006F937F938F939F93AF93BF93EF93FF937D
:103340008091B0086CEC73E20E94F701FF91EF915D
:10335000BF91AF919F918F917F916F915F914F91AD
:103360003F912F910F900BBE0F900FBE0F901F90AB
:1033700018951F920F920FB60F9211240BB60F9251
:103380002F933F934F935F936F937F938F939F936D
:10339000AF93BF93EF93FF938CEE93E20E941202E0
:1033A0008F3F2FEF920711F08093B008FF91EF91BC
:1033B000BF91AF919F918F917F916F915F914F914D
:1033C0003F912F910F900BBE0F900FBE0F901F904B
:1033D00018951F920F920FB60F9211240BB60F92F1
:1033E0002F933F934F935F936F937F938F939F930D
:1033F000AF93BF93EF93FF938091A00B64E274E2CD
:103400000E94F701FF91EF91BF91AF919F918F9132
:103410007F916F915F914F913F912F910F900BBED4
:103420000F900FBE0F901F9018951F920F920FB61E
:103430000F9211240BB60F922F933F934F935F93EC
:103440006F937F938F939F93AF93BF93EF93FF936C
:1034500084E494E20E9412028F3F2FEF920711F052
:103460008093A00BFF91EF91BF91AF919F918F91AE
:103470007F916F915F914F913F912F910F900BBE74
:103480000F900FBE0F901F9018951F920F920FB6BE
:103490000F9211240BB60F922F933F934F935F938C
:1034A0006F937F938F939F93AF93BF93EF93FF930C
:1034B0008091A00A64ED74E20E94F701FF91EF9100
:1034C000BF91AF919F918F917F916F915F914F913C
:1034D0003F912F910F900BBE0F900FBE0F901F903A
:1034E00018951F920F920FB60F9211240BB60F92E0
:1034F0002F933F934F935F936F937F938F939F93FC
:10350000AF93BF93EF93FF9384EF94E20E94120274
:103510008F3F2FEF920711F08093A00AFF91EF9158
:10352000BF91AF919F918F917F916F915F914F91DB
:103530003F912F910F900BBE0F900FBE0F901F90D9
:1035400018951F920F920FB60F9211240BB60F927F
:103550002F933F934F935F936F937F938F939F939B
:10356000AF93BF93EF93FF938091A0086CE774E251
:103570000E94F701FF91EF91BF91AF919F918F91C1
:103580007F916F915F914F913F912F910F900BBE63
:103590000F900FBE0F901F9018951F920F920FB6AD
:1035A0000F9211240BB60F922F933F934F935F937B
:1035B0006F937F938F939F93AF93BF93EF93FF93FB
:1035C0008CE994E20E9412028F3F2FEF920711F0D4
:1035D0008093A008FF91EF91BF91AF919F918F9140
:1035E0007F916F915F914F913F912F910F900BBE03
:1035F0000F900FBE0F901F9018951F920F920FB64D
:103600000F9211240BB60F922F933F934F935F931A
:103610006F937F938F939F93AF93BF93EF93FF939A
:103620008091A00964E773E20E94F701FF91EF9196
:10363000BF91AF919F918F917F916F915F914F91CA
:103640003F912F910F900BBE0F900FBE0F901F90C8
:1036500018951F920F920FB60F9211240BB60F926E
:103660002F933F934F935F936F937F938F939F938A
:10367000AF93BF93EF93FF9384E993E20E9412020A
:103680008F3F2FEF920711F08093A009FF91EF91E8
:10369000BF91AF919F918F917F916F915F914F916A
:1036A0003F912F910F900BBE0F900FBE0F901F9068
:1036B00018950F931F93F894E0E0F4E080859185CE
:1036C0000091C2251091C32520E030E09801112718
:1036D0000027A0E0B0E0082B192B2A2B3B2B789475
:1036E000B801C9011F910F91089580915000826027
:1036F000809350008091510081FFFCCF88ED84BF02
:1037000081E0809340000895809150008460809310
:1037100050008091510082FFFCCF81E08093000433
:1037200085E08093430083E08093020410920804B4
:103730001092090408950E94751B0C94841B1F921B
:103740000F920FB60F9211248F939F938091C225F1
:103750009091C32501968093C2259093C3259F9194
:103760008F910F900FBE0F901F9018952FB7F89460
:10377000E0E0F2E084A195A134E0959587953A9533
:10378000E1F780937225909373252FBF0895E0E0B1
:10379000F2E081E0808396E1918392E1928397E069
:1037A000948381A393E090A392E092A383A380A14A
:1037B000806880A30895E0E0F6E091E0918380E2E4
:1037C0008183968386839283828308951F920F92CA
:1037D0000FB60F9211240BB60F922F933F934F9376
:1037E0005F936F937F938F939F93AF93BF93CF9389
:1037F000DF93EF93FF93C0E0D2E08BA181608BA3B6
:103800000E94B61B88A1806888A3FF91EF91DF9189
:10381000CF91BF91AF919F918F917F916F915F9168
:103820004F913F912F910F900BBE0F900FBE0F90B5
:103830001F9018956F927F928F929F92AF92BF9236
:10384000CF92DF92EF92FF920F931F93CF93DF936C
:103850004B015C018A01E901C12C88E4D82E88EE75
:10386000E82EFF24F394C701B601A50194010E943C
:10387000E42093E0692EF801668226A337A377241B
:1038800073947082A3E0B0E0A50194010E94B92076
:103890009B01AC01C701B6010E94E4206E822EA3F9
:1038A0003FA37882DF91CF911F910F91FF90EF900E
:1038B000DF90CF90BF90AF909F908F907F906F9050
:1038C0000895FC01408751876683778310821182B7
:1038D00012820895E0E6F6E080E68583818380E940
:1038E000828384898861848B87898861878B109221
:1038F000D225E0E0FAE033E0368381E493E086A36A
:1039000097A321E02083E0E4F9E0368385E191E0AC
:1039100086A397A320830895CF93DF93EC01888536
:1039200099850E942D02811107C0888599850E9482
:1039300012029C01332702C02FEF3FEFC901DF9134
:10394000CF9108958F3F2FEF920731F0880F991F85
:103950009260FB01818392830895FB012181328172
:10396000232BD9F790E00C94A21CFC018085918553
:103970000E942D0221E030E0882311F020E030E0A9
:10398000C90108951F920F920FB60F9211240BB622
:103990000F922F933F934F935F936F937F938F93E8
:1039A0009F93AF93BF93EF93FF938091C9258111AC
:1039B0003BC08091C82581110BC08091680684FDB1
:1039C00036C081E08093C8258093C72583E02DC051
:1039D0008130B9F48091680684FF07C08091C425C6
:1039E0009091C725892B8093C4258091C725880F86
:1039F0008093C725811103C082E08093C82582E0AF
:103A000014C08230A1F48091680684FF0AC08091BE
:103A1000C4256091CC257091CD250E94F7011092AC
:103A2000C4251092C82503C081508093C925809178
:103A3000D32581113BC08091D22581110BC080918B
:103A4000680687FD36C081E08093D2258093D1251A
:103A500083E02DC08130B9F48091680687FF07C0EC
:103A60008091CE259091D125892B8093CE25809170
:103A7000D125880F8093D125811103C082E08093E6
:103A8000D22582E014C08230A1F48091680687FFBD
:103A90000AC08091CE256091D6257091D7250E94CD
:103AA000F7011092CE251092D22503C08150809349
:103AB000D325FF91EF91BF91AF919F918F917F910E
:103AC0006F915F914F913F912F910F900BBE0F908F
:103AD0000FBE0F901F901895FC016083718348639F
:103AE000DB0111964C93A081B18115962C93019026
:103AF000F081E02D81E084830895DC01ED91FC915B
:103B0000848183700895FC01878580E008950F9378
:103B1000CF93DF93FC01253050F5053040F58785C4
:103B2000811125C081E08787108A660F6283DA01E0
:103B300080E090E006C03D91EF01C80FD91F3B83A4
:103B400001968217C0F3238704871586168683851E
:103B5000882319F082818E7F05C08485882349F0EF
:103B6000828181600190F081E02D868302C080E037
:103B700001C081E0DF91CF910F9108950F93042F41
:103B800020E040E050E00E94871D0F9108950F93C0
:103B900000E00E94871D0F910895FC01A081B18172
:103BA00014968C91149782FF02C094E001C093E0B8
:103BB000908B886014968C9317860895CF93DF932B
:103BC000FC0193858485A081B18114962C91149772
:103BD00024FF05C083E013968C9385E01AC02585E9
:103BE000291758F48585EF01C80FD11D8B811796D1
:103BF0008C9385858F5F85870EC09685981728F4EE
:103C00008281816016968C9306C083E013968C9314
:103C100081E0808B1786DF91CF910895FC01868526
:103C2000A081B181843060F417968C919685DF0174
:103C3000A90FB11D17968C9386858F5F868706C066
:103C400083E013968C9382E0808B1786848596851B
:103C5000A081B181981720F482E013968C93089587
:103C600087E013968C9381E0808B17860895DC01A2
:103C7000ED91FC912481322F3C7011F00C94CD1DFC
:103C800026FD0C94DE1D27FD0C940E1E26E0FC0183
:103C9000208B17860895FC01608B17860895FC0120
:103CA000138288E1848383E0858380E186831782A1
:103CB000089580E090E008958FEF9FEF08950895B4
:103CC0000C9489085058BB27AA270ED06CC15DD12F
:103CD00030F062D120F031F49F3F11F41EF452C154
:103CE0000EF4E095E7FB48C1E92F6ED180F3BA17D7
:103CF000620773078407950718F071F49EF586C173
:103D00000EF4E0950B2EBA2FA02D0B01B9019001F6
:103D10000C01CA01A0011124FF27591B99F0593F3A
:103D200050F4503E68F11A16F040A22F232F342F82
:103D30004427585FF3CF469537952795A795F040D0
:103D40005395C9F77EF41F16BA0B620B730B840BE5
:103D5000BAF09150A1F0FF0FBB1F661F771F881F9D
:103D6000C2F70EC0BA0F621F731F841F48F48795F5
:103D700077956795B795F7959E3F08F0B3CF9395E4
:103D8000880F08F09927EE0F9795879508950CD026
:103D90000AC102D140F0F9D030F021F45F3F19F0B0
:103DA000EBC0511134C1EEC00FD198F39923C9F380
:103DB0005523B1F3951B550BBB27AA276217730731
:103DC000840738F09F5F5F4F220F331F441FAA1FE5
:103DD000A9F333D00E2E3AF0E0E830D091505040A5
:103DE000E695001CCAF729D0FE2F27D0660F771F53
:103DF000881FBB1F261737074807AB07B0E809F035
:103E0000BB0B802DBF01FF2793585F4F2AF09E3FC9
:103E1000510568F0B1C0FBC05F3FECF3983EDCF3A6
:103E2000869577956795B795F7959F5FC9F7880F42
:103E3000911D9695879597F90895E1E0660F771F94
:103E4000881FBB1F621773078407BA0720F0621B25
:103E5000730B840BBA0BEE1F88F7E095089504D01E
:103E60006894B111D4C00895B7D088F09F5790F0EE
:103E7000B92F9927B751A0F0D1F0660F771F881F8F
:103E8000991F1AF0BA95C9F712C0B13081F0BED0AF
:103E9000B1E00895BBC0672F782F8827B85F39F04D
:103EA000B93FCCF3869577956795B395D9F73EF4EE
:103EB00090958095709561957F4F8F4F9F4F089596
:103EC000E89409C097FB3EF49095809570956195B4
:103ED0007F4F8F4F9F4F9923A9F0F92F96E9BB276A
:103EE0009395F695879577956795B795F111F8CFE6
:103EF000FAF4BB0F11F460FF1BC06F5F7F4F8F4F51
:103F00009F4F16C0882311F096E911C0772321F046
:103F10009EE8872F762F05C0662371F096E8862FDE
:103F200070E060E02AF09A95660F771F881FDAF735
:103F3000880F9695879597F90895990FBB0B550FA4
:103F4000AA0BE0E8FEEF16161706E807F90770F06F
:103F500012161306E407F50760F0BA173CF049F4AF
:103F60006217730784079507A7951BF4B901CA0167
:103F7000BA2FB6959795089597F99F6780E870E0F6
:103F800060E008959FEF80EC089500240A941616CF
:103F9000170618060906089500240A941216130637
:103FA000140605060895092E0394000C11F48823C5
:103FB00052F0BB0F40F4BF2B11F460FF04C06F5FE1
:103FC0007F4F8F4F9F4F089557FD9058440F551FB7
:103FD00059F05F3F71F04795880F97FB991F61F08B
:103FE0009F3F79F087950895121613061406551F02
:103FF000F2CF4695F1DF08C0161617061806991F6E
:10400000F1CF86957105610508940895E894BB2762
:1040100066277727CB0197F908950BD0C4CFB5DF7A
:1040200028F0BADF18F0952309F0A6CFABCF112402
:10403000EECFCADFA0F3959FD1F3950F50E0551F47
:10404000629FF001729FBB27F00DB11D639FAA27ED
:10405000F00DB11DAA1F649F6627B00DA11D661F3C
:10406000829F2227B00DA11D621F739FB00DA11D5D
:10407000621F839FA00D611D221F749F3327A00D17
:10408000611D231F849F600D211D822F762F6A2FB3
:1040900011249F5750408AF0E1F088234AF0EE0F38
:1040A000FF1FBB1F661F771F881F91505040A9F745
:1040B0009E3F510570F060CFAACF5F3FECF3983E72
:1040C000DCF3869577956795B795F795E7959F5FAC
:1040D000C1F7FE2B880F911D9695879597F9089546
:1040E0007BDFE0F09E37D8F09639B8F49E3848F47C
:1040F000672F782F8827985FF9CF869577956795F2
:1041000093959539D0F3B62FB1706B0F711D811D4A
:1041100020F4879577956795939502C01CC077CF5B
:10412000882371F4772321F09850872B762F07C0CE
:10413000662311F499270DC09051862B70E060E042
:104140002AF09A95660F771F881FDAF7880F9695E1
:10415000879597F908959F3F31F0915020F4879506
:1041600077956795B795880F911D9695879597F9DF
:1041700008950E941221A59F900DB49F900DA49FB9
:10418000800D911D11240895991B79E004C0991F99
:10419000961708F0961B881F7A95C9F780950895A1
:1041A000AA1BBB1B51E107C0AA1FBB1FA617B7075D
:1041B00010F0A61BB70B881F991F5A95A9F7809579
:1041C0009095BC01CD010895A1E21A2EAA1BBB1B3C
:1041D000FD010DC0AA1FBB1FEE1FFF1FA217B307D3
:1041E000E407F50720F0A21BB30BE40BF50B661FE9
:1041F000771F881F991F1A9469F7609570958095AD
:1042000090959B01AC01BD01CF0108950024A7FD4D
:1042100000942A173005400550056005700580059B
:1042200090050895A29FB001B39FC001A39F01D044
:10423000B29F700D811D1124911D08950F931F933E
:10424000CF93DF93689F8001699F100D789F100DB9
:104250001124C8010E943C21C82FD92F209731F08A
:10426000A80160E070E08C2F0E948322CE01DF91D4
:10427000CF911F910F9108950F931F93CF93DF93C9
:104280008230910510F482E090E0E091E825F09111
:10429000E92520E030E0C0E0D0E023C0408151813A
:1042A00048175907A8F04817590761F4828193818C
:1042B000209719F08A839B832EC08093E8259093E2
:1042C000E92529C02115310529F04217530710F0BF
:1042D000A90102C0BE01DF0102811381EF019A0131
:1042E000F8013097D9F62115310509F1281B390B52
:1042F0002430310590F412968D919C91139761159D
:10430000710521F0FB018283938304C08093E8252B
:104310009093E925FD01329644C0FD01E20FF31FA1
:1043200081939193225031092D933C933AC020916F
:10433000E6253091E725232B41F420911F20309171
:1043400020202093E6253093E72520911D203091F1
:104350001E202115310541F42DB73EB74091212093
:1043600050912220241B350BE091E625F091E725A2
:10437000E217F307A0F42E1B3F0B2817390778F03C
:10438000AC014E5F5F4F2417350748F04E0F5F1F9B
:104390004093E6255093E7258193919302C0E0E096
:1043A000F0E0CF01DF91CF911F910F910895EF922F
:1043B000FF920F931F93CF93DF93009709F48EC062
:1043C000DC01129712961D921C921397E090E8253B
:1043D000F090E925E114F10489F42D913C911197B5
:1043E000280F391F8091E6259091E72582179307C2
:1043F00089F5A093E625B093E72570C0E70120E09A
:1044000030E001C0EA01CA17DB0738F44A815B815A
:104410009E0141155105B1F722C0AC01425051092E
:10442000FA01C283D38300811181BC01600F711F27
:104430006C177D0761F468817981600F711F6E5F71
:104440007F4F608371836A817B81628373832115CF
:10445000310529F4A093E825B093E9253FC0F9017F
:10446000A283B383E90149915991C40FD51FAC17B9
:10447000BD0771F4DC019E918E91840F951F029609
:104480008083918312968D919C911397828393835D
:10449000A0E0B0E002C0D7017C01F70182819381E6
:1044A0000097C9F7C701029620813181820F931FBF
:1044B0002091E6253091E7252817390779F41097E0
:1044C00029F41092E8251092E92504C012961D9255
:1044D0001C921397E092E625F092E725DF91CF91A9
:1044E0001F910F91FF90EF90089581E090E0F89474
:1044F0000C944225FB01DC0102C001900D92415059
:104500005040D8F70895DC0101C06D9341505040F0
:10451000E0F70895CF93DF931F921F92CDB7DEB7D8
:10452000FE01389661917191E983FA83AF01809120
:10453000EC259091ED250E94A2220F900F90DF9123
:10454000CF9108952F923F924F925F926F927F92F8
:104550008F929F92AF92BF92CF92DF92EF92FF9293
:104560000F931F93CF93DF93CDB7DEB72C97CDBFBB
:10457000DEBF7C016B018A01FC01168217828381F8
:1045800081FFC7C188248394912C8C0E9D1EF70156
:104590009381F60193FD859193FF81916F018823AB
:1045A00009F4B3C1853239F493FD859193FF81916C
:1045B0006F01853229F4B70190E00E94B824E7CF5B
:1045C000712C312C20E02032A8F48B3261F028F4D9
:1045D000803251F0833271F40BC08D3239F0803368
:1045E00049F4216028C02260246025C0286023C0CF
:1045F000206121C027FD27C0382F30533A3078F48E
:1046000026FF06C0FAE07F9E300D1124732E13C0E2
:104610008AE0389E300D1124332E20620CC08E3279
:1046200021F426FD72C1206406C08C3611F4206886
:1046300002C0883641F4F60193FD859193FF819184
:104640006F018111C0CF982F9554933018F090527C
:10465000933028F40C5F1F4FFFE3F9830DC08336BE
:1046600031F0833771F0833509F05EC023C0F80163
:10467000808189830E5F1F4F66246394712C5401DF
:1046800015C02801F2E04F0E511CF801A080B18046
:1046900026FF03C0672D70E002C06FEF7FEFC501FA
:1046A0002C870E94AD243C0182012C856FE7262EC9
:1046B000222218C02801F2E04F0E511CF801A08000
:1046C000B18026FF03C0672D70E002C06FEF7FEF5F
:1046D000C5012C870E94A2243C012C8550E8252E80
:1046E000222A820123FC1CC006C0B70180E290E0B0
:1046F0000E94B8243A94832D90E068167906A8F3B6
:104700000FC0F50127FC859127FE81915F01B7015C
:1047100090E00E94B82431103A94F1E06F1A7108C9
:104720006114710471F7EEC0843611F0893641F5D9
:10473000F80127FF07C060817181828193810C5F3E
:104740001F4F08C060817181882777FD8095982F61
:104750000E5F1F4F4FE6642E622297FF09C09095AF
:104760008095709561957F4F8F4F9F4FF0E86F2A2E
:104770002AE030E0A4010E94E424A82EA81844C036
:10478000853731F43FEEB32EB2222AE030E024C068
:1047900099EFB92EB2228F36B9F020F4883509F09E
:1047A000B4C00DC0803721F0883709F0AEC002C018
:1047B00020E1B22AB4FE0BC084E0B82A08C024FF6E
:1047C00009C0E6E0BE2A06C028E030E005C020E1CE
:1047D00030E002C020E132E0F801B7FE07C060819E
:1047E0007181828193810C5F1F4F06C0608171814E
:1047F00080E090E00E5F1F4FA4010E94E424A82EE9
:10480000A8188FE7682E6B2066FE0BC0362D3E7F02
:10481000A71450F464FE0AC062FC08C0362D3E7E28
:1048200005C0BA2C362D03C0BA2C01C0B72C34FFFA
:104830000DC0FE01EA0DF11D8081803311F4397E37
:1048400009C032FF06C0B394B39404C0832F8678A6
:1048500009F0B39433FD14C030FF0FC07A2CB314A9
:1048600060F4730C7B18B32C08C0B70180E290E0B1
:104870003C870E94B824B3943C85B314B0F304C0C1
:10488000B31410F43B1801C0312C34FF12C0B7012F
:1048900080E390E03C870E94B8243C8532FF1EC034
:1048A00031FF03C088E590E002C088E790E0B701DF
:1048B0000CC0832F867891F031FD02C080E201C0E8
:1048C0008BE237FD8DE2B70190E00E94B82406C06C
:1048D000B70180E390E00E94B8247A94A714C0F353
:1048E000AA94F401EA0DF11DB701808190E00E94C5
:1048F000B824A110F5CF06C0B70180E290E00E9475
:10490000B8243A943110F8CF42CEF701268137818E
:1049100002C02FEF3FEFC9012C96CDBFDEBFDF9164
:10492000CF911F910F91FF90EF90DF90CF90BF90AC
:10493000AF909F908F907F906F905F904F903F903F
:104940002F900895FC010590615070400110D8F738
:10495000809590958E0F9F1F0895FC0161507040C7
:1049600001900110D8F7809590958E0F9F1F0895A4
:104970000F931F93CF93DF938C01EB018B8181FD0C
:1049800003C00FEF1FEF1AC082FF0DC02E813F81C1
:104990008C819D812817390764F4E881F98101939E
:1049A000E883F98306C0E885F985802F1995892B5E
:1049B00041F78E819F8101968E839F83C801DF918D
:1049C000CF911F910F910895FA01AA27283051F134
:1049D000203181F1E8946F936E7F6E5F7F4F8F4F30
:1049E0009F4FAF4FB1E03ED0B4E03CD0670F781F8F
:1049F000891F9A1FA11D680F791F8A1F911DA11D74
:104A00006A0F711D811D911DA11D20D009F46894AC
:104A10003F912AE0269F11243019305D3193DEF654
:104A2000CF010895462F4770405D4193B3E00FD00A
:104A3000C9F7F6CF462F4F70405D4A3318F0495DF5
:104A400031FD4052419302D0A9F7EACFB4E0A695D8
:104A50009795879577956795BA95C9F700976105FA
:104A6000710508959B01AC010A2E06945795479550
:104A700037952795BA95C9F7620F731F841F951F45
:084A8000A01D0895F894FFCF7A
:104A8800FFFF0000E12D00FFEB0000FF0000FFFF2B
:104A98000000FFFFFFFFFF00FFFF002DC80000F030
:104AA80025200053522069733A2025780D0A00000A
:00000001FF
