:100000000C94F4000C9415010C9415010C9415013A
:100010000C9415010C9415010C9415010C94150108
:100020000C9415010C9415010C94CF140C9415012B
:100030000C9415010C9415010C9415010C941501E8
:100040000C9415010C9415010C9415010C941501D8
:100050000C9415010C9415010C9415010C941501C8
:100060000C9415010C94DD130C9415010C940914D7
:100070000C94C9120C9415010C94F5120C941501F2
:100080000C9415010C9415010C94500D0C94150151
:100090000C9415010C9415010C9415010C94150188
:1000A0000C9415010C9415010C9415010C94150178
:1000B0000C9415010C9415010C948F0D0C941501E2
:1000C0000C9415010C9415010C9415010C94150158
:1000D0000C9415010C9415010C9415010C94150148
:1000E0000C9415010C9415010C9481130C941501BA
:1000F0000C94AD130C9415010C9415010C9415017E
:100100000C9415010C9415010C9415010C94150117
:100110000C9415010C9415010C9415010C941615F2
:100120000C9415010C9415010C9415010C941501F7
:100130000C9415010C9415010C9415010C941501E7
:100140000C9415010C9415010C9415010C94F215E6
:100150000C9415010C9415010C9415010C941501C7
:100160000C9439140C9415010C9465140C946D12B4
:100170000C9415010C9499120C9415010C94150112
:100180000C9415010C9415010C9415010C94150197
:100190000C9415010C9415010C9415010C94150187
:1001A0000C9415010C9415010C9415010C94150177
:1001B0000C94EE0D0C9415010C9415010C94150182
:1001C0000C9415010C9415010C9415010C94150157
:1001D0000C9415010C9415010C9415010C94251325
:1001E0000C9415010C94511311241FBECFEFDFE5C1
:1001F000DEBFCDBF00E00CBF10E2A0E0B0E2ECE457
:10020000F5E300E00BBF02C007900D92A832B107E2
:10021000D9F715E2A8E2B0E201C01D92A73AB107F2
:10022000E1F70E9490170C94A41A0C94000086E049
:100230000E94E7060E94BD0390E08130910511F411
:1002400080E0F6CF8230910511F481E0F1CF833068
:10025000910511F482E0ECCF8430910511F483E034
:10026000E7CF8530910511F485E0E2CF0697F9F6E6
:1002700087E0DECF809128209091292001968093FD
:10028000282090932920069711F40C94B201089528
:1002900067E171E081E00C94A40660912E207091DA
:1002A0002F20809130209091312008950C94530C90
:1002B0000C94610CCF9381E090E080932C2090937C
:1002C0002D2080912A2090912B20892B31F00E94A3
:1002D0005601892B11F00E9458010E9466080E9465
:1002E0004D09C0E08C2F0E94390F0E94C2028C2F52
:1002F0000E946C10CF5FC630A9F70E94F6051092DD
:100300002C2010922D20CF9108950E94DD050E948F
:10031000DE090E9411070E9416080E94F9020E943D
:1003200024110E94F4070E94B8050E94E10D0E946A
:10033000B40C81E090E080932A2090932B200C94C1
:10034000F7148093F7209093F82008958093F72076
:100350009093F82044E050E067EF70E280E090E096
:100360000C9454110C941D0EFB012FB7F894978D2B
:10037000DB01A90FB11D8C93892F8F5F8E3111F096
:10038000878F01C0178E878D968D891711F02FBF2B
:1003900008958F5F868F8E31D1F7168EF8CFFC01CE
:1003A000968D878D981308C004C0168E9FBF30E0CD
:1003B0000FC02FEF3FEF0CC09FB7F894868DDF0181
:1003C000A80FB11D2C918F5F8E3179F3868FEECF00
:1003D000C9010895FC0181E0268D978D291380E0E5
:1003E000089581E00895E0913720F091382030970A
:1003F00049F08081813021F08F3F21F40E94B201C9
:100400000E94300480E00895863008F03FC098E5EF
:10041000899FF0011124E45CFC4D87859089892B2C
:10042000A9F12FB7F894A785B08952968D919C9128
:1004300053978787908B892BA1F0A0933720B09397
:1004400038202FBFA0913720B091382052961D92AE
:100450001C9253975696ED91FC915797309739F42B
:100460000FC0118A128A86858F778687E6CF6871DA
:1004700051968C915197877E682B51966C93199564
:10048000109237201092382081E0089580E008957E
:10049000CF93C82F863030F468E18C2F0E9404027D
:1004A0008111FACFCF910895EF92FF920F931F938E
:1004B000CF93DF93EC01CA01209751F1663040F5EC
:1004C000223130F5009721F138E5639FF0011124C6
:1004D000E45CFC4D30813068398B1A8A1B8A0C8BA6
:1004E0001D8BEE8AFF8A022F10E0422F50E0BC01E4
:1004F000CE010E94DC17C00FD11F41E150E0401B2C
:10050000510B6FEF70E0CE010E94E51781E001C052
:1005100080E0DF91CF911F910F91FF90EF900895B0
:10052000009771F1DC015196EC91E770E63030F5FF
:100530006FB7F8942E2F30E0B8E5EB9FF00111244F
:10054000E45CFC4D47855089452B19F48787908BD7
:1005500005C00188F289E02D828B938B48E5429F8C
:10056000F001439FF00D1124E45CFC4D818B928BD4
:100570008685806886876FBF81E008950E94220784
:1005800080E008950E944710809337209093382090
:10059000009769F1DC015496ED91FC9155973097E5
:1005A00019F40E94F30101C01995809137209091B0
:1005B0003820FC012189E22FE77038E5E39FF00144
:1005C0001124E45CFC4D25FB442740F921E030E098
:1005D00001C0220F4A95EAF73685322B36870E94F2
:1005E0002207109237201092382081E0089580E091
:1005F00008950E94FB101092322010923320109226
:100600003420109235201092362008950C948F17C4
:100610000F931F93CF93DF9300D000D0CDB7DEB7F9
:1006200081E0898383E08A830E94B0119B838C835D
:10063000A0914C25B0914D2519968C91199790E079
:10064000FC01EE0FFF1FE75CFF4D208131813D83F0
:100650002E8321E1289FF001299FF00D1124EB5BEF
:10066000FF4D108A0DE915E020E030E046E0BE01C4
:100670006F5F7F4F19968C910E9497072696CDBF8A
:10068000DEBFDF91CF911F910F910895FF920F93DD
:100690001F93CF93DF9300D01F92CDB7DEB7E091C9
:1006A0004C25F0914D25F18481E089838A830E9455
:1006B000B0119B838C8381E1F89E90011124F90194
:1006C000EB5BFF4D108A8285882329F0C901895B85
:1006D0009F4D0E94F7080FE713E020E030E044E070
:1006E000BE016F5F7F4F8F2D0E9497072496CDBF6D
:1006F000DEBFDF91CF911F910F91FF900895809100
:10070000372090913820DC015196EC912E2F2871E2
:10071000AE2FA770283059F421E1A29FD0011124F7
:10072000AB5BBF4D44E650E060E070E00AC021E101
:10073000A29FD0011124AB5BBF4D42E350E060E0CB
:1007400070E01C964D935D936D937C931F97E770BB
:10075000A1E1EA9FF0011124EB5BFF4D21E0208B2A
:100760000C942207FB01908381830895FC01308162
:1007700020E08181282BC9010895E9E3F0E280E0BF
:1007800021913191232B09F08F5F90E2E534F90735
:10079000B9F70895E9E3F0E2808191810895E3E4F7
:1007A000F0E2808191810895EBE3F0E28081918114
:1007B0000895E1E4F0E2808191810895EDE3F0E2B3
:1007C000808191810895EFE3F0E280819181089525
:1007D000863080F4E82FF0E0EE0FFF1FE75CFF4D5E
:1007E000808191818617970729F06083718383E167
:1007F0000C946D0608951F93CF93DF93182F60E03C
:1008000070E00E94E803C12FD0E081E1189F9001C1
:100810001124F901EB5BFF4D108A8285882329F0B2
:10082000C901895B9F4D0E94F70881E18C9FF0010F
:100830008D9FF00D1124EB5BFF4D138786E493E051
:100840008087918782E390E0A0E0B0E0848795877D
:10085000A687B78781E0808BDF91CF911F910895A4
:10086000DF92EF92FF920F931F93CF93DF9300D00D
:1008700000D0CDB7DEB7E0913720F0913820309727
:1008800009F400C19181923009F45CC0933009F4FD
:10089000BEC0913009F0F8C0E189E77011E11E9FF8
:1008A000F0011124EB5BFF4D448555856685778506
:1008B000443651056105710509F4E6C0998382E06B
:1008C0008A830E94B0119B838C83E0913720F09142
:1008D000382082818D8383818E83818960E070E0FE
:1008E00087700E94E803A0913720B091382051967C
:1008F000EC915197E7701E9FF0011124EB5BFF4DC7
:10090000108A51968C918770189FC0011124FC01A8
:10091000EB5BFF4D2285222321F0895B9F4D0E94D6
:10092000F708E0913720F0913820818900E515E043
:1009300020E030E046E0BE016F5F7F4F87700E948D
:100940009707A2C0A189A77051E1D52EDA9ED001E8
:100950001124AB5BBF4D1C964D915D916D917C91C7
:100960001F97443651056105710509F08DC002815C
:100970001381348120E085817901E82A0E94B01139
:10098000E816F90609F080C0A0913720B091382010
:100990005196EC915197E770DE9EF0011124EB5BCC
:1009A000FF4D108A51968C918770D89EC0011124FA
:1009B000FC01EB5BFF4D2285222321F0895B9F4DDB
:1009C0000E94F7082091372030913820D9015196A4
:1009D000EC91E770B1E1EB9FF0011124EB5BFF4D6F
:1009E00084EF91E0A0E0B0E084879587A687B78781
:1009F00088E093E08087918781E0808B702F60E0B2
:100A0000612BF901818987700E94E8033DC0A189AB
:100A1000A77021E1A29FD0011124AB5BBF4D1C96B2
:100A20008D919D910D90BC91A02D843F9140A10589
:100A3000B10551F5E280F380948180E025818C013D
:100A4000022B0E94B0110817190799F49E2D80E01F
:100A50008F29E0913720F0913820E189E770F0E0AC
:100A6000EE0FFF1FE75CFF4D208131818217930756
:100A700059F0E0913720F0913820818987700E94E9
:100A8000FB0302C080E001C081E02696CDBFDEBF3F
:100A9000DF91CF911F910F91FF90EF90DF9008951C
:100AA000CF93DF93E0913720F09138208189982F00
:100AB00098719830B9F5748160E09581EB01C92B8C
:100AC000877021E1829FC0011124FC01EB5BFF4D87
:100AD00044EF51E060E070E0448755876687778790
:100AE0002285222321F0895B9F4D0E94F708A09167
:100AF0003720B09138205196EC915197E77081E101
:100B0000E89FF0011124EB5BFF4D88E093E08087C4
:100B1000918781E0808B51968C91BE0187700E94F5
:100B2000E80303C087700E94FB03809137209091F7
:100B30003820DF91CF910C942207E0913720F0917B
:100B400038208189982F98718770983049F491E105
:100B5000899FF0011124EB5BFF4D81E0808B02C087
:100B60000E94FB0380913720909138200C9422073B
:100B7000FF920F931F93CF93DF9305E510E2C0E040
:100B8000D0E061E1F62EFC9EC001FD9E900D112487
:100B90008B5B9F4D0E947809F80110828C2F0E9478
:100BA000FB0321960F5E1F4FC630D10561F7DF9121
:100BB000CF911F910F91FF9008951092AB2010924A
:100BC000AC201092AD201092AE201092AF20109267
:100BD000B0201092B1201092B220E3EBF0E211921B
:100BE000119280E2E33FF807D1F708958F929F9228
:100BF000AF92BF92CF92DF92EF92FF920F931F932B
:100C0000CF93DF932091AB203091AC204091AD2069
:100C10005091AE206091AF207091B0208091B120B2
:100C20009091B220A0E00E94BF1709F449C003EBE5
:100C300010E2C12CD12C7601C3948090AB2090900F
:100C4000AC20A090AD20B090AE20D701C6012C2DD5
:100C50002821392F39214A2F4A215B2F5B2160E05F
:100C600070E080E090E0A0E00E94BF17F1F0D701B3
:100C7000C60180959095A095B09588229922AA22C8
:100C8000BB228092AB209092AC20A092AD20B0927B
:100C9000AE201092AF201092B0201092B12010928E
:100CA000B220D801ED91FC911995CC0CDD1CEE1C05
:100CB000FF1C0E5F1F4FB0E2033F1B0709F0BDCFC3
:100CC000DF91CF911F910F91FF90EF90DF90CF9028
:100CD000BF90AF909F908F900895CF93DF93482F50
:100CE000803260F5E82FF0E0EE0FFF1FED54FF4D6E
:100CF00020813181232B11F181E090E0A0E0B0E070
:100D000004C0880F991FAA1FBB1F4A95D2F75091A4
:100D1000AB20582B4091AC20492B3091AD203A2B81
:100D20002091AE202B2B5093AB204093AC203093DE
:100D3000AD202093AE2021E030E002C020E030E082
:100D4000C901DF91CF910895803278F4E82FF0E067
:100D5000EE0FFF1FED54FF4D80819181892B29F407
:100D60006083718321E030E002C020E030E0C901FF
:100D70000895803278F4E82FF0E0EE0FFF1FED5475
:100D8000FF4D80819181892B29F01082118221E011
:100D900030E002C020E030E0C9010895803260F404
:100DA000E82FF0E0EE0FFF1FED54FF4D0190F081B2
:100DB000E02D309709F0199408958091F620089558
:100DC0008091F6208F5F893008F080E0089580934D
:100DD000F62090E0FC01EE0FFF1FE80FF91FEF5F18
:100DE000FF4D209100204281618180810C94FC1094
:100DF0000E94E0060E94E7068091F62008950C9478
:100E0000FC1080930020282F4091F5206091F42061
:100E10008091F3200C94FC108091002008950C9494
:100E20002411ECE2F2E21082789683E2EC34F807C7
:100E3000D1F7ECE0F1E21082789682E2EC32F8072A
:100E4000D1F70895FC0109C0818987FD118A928933
:100E50008389128A138AE92FF82F3097A9F708950A
:100E6000811103C08BE192E202C08BEF90E22CE093
:100E7000FC01E85FFE4FDC01A75EBE4F3C9137FDF1
:100E800005C080E8818B128A138A06C021504897DA
:100E90002111EECFE0E0F0E0CF01089580E00C9466
:100EA000300781E00C943007EF92FF920F931F936D
:100EB000CF93DF93EC01CB01E9E3F0E260E0A19195
:100EC000B191A817B90761F4CE010E9454028111B3
:100ED00002C080E009C0CE010E94900281E004C0FF
:100EE0006F5F663061F7F5CFDF91CF911F910F9162
:100EF000FF90EF900895EF92FF920F931F93CF937F
:100F0000DF93EC016F3F11F480E00AC06630E0F738
:100F10000E9454028823C1F3CE010E94900281E016
:100F2000DF91CF911F910F91FF90EF9008956F92F5
:100F30007F928F929F92AF92BF92CF92DF92EF9269
:100F4000FF920F931F93CF93DF93782E6B01642E44
:100F5000590148018FEF78121BC0712C0E94510774
:100F6000EC01009781F074018501262DA601672D03
:100F70000E945402811104C0CE010E94220703C0C6
:100F8000CE010E949002739486E07812E7CF1CC0D5
:100F900085E0871508F411C00E945107EC01009705
:100FA00061F078018501262DA601672D0E9454026B
:100FB000811105C0CE010E942207712C05C0CE010F
:100FC0000E94900277247394872DDF91CF911F9117
:100FD0000F91FF90EF90DF90CF90BF90AF909F90D8
:100FE0008F907F906F9008950895E0914C25F09137
:100FF0004D250284F385E02D8585806485870895DD
:10100000FC01158680E48687CF010196838794874B
:1010100085EF97E0878390871786108A118A128A56
:10102000138A148A158A168A178A0895FF920F93D5
:101030001F93CF93DF930CE313E2C0E0D0E088E589
:10104000F82EF801C083FC9EC001FD9E900D112476
:10105000845C9C4D0E9400082196085A1F4FC630A0
:10106000D10579F7DF91CF911F910F91FF900C94EB
:1010700013120E9485010E94480180E00E94CE0662
:1010800081E0FCCFCF92DF92EF92FF92CF93DF937C
:10109000EC010E9495146B017C01CE01AA2797FDFB
:1010A000A095BA2FC80ED91EEA1EFB1E0E949514E9
:1010B0006C157D058E059F05C8F3DF91CF91FF90DC
:1010C000EF90DF90CF9008950C9495140F931F9399
:1010D000CF93DF9300D01F92CDB7DEB7809150251C
:1010E00090915125892B99F10E949514E0915025FA
:1010F000F091512502811381248135816017710798
:101100008207930720F1E0934C25F0934D25208131
:10111000318120935025309351252085222361F081
:101120000680F781E02D69837A838B839C831995F0
:101130009C818B817A816981E0914C25F0914D25CC
:1011400010862091502530915125232B79F6249635
:10115000CDBFDEBFDF91CF911F910F9108950F9307
:101160001F93CF93DF93FC0110821182A091502531
:10117000B0915125109729F48093502590935125D3
:101180002DC04281538164817581C0E0D0E003C0ED
:10119000DC01C32FD22F12960D911D912D913C9100
:1011A0001597041715072607370718F0209791F4AD
:1011B0000CC08D919C9111973A2F2B2F009741F7DE
:1011C000ED93FC931082118209C0E0935025F093B7
:1011D000512502C0E883F983A083B18381E0808731
:1011E00081E090E0DF91CF911F910F910895E09100
:1011F0005025F09151253097D1F0A0E0B0E007C024
:1012000020813181DF012115310589F0F9018E1727
:101210009F07B1F70FC0209350253093512502C08E
:101220002D933C93FC01108621E030E009C020E0C2
:1012300030E006C0FC0120813181109789F7EBCFA7
:10124000C9010895E0915025F09151253097D9F0CA
:10125000A0E0B0E007C020813181DF012115310518
:1012600091F0F9012681378128173907A1F70EC0BF
:10127000809350259093512502C08D939C931086A6
:1012800021E030E008C020E030E005C0808191819D
:10129000109799F7EDCFC90108950F931F93CF933E
:1012A000DF93C0914E25D0914F251BC08889813096
:1012B000A9F48A85811112C00E9495140C851D85A0
:1012C0002E853F85600F711F821F931F6C837D8366
:1012D0008E839F83CE0102960E94AF080990D88129
:1012E000C02D209719F7DF91CF911F910F9108958D
:1012F000FC0110821182E0914E25F0914F2530972C
:1013000059F480934E2590934F2510C08E179F0758
:1013100011F40E94D717F90120813181211531057F
:10132000A9F78E179F07A9F38083918321E0FC0121
:10133000208B81E090E00895E0914E25F0914F25BB
:101340003097D9F0A0E0B0E007C020813181DF0103
:101350002115310591F0F901E817F907B1F710C02F
:1013600080934E2590934F2502C08D939C931082BD
:101370001182108A21E030E008C020E030E005C092
:1013800080819181109789F7EBCFC90108950F9360
:101390001F93CF93DF938C010E949C09EC010115F0
:1013A000110531F0C80102960E94F708C80FD91F35
:1013B000CE01DF91CF911F910F910895109250258A
:1013C0001092512510924C2510924D2510924E25C9
:1013D00010924F250C94CB14809152259091532557
:1013E00008958091CF0187FDFCCF0895CF93DF93BF
:1013F0001F921F92CDB7DEB76A8389830E94F109DD
:101400006A816F71898120E2829FC0011124862B3D
:10141000E0ECF1E080839183128286E08287EF9393
:10142000FF930F932F93EBECF1E008ED21E004BF65
:1014300020832F910F91FF91EF9184810F900F9056
:10144000DF91CF9108950E94F1098091CF0181FF32
:1014500011C086E38093CA01EF93FF930F932F93FC
:10146000EBECF1E008ED21E004BF20832F910F9118
:10147000FF91EF910895CF93DF9300D0CDB7DEB702
:101480004B836A8389830E94230AE0ECF1E093E3B3
:1014900092876A816F71898120E2829FC001112445
:1014A000862B8083918312824B81448385E38287DC
:1014B000EF93FF930F932F93EBECF1E008ED21E016
:1014C00004BF20832F910F91FF91EF912396CDBF01
:1014D000DEBFDF91CF910895CF93DF931F921F92CC
:1014E000CDB7DEB76A8389830E94F109E0ECF1E0B1
:1014F00093E3928789818083118212826A81648357
:101500000F900F90DF91CF910895CF93DF93EC016F
:101510000E94F10983E38093CA011092C1011092E5
:10152000C20180E08093C00199919093C4018F5FC4
:101530008032C1F7DF91CF9108950F931F93CF931E
:10154000DF931F921F92CDB7DEB78C014A83698368
:101550000E94F10983E38093CA011092C1011092A5
:10156000C2014A816981460F08C06093C001F80139
:1015700081918F018093C4016F5F641711F0603215
:10158000A0F30F900F90DF91CF911F910F910895CD
:10159000CF93DF931F92CDB7DEB789830E94F10905
:1015A000898120E2829FC0011124E0ECF1E0808378
:1015B0009183128285E38287EF93FF930F932F939A
:1015C000EBECF1E008ED21E004BF20832F910F91B7
:1015D000FF91EF910F90DF91CF910895CF93DF931B
:1015E0001F92CDB7DEB789830E94F109898120E27D
:1015F000829FC0011124E0ECF1E08083918312828C
:1016000082E38287EF93FF930F932F93EBECF1E04C
:1016100008ED21E004BF20832F910F91FF91EF91FE
:101620000F90DF91CF910895CF93DF931F92CDB7A5
:10163000DEB789830E94F109898120E2829FC0017F
:101640001124E0ECF1E080839183128284E38287AD
:10165000EF93FF930F932F93EBECF1E008ED21E074
:1016600004BF20832F910F91FF91EF910F90DF9195
:10167000CF9108950E94F10980E3E0ECF1E08287C8
:10168000EF93FF930F932F93EBECF1E008ED21E044
:1016900004BF20832F910F91FF91EF9108958093C4
:1016A000C30A8091C20A87FFFCCF8091C30A0895C4
:1016B000019749F480E1672B19F08093A5060895FE
:1016C0008093A606089580E1672B19F08093850624
:1016D0000895809386060895EF92FF920F931F93CB
:1016E000CF93DF93EB018A0179010197F1F480E157
:1016F0008093A60683E00E944F0B8D2F0E944F0B14
:101700008C2F0E944F0BE80106C080E00E944F0B17
:10171000F80181938F01C8018C1B9D0B8E159F05CD
:10172000A4F380E18093A50626C080E1809386061D
:1017300084ED0E944F0B80E00E944F0BCE01882762
:101740009370892F0E944F0B8C2F0E944F0B80E0CB
:101750000E944F0BE80106C080E00E944F0BF80189
:1017600081938F01C8018C1B9D0B8E159F05A4F3DF
:1017700080E18093850681E090E0DF91CF911F9119
:101780000F91FF90EF900895EF92FF920F931F93A8
:10179000CF93DF93EB018A0179010197E9F480E1AE
:1017A0008093A60682E00E944F0B8D2F0E944F0B64
:1017B0008C2F0E944F0BE80105C0F80181918F0129
:1017C0000E944F0BC8018C1B9D0B8E159F05ACF31F
:1017D00080E18093A50622C080E18093860684E89C
:1017E0000E944F0B80E00E944F0BCE018827937020
:1017F000892F0E944F0B8C2F0E944F0BE80105C0D0
:10180000F80181918F010E944F0BC8018C1B9D0B29
:101810008E159F05ACF380E18093850681E090E012
:10182000DF91CF911F910F91FF90EF900895089550
:101830001F93CF93DF93C0EAD6E010E11E8381E0CF
:101840000E944F0B81E40E944F0B1D831E8385E095
:101850000E944F0B80E00E944F0B1D831F928F93BD
:101860008CE190E29F938F930E94EC170F900F9062
:101870000F900F90DF91CF911F910895E0E8F6E06F
:1018800080E185838183A0EAB6E015968C93159755
:1018900011968C9380EA818380E4828380E5809333
:1018A000C00A0C94180C80916425813031F4809129
:1018B000632521E030E0882311F020E030E0C90109
:1018C0000895CF9380916425813009F04BC08091B9
:1018D0006325811147C0C091312080915B2524E0B0
:1018E000829FC00111248595859580932E2080913B
:1018F0005C2524E0829FC001112485958595809305
:101900002F2080915D2524E0829FC00111248595C0
:1019100085958093302080915E25809331201092B0
:1019200064258BE00E946D06892BE1F480913120C3
:1019300085FF03C08CE00E946D068091312087FFF7
:1019400003C08DE00E946D06CF712C2F30E0809196
:1019500031208F7190E02817390721F08CE0CF916A
:101960000C946D06CF9108950F93CF93DF931F9240
:101970001F92CDB7DEB72BE940E460EA74E084E55E
:1019800095E20E949C1687E0898388E18A8300E0C3
:1019900022E0AE014F5F5F4F6CE484E595E20E9468
:1019A000B716809163258111FCCF85E089831A8267
:1019B00000E022E0AE014F5F5F4F6CE484E595E20A
:1019C0000E94B716809163258111FCCF86E0898340
:1019D00087E08A8300E022E0AE014F5F5F4F6CE456
:1019E00084E595E20E94B716809163258111FCCFB2
:1019F00088E0898380EE8A8300E022E0AE014F5FB9
:101A00005F4F6CE484E595E20E94B71680916325F0
:101A10008111FCCF89E0898380E18A8300E022E0A4
:101A2000AE014F5F5F4F6CE484E595E20E94B7160C
:101A3000809163258111FCCF8AE0898380E18A83CC
:101A400000E022E0AE014F5F5F4F6CE484E595E279
:101A50000E94B716809163258111FCCF87E08983AE
:101A600089E18A8300E022E0AE014F5F5F4F6CE4C2
:101A700084E595E20E94B716809163258111FCCF21
:101A800081E0809322069AE19093300680932A06A3
:101A9000809329060F900F90DF91CF910F910895B9
:101AA0001F920F920FB60F9211240BB60F920F9345
:101AB0002F933F934F935F936F937F938F939F9356
:101AC000AF93BF93EF93FF93CF93DF931F92CDB765
:101AD000DEB78091632581110BC0198204E021E0FB
:101AE000AE014F5F5F4F6CE484E595E20E94B7164C
:101AF0000F90DF91CF91FF91EF91BF91AF919F91A7
:101B00008F917F916F915F914F913F912F910F91A5
:101B10000F900BBE0F900FBE0F901F9018951F9245
:101B20000F920FB60F9211240BB60F922F933F9383
:101B30004F935F936F937F938F939F93AF93BF93D5
:101B4000EF93FF9384E595E20E946717FF91EF9171
:101B5000BF91AF919F918F917F916F915F914F91C5
:101B60003F912F910F900BBE0F900FBE0F901F90C3
:101B700018950F93CF93DF931F921F92CDB7DEB7C7
:101B800089836A8300E022E0AE014F5F5F4F6CE41F
:101B900084E595E20E94B716809163258111FCCF00
:101BA0000F900F90DF91CF910F910895E0E0FBE04F
:101BB00081E0808380E89EE386A397A382E086830A
:101BC000089510922C2010922D200E94D60DE0EA4C
:101BD000F0E0828187608283789408951F920F924B
:101BE0000FB60F9211240BB60F922F933F934F9382
:101BF0005F936F937F938F939F93AF93BF93EF9375
:101C0000FF9380912C2090912D20892B19F4A89579
:101C10000E945A01FF91EF91BF91AF919F918F91D7
:101C20007F916F915F914F913F912F910F900BBEDC
:101C30000F900FBE0F901F901895E8E7F0E081819C
:101C4000816098ED94BF81830895682728E030E093
:101C500067FF09C0862F90E0880F991F46EA842706
:101C60009095682F01C0660F2150310989F7862FA2
:101C700008950F931F93CF93DF9398E5899F800179
:101C80001124E801C45CDC4D3E859D89292F2695F1
:101C9000422F49279C7F9D8B40FF18C032FB99271C
:101CA00090F92170921312C068E00E94040294E03F
:101CB0009D878E85892780648E87C801835C9C4DB3
:101CC000DF91CF911F910F910C94F708DF91CF9185
:101CD0001F910F9108950097D9F0FC01128A138A81
:101CE0002091322030913320232B29F4809332200D
:101CF0009093332006C0E0913420F0913520828B00
:101D0000938B809334209093352080E88093362005
:101D10000895282F982F9E7F81E0983041F09A30C7
:101D200031F0923129F02D3719F080E008950895AF
:101D300008959F92AF92BF92CF92DF92EF92FF925F
:101D40000F931F93CF93DF93B82E7B01611571051D
:101D500009F483C062E1C62EC42A00E010E0D12C51
:101D600088E5B89EE0011124CC58DC4D70E2972E36
:101D7000F701E00FF11FA4886A2D8D2D0E94250E1A
:101D8000D82E8A2D0E94890EBE01882339F08DE756
:101D90000E94B401BE018A2D892501C08A2D0E94AE
:101DA000B4010F5F1F4F0230110511F701E1E8E5A3
:101DB000BE9EE0011124CC58DC4D50E2952EF70177
:101DC00011917F01612F8D2D0E94250ED82E812F1C
:101DD0000E94890EA82EBE01882339F08DE70E944B
:101DE000B401BE01812F892501C0812F0E94B40159
:101DF000015029F72B2D30E088E5AA2079F0829F49
:101E0000E001839FD00D1124CC58DC4DBE018DE73D
:101E10000E94B401BE0180E28D2508C0829FB001FE
:101E2000839F700D11246C587C4D8D2D0E94B40140
:101E300088E5B89EF0011124E45CFC4D60818C2D96
:101E4000DF91CF911F910F91FF90EF90DF90CF9096
:101E5000BF90AF909F900C94D111DF91CF911F91C3
:101E60000F91FF90EF90DF90CF90BF90AF909F9039
:101E700008952F923F924F925F926F927F928F922E
:101E80009F92AF92BF92CF92DF92EF92FF920F9309
:101E90001F93CF93DF93382EE82EF12CF701EB59E7
:101EA000FA4D208088E58E9DE0018F9DD00D112494
:101EB000F4E56F2EF3E27F2E6C0E7D1EC3010E94AF
:101EC000EA018111D1C0FE01E45CFC4D46885788CF
:101ED0004114510421F0F201818986FDA4C088E5F6
:101EE0008E9DF0018F9DF00D1124E45CFC4D138A52
:101EF000148A212C412C512C96C0C3010E94CF0181
:101F0000BC016E7F77276830710591F48170992745
:101F100021E030E002C0220F331F8A95E2F7C901A9
:101F2000F8019081982B9083832D0E94390E92C0E6
:101F30006231710501F581709927282E2294220CB7
:101F4000E0EE2E22F6011082F5011082F4014080AD
:101F500051804114510449F40E944E072C0100970E
:101F600009F45CC0F401808391839881906C92297C
:101F7000F201918B53C04114510409F46BC0682FD6
:101F80008D3709F44DC0222019F0F0E28F27682F19
:101F9000F6018081833170F1F5018081681322C0E0
:101FA000F20181898F7B818BF80180818068808339
:101FB000F201918995FB992790F986FB882780F992
:101FC000981751F0C2010E946B0EF8018081F0E475
:101FD0008F27F801808303C0C2010E942207F40109
:101FE00010821182F6011082F5011082212C412C01
:101FF000512C30C0E82FF0E0E40DF51D823010F4D4
:10200000648B02C032976083F50180810E94250EA7
:10201000F5018083F60180818F5F8083212C1AC0B7
:102020002224239417C088E58E9DE0018F9DD00D5A
:102030001124C45CDC4D6E01F3E1CF0ED11C5E01B6
:1020400024E1A20EB11C8E010B5E1F4F4E0136E142
:10205000830E911CC3010E94EA01882309F44DCF2D
:10206000F701EB59FA4D2082DF91CF911F910F912B
:10207000FF90EF90DF90CF90BF90AF909F908F90A8
:102080007F906F905F904F903F902F900895E091D8
:102090003220F0913320309751F410923420109276
:1020A0003520809136208F778093362013C0828927
:1020B00093898093322090933320892B49F4809127
:1020C00036208F778093362010923420109235205E
:1020D000128A138ACF010895DF92EF92FF920F9335
:1020E0001F93CF93DF93D82EE82EF12C88E5D89E4E
:1020F00080011124E801C45CDC4D8E8581FF10C095
:102100000C581C4DC8010E94EA01882329F06881FF
:1021100089E00E94D11104C0B80189E00E94B40195
:1021200088E58E9DE0018F9DD00D11248E01045C09
:102130001C4DF801868580FF11C0CC58DC4DCE01C6
:102140000E94EA01882331F0F801608188E00E9452
:10215000D11104C0BE0188E00E94B40188E58E9DC3
:1021600080018F9D100D1124E801C45CDC4D4E856B
:102170004C7F4E8747FF37C046FF35C08D85815065
:10218000843078F0C801835C9C4D0E94F7088D2D47
:102190000E94480294E09D878E85806489278E87FF
:1021A00022C08D8742FB442740F96F8578898D2DA9
:1021B0000E94990E8E858F7B8E870E9464086E5CCC
:1021C0007F4F8F4F9F4F6B837C838D839E83C8018E
:1021D000835C9C4DDF91CF911F910F91FF90EF9009
:1021E000DF900C94AF08DF91CF911F910F91FF907A
:1021F000EF90DF90089508958093F3206093F4208A
:102200004093F520289FC0011124269FB00111247E
:10221000249FA0011124809590956095709540951C
:102220005095E0E0F8E080AF91AF82AF93AFE0E08F
:10223000F9E060AF71AF42AF53AFE0E4F8E060AFF8
:1022400071AF42AF53AF0895E0E0F8E08081836062
:10225000808333E331838FEF9FEF86AB97AB10AE74
:1022600011AE12AE13AEA0E4B6E023E011962C93AB
:102270001197E0E4F8E02083318386AB97AB10AE92
:1022800011AE12AE13AE40E311964C93E0E0F9E0CC
:102290002083318386AB97AB10AE11AE12AE13AE76
:1022A000E0E6F6E021830895CF92DF92EF92FF926D
:1022B0000F931F93CF93DF938C017B01EA0130E2F0
:1022C000C32E1EC0602F6F71DC2CD61A8D2D90E0AE
:1022D000C817D9070CF4DC2E4D2DC7010E949D0AAA
:1022E000C80125E0969587952A95E1F70E94C80ACE
:1022F0004D2D50E0C41BD50B040F151FE40EF51E29
:10230000209701F7DF91CF911F910F91FF90EF90F0
:10231000DF90CF900895EF92FF920F931F93CF938A
:10232000DF937A01E60EF71EEB018C010FC0BE01B0
:102330006F717727CE0145E0969587954A95E1F72D
:102340000E94F609F80181938F012196CE15DF05D1
:1023500071F7DF91CF911F910F91FF90EF9008954A
:10236000CF9360E080E00E94F609C82F61E080E032
:102370000E94F6093C2F20E0282BC901CF91089537
:10238000FB01918195FFFCCF80830895FC012181A1
:1023900027FF03C0208130E002C02FEF3FEFC901CB
:1023A0000895663078F470E0FB01EE0FFF1FE60F32
:1023B000F71FE559FA4D9281911104C06081718136
:1023C0000C94C01108958630A0F490E0FC01EE0F4B
:1023D000FF1FE80FF91FE559FA4D8281811109C0ED
:1023E0000190F081E02D818187FF03C0208130E0E2
:1023F00002C02FEF3FEFC9010895FC0188E18483FB
:1024000083E085838CE3838383E386831782089547
:102410006115710539F0FC01608371831282CB0173
:102420000C94FD110895FF920F931F93CF93DF93A8
:10243000C0E6D6E030E8F32EF98280EB99E0809395
:102440007A2590937B2510927C250E94FD1100E453
:1024500016E0F801F18280EB98E080936E2590936E
:102460006F25109270250E94FD1148E0F42EE0E8DF
:10247000F6E0F18280EA9AE08093772590937825C0
:10248000109279250E94FD11E0EAF6E0F18280EADF
:102490009BE08093712590937225109273250E9482
:1024A000FD11F801F18280EA98E080937425909301
:1024B0007525109276250E94FD11F98280EA99E037
:1024C00080936B2590936C2510926D25DF91CF91B1
:1024D0001F910F91FF900C94FD111F920F920FB658
:1024E0000F9211240BB60F922F933F934F935F934C
:1024F0006F937F938F939F93AF93BF93EF93FF93CC
:102500008091B0096CE075E20E94B401FF91EF91F7
:10251000BF91AF919F918F917F916F915F914F91FB
:102520003F912F910F900BBE0F900FBE0F901F90F9
:1025300018951F920F920FB60F9211240BB60F929F
:102540002F933F934F935F936F937F938F939F93BB
:10255000AF93BF93EF93FF938CE295E20E94CF017C
:102560008F3F2FEF920711F08093B009FF91EF9109
:10257000BF91AF919F918F917F916F915F914F919B
:102580003F912F910F900BBE0F900FBE0F901F9099
:1025900018951F920F920FB60F9211240BB60F923F
:1025A0002F933F934F935F936F937F938F939F935B
:1025B000AF93BF93EF93FF938091B0086CEA73E2FF
:1025C0000E94B401FF91EF91BF91AF919F918F91C4
:1025D0007F916F915F914F913F912F910F900BBE23
:1025E0000F900FBE0F901F9018951F920F920FB66D
:1025F0000F9211240BB60F922F933F934F935F933B
:102600006F937F938F939F93AF93BF93EF93FF93BA
:102610008CEC93E20E94CF018F3F2FEF920711F0D5
:102620008093B008FF91EF91BF91AF919F918F91EF
:102630007F916F915F914F913F912F910F900BBEC2
:102640000F900FBE0F901F9018951F920F920FB60C
:102650000F9211240BB60F922F933F934F935F93DA
:102660006F937F938F939F93AF93BF93EF93FF935A
:102670008091A00B64E074E20E94B401FF91EF919D
:10268000BF91AF919F918F917F916F915F914F918A
:102690003F912F910F900BBE0F900FBE0F901F9088
:1026A00018951F920F920FB60F9211240BB60F922E
:1026B0002F933F934F935F936F937F938F939F934A
:1026C000AF93BF93EF93FF9384E294E20E94CF0114
:1026D0008F3F2FEF920711F08093A00BFF91EF91A6
:1026E000BF91AF919F918F917F916F915F914F912A
:1026F0003F912F910F900BBE0F900FBE0F901F9028
:1027000018951F920F920FB60F9211240BB60F92CD
:102710002F933F934F935F936F937F938F939F93E9
:10272000AF93BF93EF93FF938091A00A64EB74E2A1
:102730000E94B401FF91EF91BF91AF919F918F9152
:102740007F916F915F914F913F912F910F900BBEB1
:102750000F900FBE0F901F9018951F920F920FB6FB
:102760000F9211240BB60F922F933F934F935F93C9
:102770006F937F938F939F93AF93BF93EF93FF9349
:1027800084ED94E20E94CF018F3F2FEF920711F06A
:102790008093A00AFF91EF91BF91AF919F918F918C
:1027A0007F916F915F914F913F912F910F900BBE51
:1027B0000F900FBE0F901F9018951F920F920FB69B
:1027C0000F9211240BB60F922F933F934F935F9369
:1027D0006F937F938F939F93AF93BF93EF93FF93E9
:1027E0008091A0086CE574E20E94B401FF91EF9122
:1027F000BF91AF919F918F917F916F915F914F9119
:102800003F912F910F900BBE0F900FBE0F901F9016
:1028100018951F920F920FB60F9211240BB60F92BC
:102820002F933F934F935F936F937F938F939F93D8
:10283000AF93BF93EF93FF938CE794E20E94CF0195
:102840008F3F2FEF920711F08093A008FF91EF9137
:10285000BF91AF919F918F917F916F915F914F91B8
:102860003F912F910F900BBE0F900FBE0F901F90B6
:1028700018951F920F920FB60F9211240BB60F925C
:102880002F933F934F935F936F937F938F939F9378
:10289000AF93BF93EF93FF938091A00964E573E238
:1028A0000E94B401FF91EF91BF91AF919F918F91E1
:1028B0007F916F915F914F913F912F910F900BBE40
:1028C0000F900FBE0F901F9018951F920F920FB68A
:1028D0000F9211240BB60F922F933F934F935F9358
:1028E0006F937F938F939F93AF93BF93EF93FF93D8
:1028F00084E793E20E94CF018F3F2FEF920711F000
:102900008093A009FF91EF91BF91AF919F918F911B
:102910007F916F915F914F913F912F910F900BBEDF
:102920000F900FBE0F901F9018950F931F93F89460
:10293000E0E0F4E08085918500917D2510917E2571
:1029400020E030E0980111270027A0E0B0E0082B3C
:10295000192B2A2B3B2B7894B801C9011F910F9199
:1029600008958091500082608093500080915100C2
:1029700081FFFCCF88ED84BF81E080934000089503
:10298000E0E0F4E081E08083A0E4B0E013968C9373
:1029900083E0828308950E94B1140C94C0141F92A6
:1029A0000F920FB60F9211248F939F9380917D25E4
:1029B00090917E25019680937D2590937E259F9111
:1029C0008F910F900FBE0F901F9018952FB7F8940E
:1029D000E0E0F2E084A195A134E0959587953A95E1
:1029E000E1F780935225909353252FBF0895E0E09F
:1029F000F2E081E0808396E1918392E1928397E017
:102A0000948381A393E090A392E092A383A380A1F7
:102A1000806880A30895E0E0F6E091E0918380E291
:102A20008183968386839283828308951F920F9277
:102A30000FB60F9211240BB60F922F933F934F9323
:102A40005F936F937F938F939F93AF93BF93CF9336
:102A5000DF93EF93FF93C0E0D2E08BA181608BA363
:102A60000E94E61488A1806888A3FF91EF91DF910E
:102A7000CF91BF91AF919F918F917F916F915F9116
:102A80004F913F912F910F900BBE0F900FBE0F9063
:102A90001F9018956F927F928F929F92AF92BF92E4
:102AA000CF92DF92EF92FF920F931F93CF93DF931A
:102AB0004B015C018A01E901C12C88E4D82E88EE23
:102AC000E82EFF24F394C701B601A50194010E94EA
:102AD0009D1793E0692EF801668226A337A3772419
:102AE00073947082A3E0B0E0A50194010E94921754
:102AF0009B01AC01C701B6010E949D176E822EA3F7
:102B00003FA37882DF91CF911F910F91FF90EF90BB
:102B1000DF90CF90BF90AF909F908F907F906F90FD
:102B20000895FC0140875187668377831082118264
:102B300012820895E0E6F6E080E68583818380E9ED
:102B4000828384898861848B87898861878B1092CE
:102B50008D25E0E0FAE033E0368381E493E086A35C
:102B600097A321E02083E0E4F9E0368385E191E05A
:102B700086A397A320830895CF93DF93EC018885E4
:102B800099850E94EA01811107C0888599850E9474
:102B9000CF019C01332702C02FEF3FEFC901DF9126
:102BA000CF9108958F3F2FEF920731F0880F991F33
:102BB0009260FB01818392830895FB012181328120
:102BC000232BD9F790E00C94D215FC0180859185D8
:102BD0000E94EA0121E030E0882311F020E030E09B
:102BE000C90108951F920F920FB60F9211240BB6D0
:102BF0000F922F933F934F935F936F937F938F9396
:102C00009F93AF93BF93EF93FF938091842581119E
:102C10003BC08091832581110BC08091680684FDA3
:102C200036C081E0809383258093822583E02DC088
:102C30008130B9F48091680684FF07C080917F25B8
:102C400090918225892B80937F2580918225880F02
:102C500080938225811103C082E08093832582E0E6
:102C600014C08230A1F48091680684FF0AC080916C
:102C70007F2560918725709188250E94B40110926C
:102C80007F251092832503C08150809384258091F5
:102C90008E2581113BC080918D2581110BC08091C3
:102CA000680687FD36C081E080938D2580938C2552
:102CB00083E02DC08130B9F48091680687FF07C09A
:102CC0008091892590918C25892B809389258091ED
:102CD0008C25880F80938C25811103C082E080931E
:102CE0008D2582E014C08230A1F48091680687FFB0
:102CF0000AC08091892560919125709192250E944A
:102D0000B4011092892510928D2503C081508093C3
:102D10008E25FF91EF91BF91AF919F918F917F9100
:102D20006F915F914F913F912F910F900BBE0F903C
:102D30000FBE0F901F901895FC016083718348634C
:102D4000DB0111964C93A081B18115962C930190D3
:102D5000F081E02D81E084830895DC01ED91FC9108
:102D6000848183700895FC01878580E008950F9326
:102D7000CF93DF93FC01253050F5053040F5878572
:102D8000811125C081E08787108A660F6283DA018E
:102D900080E090E006C03D91EF01C80FD91F3B8352
:102DA00001968217C0F323870487158616868385CC
:102DB000882319F082818E7F05C08485882349F09D
:102DC000828181600190F081E02D868302C080E0E5
:102DD00001C081E0DF91CF910F9108950F93042FEF
:102DE00020E040E050E00E94B7160F9108950F9345
:102DF00000E00E94B7160F910895FC01A081B181F7
:102E000014968C91149782FF02C094E001C093E065
:102E1000908B886014968C9317860895CF93DF93D8
:102E2000FC0193858485A081B18114962C9114971F
:102E300024FF05C083E013968C9385E01AC0258596
:102E4000291758F48585EF01C80FD11D8B8117967E
:102E50008C9385858F5F85870EC09685981728F49B
:102E60008281816016968C9306C083E013968C93C2
:102E700081E0808B1786DF91CF910895FC018685D4
:102E8000A081B181843060F417968C919685DF0122
:102E9000A90FB11D17968C9386858F5F868706C014
:102EA00083E013968C9382E0808B178684859685C9
:102EB000A081B181981720F482E013968C93089535
:102EC00087E013968C9381E0808B17860895DC0150
:102ED000ED91FC912481322F3C7011F00C94FD1681
:102EE00026FD0C940E1727FD0C943E1726E0FC01DE
:102EF000208B17860895FC01608B17860895FC01CE
:102F0000138288E1848383E0858380E1868317824E
:102F1000089580E090E008958FEF9FEF0895089561
:102F20000C9439080E94CB17A59F900DB49F900D6B
:102F3000A49F800D911D11240895A1E21A2EAA1BB1
:102F4000BB1BFD010DC0AA1FBB1FEE1FFF1FA21759
:102F5000B307E407F50720F0A21BB30BE40BF50B56
:102F6000661F771F881F991F1A9469F760957095DF
:102F7000809590959B01AC01BD01CF01089500247F
:102F8000A7FD00942A17300540055005600570051F
:102F9000800590050895A29FB001B39FC001A39F33
:102FA00001D0B29F700D811D1124911D089581E003
:102FB00090E0F8940C94A41AFB01DC0102C001908B
:102FC0000D9241505040D8F70895DC0101C06D9337
:102FD00041505040E0F70895CF93DF931F921F9226
:102FE000CDB7DEB7FE01389661917191E983FA831E
:102FF000AF018091A3259091A4250E9404180F9001
:103000000F90DF91CF9108952F923F924F925F9250
:103010006F927F928F929F92AF92BF92CF92DF92E8
:10302000EF92FF920F931F93CF93DF93CDB7DEB74D
:103030002C97CDBFDEBF7C016B018A01FC0116829B
:103040001782838181FFC7C188248394912C8C0EC1
:103050009D1EF7019381F60193FD859193FF819168
:103060006F01882309F4B3C1853239F493FD85914A
:1030700093FF81916F01853229F4B70190E00E949E
:103080001A1AE7CF712C312C20E02032A8F48B32B1
:1030900061F028F4803251F0833271F40BC08D322C
:1030A00039F0803349F4216028C02260246025C0B3
:1030B000286023C0206121C027FD27C0382F30534E
:1030C0003A3078F426FF06C0FAE07F9E300D1124D6
:1030D000732E13C08AE0389E300D1124332E2062E7
:1030E0000CC08E3221F426FD72C1206406C08C36DD
:1030F00011F4206802C0883641F4F60193FD8591F1
:1031000093FF81916F018111C0CF982F9554933017
:1031100018F09052933028F40C5F1F4FFFE3F983AF
:103120000DC0833631F0833771F0833509F05EC00E
:1031300023C0F801808189830E5F1F4F662463944A
:10314000712C540115C02801F2E04F0E511CF801FA
:10315000A080B18026FF03C0672D70E002C06FEF32
:103160007FEFC5012C870E940F1A3C0182012C853C
:103170006FE7262E222218C02801F2E04F0E511CC4
:10318000F801A080B18026FF03C0672D70E002C067
:103190006FEF7FEFC5012C870E94041A3C012C853C
:1031A00050E8252E222A820123FC1CC006C0B7014C
:1031B00080E290E00E941A1A3A94832D90E06816FB
:1031C0007906A8F30FC0F50127FC859127FE8191B0
:1031D0005F01B70190E00E941A1A31103A94F1E0B1
:1031E0006F1A71086114710471F7EEC0843611F022
:1031F000893641F5F80127FF07C06081718182811E
:1032000093810C5F1F4F08C060817181882777FD13
:103210008095982F0E5F1F4F4FE6642E622297FF16
:1032200009C090958095709561957F4F8F4F9F4F06
:10323000F0E86F2A2AE030E0A4010E94461AA82E86
:10324000A81844C0853731F43FEEB32EB2222AE0ED
:1032500030E024C099EFB92EB2228F36B9F020F4B5
:10326000883509F0B4C00DC0803721F0883709F0E7
:10327000AEC002C020E1B22AB4FE0BC084E0B82A7E
:1032800008C024FF09C0E6E0BE2A06C028E030E0FE
:1032900005C020E130E002C020E132E0F801B7FED5
:1032A00007C060817181828193810C5F1F4F06C0CE
:1032B0006081718180E090E00E5F1F4FA4010E9449
:1032C000461AA82EA8188FE7682E6B2066FE0BC042
:1032D000362D3E7FA71450F464FE0AC062FC08C07D
:1032E000362D3E7E05C0BA2C362D03C0BA2C01C047
:1032F000B72C34FF0DC0FE01EA0DF11D8081803333
:1033000011F4397E09C032FF06C0B394B39404C0EF
:10331000832F867809F0B39433FD14C030FF0FC0BB
:103320007A2CB31460F4730C7B18B32C08C0B7016B
:1033300080E290E03C870E941A1AB3943C85B31453
:10334000B0F304C0B31410F43B1801C0312C34FFA7
:1033500012C0B70180E390E03C870E941A1A3C85B6
:1033600032FF1EC031FF03C088E590E002C088E74D
:1033700090E0B7010CC0832F867891F031FD02C038
:1033800080E201C08BE237FD8DE2B70190E00E9440
:103390001A1A06C0B70180E390E00E941A1A7A94C4
:1033A000A714C0F3AA94F401EA0DF11DB7018081BE
:1033B00090E00E941A1AA110F5CF06C0B70180E272
:1033C00090E00E941A1A3A943110F8CF42CEF701D9
:1033D0002681378102C02FEF3FEFC9012C96CDBF68
:1033E000DEBFDF91CF911F910F91FF90EF90DF90A3
:1033F000CF90BF90AF909F908F907F906F905F9095
:103400004F903F902F900895FC01059061507040BF
:103410000110D8F7809590958E0F9F1F0895FC019D
:103420006150704001900110D8F7809590958E0FF3
:103430009F1F08950F931F93CF93DF938C01EB0190
:103440008B8181FD03C00FEF1FEF1AC082FF0DC0FB
:103450002E813F818C819D812817390764F4E88192
:10346000F9810193E883F98306C0E885F985802F07
:103470001995892B41F78E819F8101968E839F83B9
:10348000C801DF91CF911F910F910895FA01AA27EA
:10349000283051F1203181F1E8946F936E7F6E5F97
:1034A0007F4F8F4F9F4FAF4FB1E03ED0B4E03CD045
:1034B000670F781F891F9A1FA11D680F791F8A1F28
:1034C000911DA11D6A0F711D811D911DA11D20D08F
:1034D00009F468943F912AE0269F11243019305D49
:1034E0003193DEF6CF010895462F4770405D41933A
:1034F000B3E00FD0C9F7F6CF462F4F70405D4A3387
:1035000018F0495D31FD4052419302D0A9F7EACF4E
:10351000B4E0A6959795879577956795BA95C9F77D
:1035200000976105710508959B01AC010A2E069470
:103530005795479537952795BA95C9F7620F731F29
:0C354000841F951FA01D0895F894FFCF74
:10354C00FFFF0000E12D00FFEB0000FF0000FFFF7C
:10355C000000FFFFFFFFFF00FFFF002D535220690B
:08356C00733A2025780D0A00D6
:00000001FF
