:100000000C9475010C9496010C9496010C94960135
:100010000C9496010C9496010C9496010C94960104
:100020000C9496010C9496010C94331D0C9496013B
:100030000C9496010C9496010C9496010C949601E4
:100040000C9496010C9496010C9496010C949601D4
:100050000C9496010C9496010C9496010C949601C4
:100060000C9496010C94351C0C9496010C94611C14
:100070000C94211B0C9496010C944D1B0C9496012E
:100080000C9496010C9496010C9486150C94960190
:100090000C9496010C9496010C9496010C94960184
:1000A0000C9496010C9496010C9496010C94960174
:1000B0000C9496010C9496010C94C5150C94960121
:1000C0000C9496010C9496010C9496010C94960154
:1000D0000C9496010C9496010C9496010C94960144
:1000E0000C9496010C9496010C94D91B0C949601D7
:1000F0000C94051C0C9496010C9496010C9496019A
:100100000C9496010C9496010C9496010C94960113
:100110000C9496010C9496010C9496010C947A1D03
:100120000C9496010C9496010C9496010C949601F3
:100130000C9496010C9496010C9496010C949601E3
:100140000C9496010C9496010C9496010C94561EF6
:100150000C9496010C9496010C9496010C949601C3
:100160000C94911C0C9496010C94BD1C0C94C51A13
:100170000C9496010C94F11A0C9496010C9496012F
:100180000C9496010C9496010C9496010C94960193
:100190000C9496010C9496010C9496010C94960183
:1001A0000C9496010C9496010C9496010C94960173
:1001B0000C9424160C9496010C9496010C949601C0
:1001C0000C9496010C9496010C9496010C94960153
:1001D0000C9496010C9496010C9496010C947D1B42
:1001E0000C9496010C94A91B6E616E00696E6600FA
:1001F00000407A10F35A00A0724E18090010A5D4DE
:10020000E80000E87648170000E40B54020000CA3A
:100210009A3B000000E1F505000080969800000080
:1002200040420F000000A0860100000010270000DF
:100230000000E803000000006400000000000A0065
:10024000000000000100000000002C76D888DC6768
:100250004F0823DFC1DFAE59E1B1B796E5E3E453C0
:10026000C63AE651997696E8E6C28426EB898C9BDD
:1002700062ED407C6FFCEFBC9C9F40F2BAA56FA57D
:10028000F490055A2AF75C936B6CF9676DC11BFCFF
:10029000E0E40D47FEF520E6B500D0ED902E03001A
:1002A000943577050080841E080000204E0A000067
:1002B00000C80C333333330F986E12831141EF8D26
:1002C0002114893BE65516CFFEE6DB18D1844B3866
:1002D0001BF77C1D901DA4BBE424203284725E2297
:1002E0008100C9F124ECA1E53D2711241FBECFEF09
:1002F000DFE5DEBFCDBF00E00CBF11E2A0E0B0E261
:10030000EEE2F3E500E00BBF02C007900D92A232CF
:10031000B107D9F716E2A2E2B1E201C01D92A43EF4
:10032000B107E1F70E949B230C9495290C940000DF
:1003300086E00E94F407FFCFCF93DF93CDB7DEB7FF
:10034000C659D109CDBFDEBFE0914B21F0914C21C0
:100350008381813019F480E00E940E08E0914B21E6
:10036000F0914C218381843051F148F48130A9F01F
:1003700070F08230C1F0833009F03FC01AC086307F
:1003800051F118F1873069F18830B9F530C080E05B
:100390000E94F40763E270E235C081E00E94F40736
:1003A00067E370E22FC082E00E94F4076EE470E21F
:1003B00029C083E00E94F40765E670E223C084E070
:1003C0000E94F4076BE770E21DC085E00E94F4070D
:1003D00060E970E217C086E00E94F40765EA70E207
:1003E00011C087E00E94F4076BEB70E20BC088E05D
:1003F0000E94F40762ED70E205C080E00E940E08E2
:1004000067EE70E2CE0101960E94A828CA56DF4F1F
:100410001882C659D040CE0101960E94820CCA565D
:10042000DF4FCDBFDEBFDF91CF91089568E971E066
:1004300081E00E94B1076CE971E085E10C94B1079D
:1004400060914221709143218091442190914521F6
:1004500008950C9489140C949714CF9381E090E044
:100460008093242190932521809122219091232112
:10047000892B31F00E942902892B11F00E942B0256
:100480000E9473090E945A0AC0E08C2F0E946F17C5
:100490000E94AE038C2F0E94AA18CF5FC630A9F726
:1004A0000E9403071092242110922521CF910895D4
:1004B0000E94EA060E94EB0A0E941E080E9423097D
:1004C0000E94E5030E947C190E9401090E94C50652
:1004D0000E9417160E94EA1481E090E08093222186
:1004E000909323210E943F0E0E94ED0B0C945B1D04
:1004F00080930B2290930C22089580930B2290936B
:100500000C2244E050E06BE072E280E090E00C945A
:10051000AC190C945316FB012FB7F894978DDB019F
:10052000A90FB11D8C93892F8F5F8E3111F0878FAA
:1005300001C0178E878D968D891711F02FBF0895F2
:100540008F5F868F8E31D1F7168EF8CFFC01968D96
:10055000878D981308C004C0168E9FBF30E00FC06F
:100560002FEF3FEF0CC09FB7F894868DDF01A80FE7
:10057000B11D2C918F5F8E3179F3868FEECFC9013B
:100580000895FC0181E0268D978D291380E0089560
:1005900081E00895E0914B21F0914C213097A9F032
:1005A0008081803569F018F4813079F406C0803696
:1005B00051F08F3F51F40E9489020E943D0505C011
:1005C0000E94280C02C00E94FA0F80E00895863035
:1005D00008F03FC098E5899FF0011124E05BFB4DD6
:1005E00087859089892BA9F12FB7F894A785B089C1
:1005F00052968D919C9153978787908B892BA1F070
:10060000A0934B21B0934C212FBFA0914B21B091CF
:100610004C2152961D921C9253975696ED91FC9147
:100620005797309739F40FC0118A128A86858F77D1
:100630008687E6CF687151968C915197877E682B9B
:1006400051966C93199510924B2110924C2181E098
:10065000089580E00895CF93C82F0E946D0B8823E2
:1006600029F068E18C2FCF910C94E702C63030F46A
:1006700068E18C2F0E94E7028111FACFCF91089593
:10068000EF92FF920F931F93CF93DF93EC01CA0178
:10069000209751F1663040F5223130F5009721F175
:1006A00038E5639FF0011124E05BFB4D3081306839
:1006B000398B1A8A1B8A0C8B1D8BEE8AFF8A022FBC
:1006C00010E0422F50E0BC01CE010E949828C00FDC
:1006D000D11F41E150E0401B510B6FEF70E0CE01A4
:1006E0000E94A12881E001C080E0DF91CF911F919D
:1006F0000F91FF90EF900895009771F1DC015196F2
:10070000EC91E770E63030F56FB7F8942E2F30E0BB
:10071000B8E5EB9FF0011124E05BFB4D4785508964
:10072000452B19F48787908B05C00188F289E02D4D
:10073000828B938B48E5429FF001439FF00D11247B
:10074000E05BFB4D818B928B8685806886876FBFCF
:1007500081E008950E942F0880E008950E94851886
:1007600080934B2190934C21009769F1DC015496C2
:10077000ED91FC915597309719F40E94CA0201C07F
:10078000199580914B2190914C21FC012189E22FF8
:10079000E77038E5E39FF0011124E05BFB4D25FB9A
:1007A000442740F921E030E001C0220F4A95EAF7E2
:1007B0003685322B36870E942F0810924B211092DB
:1007C0004C2181E0089580E008950E945319109211
:1007D00046211092472110924821109249211092EF
:1007E0004A2108950C94F31F0F931F93CF93DF9327
:1007F00000D000D0CDB7DEB781E0898383E08A8363
:100800000E94081A9B838C83A0916026B091612678
:1008100019968C91199790E0FC01EE0FFF1FE35B96
:10082000FE4D208131813D832E8321E1289FF001FF
:10083000299FF00D1124E75AFE4D108A0AEA16E0AE
:1008400020E030E046E0BE016F5F7F4F19968C914B
:100850000E94A4082696CDBFDEBFDF91CF911F91E5
:100860000F910895FF920F931F93CF93DF9300D0C2
:100870001F92CDB7DEB7E0916026F0916126F1843A
:100880008F2D0E946D0B811122C081E089838A83A4
:100890000E94081A9B838C8381E1F89E90011124A9
:1008A000F901E75AFE4D108A8285882329F0C90193
:1008B000855A9E4D0E94040A00E714E020E030E0D3
:1008C00044E0BE016F5F7F4F8F2D0E94A4082496E5
:1008D000CDBFDEBFDF91CF911F910F91FF900895A3
:1008E000E0914B21F0914C21818987700E946D0B22
:1008F000E0914B21F0914C2181112CC0A1898A2FCC
:100900008871A770883059F481E1A89FD001112423
:10091000A75ABE4D44E650E060E070E00AC081E1B5
:10092000A89FD0011124A75ABE4D42E350E060E0D9
:1009300070E01C964D935D936D937C931F97A189F6
:10094000A77081E1A89FD0011124A75ABE4D81E074
:1009500050968C93CF010C942F08FB0190838183D8
:100960000895FC01308120E08181282BC901089580
:10097000EDE4F1E280E021913191232B09F08F5FCA
:1009800091E2E935F907B9F70895EDE4F1E28081E4
:1009900091810895E7E5F1E2808191810895EFE486
:1009A000F1E2808191810895E5E5F1E28081918114
:1009B0000895E1E5F1E2808191810895E3E5F1E2B6
:1009C0008081918108951F93CF93DF93182FEB01BE
:1009D0000E946D0B811118C01630B0F4E12FF0E0C9
:1009E000EE0FFF1FE35BFE4D208131812C173D0789
:1009F00059F0C083D18383E10E947A07812FDF9170
:100A0000CF911F910C94390EDF91CF911F910895D2
:100A10001F93CF93DF93182F60E070E00E94E304F0
:100A2000C12FD0E081E1189F90011124F901E75A0C
:100A3000FE4D108A8285882329F0C901855A9E4D72
:100A40000E94040A81E18C9FF0018D9FF00D11241A
:100A5000E75AFE4D138782E394E08087918782E313
:100A600090E0A0E0B0E084879587A687B78781E013
:100A7000808BDF91CF911F910895DF92EF92FF92CB
:100A80000F931F93CF93DF9300D000D0CDB7DEB785
:100A9000E0914B21F0914C21309709F400C19181F4
:100AA000923009F45CC0933009F4BEC0913009F073
:100AB000F8C0E189E77011E11E9FF0011124E75AA7
:100AC000FE4D44855585668577854436510561051B
:100AD000710509F4E6C0998382E08A830E94081AAE
:100AE0009B838C83E0914B21F0914C2182818D83FB
:100AF00083818E83818960E070E087700E94E304C7
:100B0000A0914B21B0914C215196EC915197E770F7
:100B10001E9FF0011124E75AFE4D108A51968C91C8
:100B20008770189FC0011124FC01E75AFE4D2285F1
:100B3000222321F0855A9E4D0E94040AE0914B2108
:100B4000F0914C2181890DE516E020E030E046E08F
:100B5000BE016F5F7F4F87700E94A408A2C0A18969
:100B6000A77051E1D52EDA9ED0011124A75ABE4DAF
:100B70001C964D915D916D917C911F974436510566
:100B80006105710509F08DC002811381348120E077
:100B900085817901E82A0E94081AE816F90609F009
:100BA00080C0A0914B21B0914C215196EC9151976E
:100BB000E770DE9EF0011124E75AFE4D108A51962F
:100BC0008C918770D89EC0011124FC01E75AFE4D1C
:100BD0002285222321F0855A9E4D0E94040A2091ED
:100BE0004B2130914C21D9015196EC91E770B1E144
:100BF000EB9FF0011124E75AFE4D84EF91E0A0E055
:100C0000B0E084879587A687B78784EF93E08087D5
:100C1000918781E0808B702F60E0612BF9018189E1
:100C200087700E94E3043DC0A189A77021E1A29FC3
:100C3000D0011124A75ABE4D1C968D919D910D9007
:100C4000BC91A02D843F9140A105B10551F5E280F2
:100C5000F380948180E025818C01022B0E94081A88
:100C60000817190799F49E2D80E08F29E0914B21F8
:100C7000F0914C21E189E770F0E0EE0FFF1FE35B9C
:100C8000FE4D208131818217930759F0E0914B216D
:100C9000F0914C21818987700E94080502C080E094
:100CA00001C081E02696CDBFDEBFDF91CF911F91BD
:100CB0000F91FF90EF90DF900895CF93DF93E09135
:100CC0004B21F0914C218189982F98719830B9F57A
:100CD000748160E09581EB01C92B877021E1829FCF
:100CE000C0011124FC01E75AFE4D44EF51E060E0E1
:100CF00070E044875587668777872285222321F015
:100D0000855A9E4D0E94040AA0914B21B0914C211E
:100D10005196EC915197E77081E1E89FF001112421
:100D2000E75AFE4D84EF93E08087918781E0808BC6
:100D300051968C91BE0187700E94E30403C08770B6
:100D40000E94080580914B2190914C21DF91CF9119
:100D50000C942F08E0914B21F0914C218189982F20
:100D600098718770983049F491E1899FF0011124BE
:100D7000E75AFE4D81E0808B02C00E9408058091F9
:100D80004B2190914C210C942F08FF920F931F93AD
:100D9000CF93DF9309E611E2C0E0D0E061E1F62EE7
:100DA000FC9EC001FD9E900D1124875A9E4D0E940D
:100DB000850AF80110828C2F0E94080521960F5E8B
:100DC0001F4FC630D10561F7DF91CF911F910F9171
:100DD000FF9008951092BF211092C0211092C1215E
:100DE0001092C2211092C3211092C4211092C521E9
:100DF0001092C621E7ECF1E21192119282E2E73003
:100E0000F807D1F708958F929F92AF92BF92CF9239
:100E1000DF92EF92FF920F931F93CF93DF93209176
:100E2000BF213091C0214091C1215091C2216091D8
:100E3000C3217091C4218091C5219091C621A0E069
:100E40000E94412609F449C007EC11E2C12CD12CC3
:100E50007601C3948090BF219090C021A090C121C1
:100E6000B090C221D701C6012C2D2821392F39215C
:100E70004A2F4A215B2F5B2160E070E080E090E028
:100E8000A0E00E944126F1F0D701C601809590951F
:100E9000A095B09588229922AA22BB228092BF21D8
:100EA0009092C021A092C121B092C2211092C32180
:100EB0001092C4211092C5211092C621D801ED9143
:100EC000FC911995CC0CDD1CEE1CFF1C0E5F1F4F16
:100ED000B2E207301B0709F0BDCFDF91CF911F9120
:100EE0000F91FF90EF90DF90CF90BF90AF909F90C9
:100EF0008F900895CF93DF93482F803260F5E82FCD
:100F0000F0E0EE0FFF1FE953FE4D20813181232BCE
:100F100011F181E090E0A0E0B0E004C0880F991FDB
:100F2000AA1FBB1F4A95D2F75091BF21582B409161
:100F3000C021492B3091C1213A2B2091C2212B2B6A
:100F40005093BF214093C0213093C1212093C221EF
:100F500021E030E002C020E030E0C901DF91CF9114
:100F60000895803278F4E82FF0E0EE0FFF1FE95388
:100F7000FE4D80819181892B29F46083718321E06A
:100F800030E002C020E030E0C9010895803278F4FA
:100F9000E82FF0E0EE0FFF1FE953FE4D80819181B5
:100FA000892B29F01082118221E030E002C020E07C
:100FB00030E0C9010895803260F4E82FF0E0EE0FD0
:100FC000FF1FE953FE4D0190F081E02D309709F0AD
:100FD0001994089580910A22089580910A228F5FC2
:100FE000893008F080E0089580930A2290E0FC01A7
:100FF000EE0FFF1FE80FF91FEF5FFF4D209100205C
:101000004281618180810C9454190E94ED070E94F5
:10101000F40780910A2208950C94541980930020BB
:10102000282F4091092260910822809107220C9478
:1010300054198091002008950C947C19E0E4F3E2A7
:101040001082789684E2E036F807D1F7E0E2F2E227
:101050001082789683E2E034F807D1F70895FC0116
:1010600009C0818987FD118A92898389128A138A2E
:10107000E92FF82F3097A9F70895811103C08FE267
:1010800093E202C08FE092E22CE0FC01E85FFE4FA9
:10109000DC01A75EBE4F3C9137FD05C080E8818B27
:1010A000128A138A06C0215048972111EECFE0E042
:1010B000F0E0CF01089580E00C943D0881E00C94AD
:1010C0003D08EF92FF920F931F93CF93DF93EC01B4
:1010D000CB01EDE4F1E260E0A191B191A817B9076D
:1010E00061F4CE010E944003811102C080E009C07A
:1010F000CE010E947C0381E004C06F5F663061F71F
:10110000F5CFDF91CF911F910F91FF90EF90089550
:10111000EF92FF920F931F93CF93DF93EC016F3FFA
:1011200011F480E00AC06630E0F70E944003882393
:10113000C1F3CE010E947C0381E0DF91CF911F912A
:101140000F91FF90EF9008956F927F928F929F92F0
:10115000AF92BF92CF92DF92EF92FF920F931F93C5
:10116000CF93DF93782E6B01642E590148018FEFE6
:1011700078121BC0712C0E945E08EC01009781F070
:1011800074018501262DA601672D0E94400381115F
:1011900004C0CE010E942F0803C0CE010E947C0330
:1011A000739486E07812E7CF1CC085E0871508F4B9
:1011B00011C00E945E08EC01009761F07801850182
:1011C000262DA601672D0E944003811105C0CE0186
:1011D0000E942F08712C05C0CE010E947C03772449
:1011E0007394872DDF91CF911F910F91FF90EF9016
:1011F000DF90CF90BF90AF909F908F907F906F9037
:1012000008950895E0916026F09161260284F385A7
:10121000E02D8585806485870895FC01158680E42E
:101220008687CF0101968387948782E099E0878340
:1012300090871786108A118A128A138A148A158A4F
:10124000168A178A0895FF920F931F93CF93DF9307
:1012500000E514E2C0E0D0E088E5F82EF801C08394
:10126000FC9EC001FD9E900D1124805B9B4D0E9451
:101270000D092196085A1F4FC630D10579F7DF9125
:10128000CF911F910F91FF900C946B1A0E945802FE
:101290000E94160280E00E94DB0781E0FCCFCF9223
:1012A000DF92EF92FF92CF93DF93EC010E94ED1C4F
:1012B0006B017C01CE01AA2797FDA095BA2FC80E1D
:1012C000D91EEA1EFB1E0E94ED1C6C157D058E05C5
:1012D0009F05C8F3DF91CF91FF90EF90DF90CF9003
:1012E00008950C94ED1C0F931F93CF93DF9300D0C0
:1012F0001F92CDB7DEB78091642690916526892B29
:1013000099F10E94ED1CE0916426F091652602811E
:10131000138124813581601771078207930720F1BB
:10132000E0936026F093612620813181209364262A
:10133000309365262085222361F00680F781E02D19
:1013400069837A838B839C8319959C818B817A81B5
:101350006981E0916026F0916126108620916426D3
:1013600030916526232B79F62496CDBFDEBFDF9121
:10137000CF911F910F9108950F931F93CF93DF93F8
:10138000FC0110821182A0916426B091652610970D
:1013900029F480936426909365262DC04281538161
:1013A00064817581C0E0D0E003C0DC01C32FD22F7F
:1013B00012960D911D912D913C91159704171507CB
:1013C0002607370718F0209791F40CC08D919C9157
:1013D00011973A2F2B2F009741F7ED93FC93108232
:1013E000118209C0E0936426F093652602C0E88369
:1013F000F983A083B18381E0808781E090E0DF9171
:10140000CF911F910F910895E0916426F091652688
:101410003097D1F0A0E0B0E007C020813181DF013A
:101420002115310589F0F9018E179F07B1F70FC01B
:10143000209364263093652602C02D933C93FC01D3
:10144000108621E030E009C020E030E006C0FC0159
:1014500020813181109789F7EBCFC9010895E09180
:101460006426F09165263097D9F0A0E0B0E007C07F
:1014700020813181DF012115310591F0F9012681AB
:10148000378128173907A1F70EC0809364269093FF
:10149000652602C08D939C93108621E030E008C041
:1014A00020E030E005C080819181109799F7EDCF61
:1014B000C90108950F931F93CF93DF93C0916226C4
:1014C000D09163261BC088898130A9F48A85811157
:1014D00012C00E94ED1C0C851D852E853F85600F76
:1014E000711F821F931F6C837D838E839F83CE0128
:1014F00002960E94BC090990D881C02D209719F747
:10150000DF91CF911F910F910895FC0110821182FC
:10151000E0916226F0916326309759F48093622619
:101520009093632610C08E179F0711F40E94B02776
:10153000F9012081318121153105A9F78E179F0707
:10154000A9F38083918321E0FC01208B81E090E06E
:101550000895E0916226F09163263097D9F0A0E0DB
:10156000B0E007C020813181DF012115310591F004
:10157000F901E817F907B1F710C08093622690933C
:10158000632602C08D939C9310821182108A21E001
:1015900030E008C020E030E005C0808191811097E4
:1015A00089F7EBCFC90108950F931F93CF93DF9372
:1015B0008C010E94A90AEC010115110531F0C80146
:1015C00002960E94040AC80FD91FCE01DF91CF9165
:1015D0001F910F9108951092642610926526109223
:1015E00060261092612610926226109263260C9457
:1015F0002F1D8091662690916726089580914B213A
:1016000090914C210C94122780914B2190914C2168
:101610000C9412278F929F92BF92CF92DF92EF92FB
:10162000FF920F931F93CF93DF931F92CDB7DEB737
:10163000B82E6B01890161E070E088E190E0498398
:101640000E9459264C014981009779F084E0E82EE8
:101650008BE0F82E242FA6016B2DC4010E94880870
:10166000811105C0C4010E94122780E001C081E001
:101670000F90DF91CF911F910F91FF90EF90DF902E
:10168000CF90BF909F908F900895CF93E0914B2182
:10169000F0914C21828190E02091262130912721E8
:1016A00028173907B4F48093262190932721C0E0AE
:1016B00060914B2170914C212BE63BE044E08C2F54
:1016C0000E940A0BCF5FC63099F785E1CF910C9449
:1016D0007A07CF9108950C94450B90911C208913A3
:1016E00006C081E090E020912821213011F080E0B7
:1016F00090E008958F929F92BF92CF92DF92EF92E7
:10170000FF920F931F93CF93DF931F92CDB7DEB756
:10171000B82E6B0161E070E088E190E049830E949F
:1017200059264C012981009781F09EEFE92E9AE01D
:10173000F92E00E010E0A6016B2DC4010E9488087C
:10174000811105C0C4010E94122780E001C081E020
:101750000F90DF91CF911F910F91FF90EF90DF904D
:10176000CF90BF909F908F900895CF93DF931F925B
:101770001F92CDB7DEB790E5998392E09A8342E05D
:10178000BE016F5F7F4F0E947A0B0F900F90DF9129
:10179000CF9108950F931F93CF93DF93082FCDE43C
:1017A000D1E210E0101739F028813981232B19F08C
:1017B000812F0E94B50B1F5F2296163099F7DF919B
:1017C000CF911F910F910895BC0180911C20883CFE
:1017D00019F041E10C947A0B0895FF920F931F9337
:1017E000CF93DF931F921F92CDB7DEB788EC809323
:1017F0001C201092282180E5898383E08A8381E080
:101800000E94F40715C0F801219131918F01232B1B
:1018100039F042E0BE016F5F7F4F8F2D0E947A0B3F
:10182000F394F6E0FF12EFCF86E090E00E944F09BC
:1018300080911C20883C21F40DE411E2F12CE3CFCF
:101840000F900F90DF91CF911F910F91FF9008950E
:10185000E0914B21F0914C213097B1F1918193307F
:10186000F9F028F4913041F0923081F50CC09430B9
:1018700001F1953059F525C08189877080931C202E
:10188000909328210AC080911C20883CF9F481891A
:10189000877080931C20109228210E94CA0B16C0CA
:1018A00080911C20883C91F0818987700E94B50B43
:1018B0000DC080911C20883C49F0CF010E94E40BB0
:1018C00005C00E94450B02C080E0089581E00895A4
:1018D0000097A1F0DC010D900020E9F71197A81BFB
:1018E0008A2F8F5F8B3060F08A506BE00E94FF255B
:1018F000911102C08F5F08958E5F089580E0089572
:1019000081E008958F929F92AF92BF92CF92DF9223
:10191000EF92FF920F931F93CF93DF93CDB7DEB774
:101920006197CDBFDEBF8C010E94680CB82E8091FC
:101930001C20883C09F47AC080E5898384E08A838E
:101940000E94081ABE016D5F7F4F0E94AD04809116
:1019500029218D8381E0B81256C0D8010D90002056
:10196000E9F71197FA2EF01A9E01285F3F4F4F2D8D
:101970004F5F50E0B801C9010E9498281E82BF82C3
:101980004F2D485FBE016F5F7F4F80911C200E94EA
:101990007A0B45C0EE82811106C0BF8257E0852ECA
:1019A0006AE0A62E13C0EC14FD0461F4F801E90D01
:1019B000F11DDF010D900020E9F7AA2EAE1A46E0D6
:1019C000842E04C026E0822E3BE0A32E21E030E0EE
:1019D0002C0F3D1F280D311DF801E90DF11D4A2D79
:1019E00050E0BF01C9010E9498289A0C482D4A0D69
:1019F000BE016F5F7F4F80911C200E947A0B8FEF9A
:101A0000E81AF80A08C0E12CF12C912CCB2CD12C2F
:101A100081E0C81AD1088E2DEB1408F4BBCF809159
:101A200029218F5F8093292181E001C080E06196A8
:101A3000CDBFDEBFDF91CF911F910F91FF90EF904F
:101A4000DF90CF90BF90AF909F908F900895CF93ED
:101A5000DF93EC0104C081E090E00E944F09809187
:101A60001C20883CC1F3CE01DF91CF910C94820CF5
:101A700080914B2190914C210C9412270895CF9284
:101A8000DF92EF92FF920E949B2420913C213091A3
:101A90003D2140913E2150913F210E9448256B01FC
:101AA0007C01609132217091332180913421909199
:101AB00035210E949D249B01AC01C701B6010E9403
:101AC0009E230E946F24FF90EF90DF90CF900895A7
:101AD000CF92DF92EF92FF920E9471090E949B24A5
:101AE00020913C2130913D2140913E2150913F2158
:101AF0000E9448256B017C01609132217091332155
:101B000080913421909135210E949D249B01AC014C
:101B1000C701B6010E949E230E946F24FF90EF90A0
:101B2000DF90CF900895CF93DF9300D01F92CDB771
:101B3000DEB760912A2170912B2180912C21909108
:101B40002D210E949B249B01AC0169833A834B8326
:101B50005C830E94680D0E949B2429813A814B81FD
:101B60005C810E94D8240E946F242496CDBFDEBFE2
:101B7000DF91CF9108958091412108958091402176
:101B80000895FC0184899589892B39F480818036F8
:101B900021F481E09181933009F080E00895CF93A2
:101BA000DF93EC010E947109698778878F839E8398
:101BB000DF91CF910895CF93DF93EC010E94680DE0
:101BC0006D837C838B839A83DF91CF91089580917D
:101BD0004121811111C081E090E040912E2150916E
:101BE0002F216091302170913121452B462B472BBD
:101BF00029F480E090E0089581E090E0089510924B
:101C00008726109288261092892610928A26109292
:101C10008B2610928C2608951092412110927926DD
:101C200089E696E20E94A90A8BE696E20C94040AE1
:101C30008091402181111CC08CE796E20E94040A29
:101C40000E9471096C507E4F8F4F9F4F60937E268C
:101C500070937F26809380269093812681EC9FE06D
:101C600080938226909383268CE796E20C94BC099D
:101C70000895109240210E94180E80E0089510925D
:101C8000322110923321109234211092352110927A
:101C90002E2110922F21109230211092312110927A
:101CA0002A2110922B2110922C2110922D2180E0BC
:101CB00090E0A0E8BFE380933C2190933D21A09366
:101CC0003E21B0933F211092382110923921109279
:101CD0003A2110923B2110923621109237210E9416
:101CE000FF0D8FEF809386260E94081A80937A2634
:101CF00090937B26109240210E940C0E0C94180E9B
:101D00008F929F92BF92CF92DF92EF92FF920F93AA
:101D10001F93CF93DF931F92CDB7DEB7B82E6B0121
:101D200061E070E088E190E049830E9459264C010F
:101D30002981009781F088E3E82E8DE0F82E00E0FD
:101D400010E0A6016B2DC4010E948808811105C016
:101D5000C4010E94122780E001C081E00F90DF9152
:101D6000CF911F910F91FF90EF90DF90CF90BF9098
:101D70009F908F9008951F93CF93DF9300D01F9271
:101D8000CDB7DEB7182F9B0180E6898381E08A8377
:101D9000BE016D5F7F4FC9010E94AD0444E0BE01EA
:101DA0006F5F7F4F812F0E94800E2496CDBFDEBFD4
:101DB000DF91CF911F9108950F931F93CF93DF93DE
:101DC000CDB7DEB72597CDBFDEBF182F062F80E633
:101DD000898382E08A83BE016D5F7F4F80917A267E
:101DE00090917B260E94AD040D8345E0BE016F5F9C
:101DF0007F4F812F0E94800E2596CDBFDEBFDF91E1
:101E0000CF911F910F910895CF93DF9300D01F9230
:101E1000CDB7DEB790E6998393E09A8342E0BE01A6
:101E20006F5F7F4F0E94800E2496CDBFDEBFDF9193
:101E3000CF910895EF92FF920F931F93CF93DF936B
:101E400007E816E2CDE4D1E2E12CF12CF801819112
:101E50008F01882341F028813981232B21F08F2D98
:101E60000E94040FE394F3942296F6E0FF12EECF63
:101E70008E2DDF91CF911F910F91FF90EF900895DC
:101E8000CF93C1E0C093412188EB9BE0A0E0B0E09C
:101E90008093752690937626A0937726B093782624
:101EA0008AE19FE080937126909372260E941A0F18
:101EB00089E696E20E94850AC0937926CF9108951B
:101EC000CF93DF931F921F92CDB7DEB790E6998331
:101ED00094E09A8342E0BE016F5F7F4F0E94800EC4
:101EE0000F900F90DF91CF910895CF92DF92EF92F4
:101EF000FF920F931F93CF93DF93D82E8B01C42EA5
:101F0000CDE4D1E2E12CF12CFD1459F02881398186
:101F1000232B39F04C2DB8018F2D0E94800E81119A
:101F2000E394F394229686E0F812EECF8E2DDF91A3
:101F3000CF911F910F91FF90EF90DF90CF90089578
:101F40001F93CF93DF9300D01F92CDB7DEB7182F2A
:101F50009B0180E6898381E08A83BE016D5F7F4FAC
:101F6000C9010E94AD0444E0BE016F5F7F4F812F25
:101F70000E94750F2496CDBFDEBFDF91CF911F91D8
:101F80000895CF93DF9380914021811130C00E944A
:101F90000C0E0E94081A80937A2690937B268FEF6E
:101FA0008093862681E0809340210E94FF0D0E944D
:101FB000081ABC018FEF0E94A00F80936826811140
:101FC00016C010924021C0917A26D0917B260E94A3
:101FD000081AC817D90721F4DF91CF910C94400F4C
:101FE00061E080918626DF91CF910C94DC0EDF9129
:101FF000CF9108952F923F924F925F926F927F926E
:102000008F929F92AF92BF92CF92DF92EF92FF9208
:102010000F931F93CF93DF93CDB7DEB7CE59D1097E
:10202000CDBFDEBF00914B2110914C210115110550
:1020300009F4F3C1F8018181823009F4C0C120F4B0
:10204000813009F0ECC163C1833021F0843009F0A4
:10205000E6C152C1F801C5808281D12CE12CF12C5E
:10206000F82A8481D82A8381E82A81848681912C68
:10207000A12CB12CB82A8085982A8781A82A609142
:102080002A2170912B2180912C2190912D210E9449
:102090009B249B01AC01C556DF4F6883CB59D040D0
:1020A000C456DF4F3883CC59D040C356DF4F4883E6
:1020B000CD59D040C256DF4F5883CE59D0400E94F0
:1020C000930D0E949B24C556DF4F2881CB59D040E9
:1020D000C456DF4F3881CC59D040C356DF4F4881BA
:1020E000CD59D040C256DF4F5881CE59D0400E94C2
:1020F000D8240E946F2460932A2170932B2180930F
:102100002C2190932D21F6E0CF0ED11CE11CF11C67
:1021100010913C2100913D2170903E2160903F2123
:10212000C501B4010E943F0D6F927F920F931F93E0
:102130009F938F937F936F93BF92AF929F928F9253
:10214000FF92EF92DF92CF9287EF90E29F938F936F
:102150001F9286E98F938E010F5F1F4F1F930F937E
:102160000E94FE28CA56DF4F1882C659D040C801C7
:102170000E94820C809136219091372101968093A4
:10218000362190933721CDBFDEBF019779F4D70177
:10219000C60188199909AA09BB0980933221909335
:1021A0003321A0933421B093352193C00E9471094B
:1021B00040902E2150902F2160903021709031213D
:1021C00064197509860997096C3D7540810591056B
:1021D000F0F28091382190913921A0913A21B0916B
:1021E0003B21A7019601281B390B4A0B5B0BCA0147
:1021F000B9010E949B24C956DF4F688379838A8383
:102200009B83C759D040C501B4016419750986097B
:1022100097090E949B249B01AC01C956DF4F68813E
:1022200079818A819B81C759D0400E940224162F50
:10223000072F382E292EA8019101852F942FA32F27
:10224000B22F80933C2190933D21A0933E21B093E7
:102250003F210E947109C956DF4F688379838A83C1
:102260009B83C759D040C701B6010E949B242B0114
:102270003C01C956DF4F688179818A819B81C759AA
:10228000D0400E949B249B01AC01D801F1016B2F2F
:102290007A2F8F2F9E2F0E9448259B01AC01C301EE
:1022A000B2010E949D230E94AB250E946A24609384
:1022B0003221709333218093342190933521809182
:1022C00036219091372165E070E00E940B26892B22
:1022D00081F4C0923821D0923921E0923A21F092D3
:1022E0003B2180922E2190922F21A0923021B092FA
:1022F00031210E941A0F93C00E94E70D811101C085
:102300008EC0F801818987700E94040F88C0C801BF
:1023100002960E94B1048C0180914021811106C077
:102320008CE796E20E94040A0E94C10F80917A26EF
:1023300090917B260817190749F4E0914B21F09101
:102340004C21818960E087700E94DC0E80917A26A2
:1023500090917B260817190708F061C000937A2630
:1023600010937B26E0914B21F0914C21818987705D
:10237000809386260E94FF0DE0914B21F0914C2125
:102380008189B80187700E94A00F8093682681110F
:1023900046C01092402100917A2610917B260E941F
:1023A000081A0817190719F40E94400F38C0E09165
:1023B0004B21F0914C21818961E087702BC0C801CD
:1023C00002960E94B1048C0180917A2690917B261E
:1023D0000817190721F58091682681508093682697
:1023E000A0914B21B0914C215196EC915197E770FF
:1023F000F0E0E957F94D14969C91908381110FC03C
:10240000109240210E94081A0817190769F261E02A
:10241000809186260E94DC0E02C080E001C081E02F
:10242000C256DF4FCDBFDEBFDF91CF911F910F911D
:10243000FF90EF90DF90CF90BF90AF909F908F90E4
:102440007F906F905F904F903F902F900895809174
:10245000CF0187FDFCCF0895CF93DF931F921F928A
:10246000CDB7DEB76A8389830E9427126A816F71B4
:10247000898120E2829FC0011124862BE0ECF1E0EB
:1024800080839183128286E08287EF93FF930F937C
:102490002F93EBECF1E008ED21E004BF20832F91B6
:1024A0000F91FF91EF9184810F900F90DF91CF9169
:1024B00008950E9427128091CF0181FF11C086E309
:1024C0008093CA01EF93FF930F932F93EBECF1E00E
:1024D00008ED21E004BF20832F910F91FF91EF9130
:1024E0000895CF93DF9300D0CDB7DEB74B836A83D7
:1024F00089830E945912E0ECF1E093E392876A81AC
:102500006F71898120E2829FC0011124862B808314
:10251000918312824B81448385E38287EF93FF93FB
:102520000F932F93EBECF1E008ED21E004BF208343
:102530002F910F91FF91EF912396CDBFDEBFDF91D9
:10254000CF910895CF93DF931F921F92CDB7DEB73F
:102550006A8389830E942712E0ECF1E093E392877B
:1025600089818083118212826A8164830F900F9027
:10257000DF91CF910895CF93DF93EC010E94271252
:1025800083E38093CA011092C1011092C20180E0DE
:102590008093C00199919093C4018F5F8032C1F7FD
:1025A000DF91CF9108950F931F93CF93DF931F92E5
:1025B0001F92CDB7DEB78C014A8369830E94271230
:1025C00083E38093CA011092C1011092C2014A8133
:1025D0006981460F08C06093C001F80181918F01A5
:1025E0008093C4016F5F641711F06032A0F30F9005
:1025F0000F90DF91CF911F910F910895CF93DF93AB
:102600001F92CDB7DEB789830E942712898120E20D
:10261000829FC0011124E0ECF1E08083918312825B
:1026200085E38287EF93FF930F932F93EBECF1E019
:1026300008ED21E004BF20832F910F91FF91EF91CE
:102640000F90DF91CF910895CF93DF931F92CDB775
:10265000DEB789830E942712898120E2829FC00110
:102660001124E0ECF1E080839183128282E382877F
:10267000EF93FF930F932F93EBECF1E008ED21E044
:1026800004BF20832F910F91FF91EF910F90DF9165
:10269000CF910895CF93DF931F92CDB7DEB7898393
:1026A0000E942712898120E2829FC0011124E0EC60
:1026B000F1E080839183128284E38287EF93FF931A
:1026C0000F932F93EBECF1E008ED21E004BF2083A2
:1026D0002F910F91FF91EF910F90DF91CF9108957E
:1026E0000E94271280E3E0ECF1E08287EF93FF93F2
:1026F0000F932F93EBECF1E008ED21E004BF208372
:102700002F910F91FF91EF9108958093C30A8091CB
:10271000C20A87FFFCCF8091C30A0895019749F44C
:1027200080E1672B19F08093A50608958093A60693
:10273000089580E1672B19F08093850608958093B2
:1027400086060895EF92FF920F931F93CF93DF9326
:10275000EB018A0179010197F1F480E18093A606EB
:1027600083E00E9485138D2F0E9485138C2F0E9479
:102770008513E80106C080E00E948513F80181936B
:102780008F01C8018C1B9D0B8E159F05A4F380E162
:102790008093A50626C080E18093860684ED0E9482
:1027A000851380E00E948513CE0188279370892FBE
:1027B0000E9485138C2F0E94851380E00E94851350
:1027C000E80106C080E00E948513F80181938F0123
:1027D000C8018C1B9D0B8E159F05A4F380E180938F
:1027E000850681E090E0DF91CF911F910F91FF90DE
:1027F000EF900895EF92FF920F931F93CF93DF9383
:10280000EB018A0179010197E9F480E18093A60642
:1028100082E00E9485138D2F0E9485138C2F0E94C9
:102820008513E80105C0F80181918F010E9485138D
:10283000C8018C1B9D0B8E159F05ACF380E1809326
:10284000A50622C080E18093860684E80E94851355
:1028500080E00E948513CE0188279370892F0E9403
:1028600085138C2F0E948513E80105C0F801819122
:102870008F010E948513C8018C1B9D0B8E159F052F
:10288000ACF380E18093850681E090E0DF91CF9109
:102890001F910F91FF90EF90089508951F93CF938C
:1028A000DF93C0EAD6E010E11E8381E00E94851329
:1028B00081E40E9485131D831E8385E00E94851399
:1028C00080E00E9485131D831F928F9386E191E221
:1028D0009F938F930E94E6280F900F900F900F9078
:1028E000DF91CF911F910895E0E8F6E080E18583C4
:1028F0008183A0EAB6E015968C93159711968C9378
:1029000080EA818380E4828380E58093C00A0C940E
:102910004E1480919D26813031F480919C2621E0D7
:1029200030E0882311F020E030E0C9010895CF9312
:1029300080919D26813009F04BC080919C268111A9
:1029400047C0C09145218091942624E0829FC00118
:10295000112485958595809342218091952624E0C8
:10296000829FC00111248595859580934321809194
:10297000962624E0829FC001112485958595809339
:102980004421809197268093452110929D268BE0CB
:102990000E947A07892BE1F48091452185FF03C0CD
:1029A0008CE00E947A078091452187FF03C08DE06B
:1029B0000E947A07CF712C2F30E0809145218F71D2
:1029C00090E02817390721F08CE0CF910C947A071A
:1029D000CF9108950F93CF93DF931F921F92CDB79E
:1029E000DEB72BE940E460EA74E08DE896E20E94ED
:1029F000001F87E0898388E18A8300E022E0AE013E
:102A00004F5F5F4F6CE48DE896E20E941B1F809140
:102A10009C268111FCCF85E089831A8200E022E0A8
:102A2000AE014F5F5F4F6CE48DE896E20E941B1F82
:102A300080919C268111FCCF86E0898387E08A8380
:102A400000E022E0AE014F5F5F4F6CE48DE896E25C
:102A50000E941B1F80919C268111FCCF88E08983F6
:102A600080EE8A8300E022E0AE014F5F5F4F6CE4AE
:102A70008DE896E20E941B1F80919C268111FCCF5D
:102A800089E0898380E18A8300E022E0AE014F5F24
:102A90005F4F6CE48DE896E20E941B1F80919C269C
:102AA0008111FCCF8AE0898380E18A8300E022E003
:102AB000AE014F5F5F4F6CE48DE896E20E941B1FF2
:102AC00080919C268111FCCF87E0898389E18A83EC
:102AD00000E022E0AE014F5F5F4F6CE48DE896E2CC
:102AE0000E941B1F80919C268111FCCF81E0809366
:102AF00022069AE19093300680932A068093290655
:102B00000F900F90DF91CF910F9108951F920F9228
:102B10000FB60F9211240BB60F920F932F933F9382
:102B20004F935F936F937F938F939F93AF93BF93D5
:102B3000EF93FF93CF93DF931F92CDB7DEB78091D2
:102B40009C2681110BC0198204E021E0AE014F5F89
:102B50005F4F6CE48DE896E20E941B1F0F90DF919F
:102B6000CF91FF91EF91BF91AF919F918F917F9105
:102B70006F915F914F913F912F910F910F900BBEED
:102B80000F900FBE0F901F9018951F920F920FB6C7
:102B90000F9211240BB60F922F933F934F935F9395
:102BA0006F937F938F939F93AF93BF93EF93FF9315
:102BB0008DE896E20E94CB1FFF91EF91BF91AF91FC
:102BC0009F918F917F916F915F914F913F912F9145
:102BD0000F900BBE0F900FBE0F901F9018950F9384
:102BE000CF93DF931F921F92CDB7DEB789836A839D
:102BF00000E022E0AE014F5F5F4F6CE48DE896E2AB
:102C00000E941B1F80919C268111FCCF0F900F907A
:102C1000DF91CF910F910895E0E0FBE081E08083A8
:102C200080E89EE386A397A382E0868308951092AE
:102C30002421109225210E940C16E0EAF0E0828106
:102C400087608283789408951F920F920FB60F9237
:102C500011240BB60F922F933F934F935F936F9373
:102C60007F938F939F93AF93BF93EF93FF93809145
:102C7000242190912521892B19F4A8950E942D02D9
:102C8000FF91EF91BF91AF919F918F917F916F9144
:102C90005F914F913F912F910F900BBE0F900FBE00
:102CA0000F901F901895E8E7F0E08181816098ED22
:102CB00094BF81830895682728E030E067FF09C04A
:102CC000862F90E0880F991F46EA84279095682FF9
:102CD00001C0660F2150310989F7862F08950F939F
:102CE0001F93CF93DF9398E5899F80011124E8011A
:102CF000C05BDB4D3E859D89292F2695422F4927B4
:102D00009C7F9D8B40FF18C032FB992790F9217062
:102D1000921312C068E00E94E70294E09D878E85BE
:102D2000892780648E87C8018F5A9B4DDF91CF9190
:102D30001F910F910C94040ADF91CF911F910F9175
:102D400008950097D9F0FC01128A138A2091462138
:102D500030914721232B29F48093462190934721DA
:102D600006C0E0914821F0914921828B938B80939A
:102D700048219093492180E880934A210895282F83
:102D8000982F9E7F81E0983041F09A3031F0923157
:102D900029F02D3719F080E00895089508959F9245
:102DA000AF92BF92CF92DF92EF92FF920F931F9359
:102DB000CF93DF93B82E7B016115710509F483C0B1
:102DC00062E1C62EC42A00E010E0D12C88E5B89E4E
:102DD000E0011124C857DB4D70E2972EF701E00F98
:102DE000F11FA4886A2D8D2D0E945B16D82E8A2D86
:102DF0000E94BF16BE01882339F08DE70E948B0226
:102E0000BE018A2D892501C08A2D0E948B020F5F89
:102E10001F4F0230110511F701E1E8E5BE9EE00108
:102E20001124C857DB4D50E2952EF70111917F0117
:102E3000612F8D2D0E945B16D82E812F0E94BF1608
:102E4000A82EBE01882339F08DE70E948B02BE01B7
:102E5000812F892501C0812F0E948B02015029F703
:102E60002B2D30E088E5AA2079F0829FE001839F36
:102E7000D00D1124C857DB4DBE018DE70E948B0297
:102E8000BE0180E28D2508C0829FB001839F700D36
:102E9000112468577B4D8D2D0E948B0288E5B89ECA
:102EA000F0011124E05BFB4D60818C2DDF91CF910F
:102EB0001F910F91FF90EF90DF90CF90BF90AF9058
:102EC0009F900C94291ADF91CF911F910F91FF9041
:102ED000EF90DF90CF90BF90AF909F9008952F928A
:102EE0003F924F925F926F927F928F929F92AF929A
:102EF000BF92CF92DF92EF92FF920F931F93CF93E7
:102F0000DF93382EE82EF12CF701E256F94D2080A0
:102F100088E58E9DE0018F9DD00D1124F8E66F2E7F
:102F2000F4E27F2E6C0E7D1EC3010E94C10281114E
:102F3000D9C0FE01E05BFB4D46885788411451041F
:102F400021F0F201818986FDACC088E58E9DF001FB
:102F50008F9DF00D1124E05BFB4D138A148A212C08
:102F6000412C512C9EC0C3010E94A602BC016E7F61
:102F700077276830710591F48170992721E030E05E
:102F800002C0220F331F8A95E2F7C901F801908130
:102F9000982B9083832D0E946F169AC06231710521
:102FA00001F581709927282E2294220CE0EE2E2222
:102FB000F6011082F5011082F40140805180411425
:102FC000510449F40E945B082C01009709F464C085
:102FD000F401808391839881906C9229F201918B06
:102FE0005BC04114510409F473C0682F8D3709F494
:102FF00055C0222019F0F0E28F27682FF60180815A
:103000008331B0F1F501808168132AC0F201818912
:103010008F7B818BF801808180688083F2019189A8
:1030200095FB992790F986FB882780F9981791F0EE
:10303000C2010E94C10D813019F4C2010E94CF0D5E
:10304000C2010E94A116F8018081F0E48F27F801E7
:10305000808303C0C2010E942F08F40110821182F4
:10306000F6011082F5011082212C412C512C30C028
:10307000E82FF0E0E40DF51D823010F4648B02C0FF
:1030800032976083F50180810E945B16F501808391
:10309000F60180818F5F8083212C1AC02224239423
:1030A00017C088E58E9DE0018F9DD00D1124C05B77
:1030B000DB4D6E01F3E1CF0ED11C5E0124E1A20EC7
:1030C000B11C8E010B5E1F4F4E0136E1830E911C29
:1030D000C3010E94C102882309F445CFF701E256DB
:1030E000F94D2082DF91CF911F910F91FF90EF90CA
:1030F000DF90CF90BF90AF909F908F907F906F9018
:103100005F904F903F902F900895E0914621F0916D
:103110004721309751F41092482110924921809113
:103120004A218F7780934A2113C0828993898093A3
:10313000462190934721892B49F480914A218F772A
:1031400080934A211092482110924921128A138AB1
:10315000CF010895DF92EF92FF920F931F93CF93C9
:10316000DF93D82E082F10E028E5829FC00111249C
:10317000EC01C05BDB4D2E8521FF14C0B8E8EB2EBF
:10318000B4E2FB2EE80EF91EC7010E94C10288239B
:1031900029F0688189E00E94291A04C0B70189E0FA
:1031A0000E948B0288E5809FE001819FD00D112451
:1031B000A0E5EA2EA4E2FA2EEC0EFD1EF7018685AC
:1031C00080FF11C0C857DB4DCE010E94C102882389
:1031D00031F0F701608188E00E94291A04C0BE0125
:1031E00088E00E948B0228E5209FC001219F900D5E
:1031F0001124EC01C05BDB4D2E852C7F2E8727FF31
:103200004AC026FF48C02D852150243070F08F5AC7
:103210009B4D0E94040A8D2D0E942B0394E09D87F4
:103220008E85806489278E8736C02D878F85988903
:103230000E94C10D813021F48F8598890E94DB0D99
:1032400088E5809F7001819FF00C1124E701C05B2D
:10325000DB4D4E8542FB442740F96F8578898D2DE3
:103260000E94CF168E858F7B8E870E9471096E5CBF
:103270007F4F8F4F9F4F6B837C838D839E83C701CE
:103280008F5A9B4DDF91CF911F910F91FF90EF903F
:10329000DF900C94BC09DF91CF911F910F91FF90AB
:1032A000EF90DF900895089580930722609308229D
:1032B00040930922289FC0011124269FB0011124A8
:1032C000249FA0011124809590956095709540955C
:1032D0005095E0E0F8E080AF91AF82AF93AFE0E0CF
:1032E000F9E060AF71AF42AF53AFE0E4F8E060AF38
:1032F00071AF42AF53AF0895E0E0F8E080818360A2
:10330000808333E331838FEF9FEF86AB97AB10AEB3
:1033100011AE12AE13AEA0E4B6E023E011962C93EA
:103320001197E0E4F8E02083318386AB97AB10AED1
:1033300011AE12AE13AE40E311964C93E0E0F9E00B
:103340002083318386AB97AB10AE11AE12AE13AEB5
:10335000E0E6F6E021830895CF92DF92EF92FF92AC
:103360000F931F93CF93DF938C017B01EA0130E22F
:10337000C32E1EC0602F6F71DC2CD61A8D2D90E0ED
:10338000C817D9070CF4DC2E4D2DC7010E94D312AB
:10339000C80125E0969587952A95E1F70E94FE12CF
:1033A0004D2D50E0C41BD50B040F151FE40EF51E68
:1033B000209701F7DF91CF911F910F91FF90EF9030
:1033C000DF90CF900895EF92FF920F931F93CF93CA
:1033D000DF937A01E60EF71EEB018C010FC0BE01F0
:1033E0006F717727CE0145E0969587954A95E1F76D
:1033F0000E942C12F80181938F012196CE15DF05D2
:1034000071F7DF91CF911F910F91FF90EF90089589
:10341000CF9360E080E00E942C12C82F61E080E032
:103420000E942C123C2F20E0282BC901CF91089537
:10343000FB01918195FFFCCF80830895FC012181E0
:1034400027FF03C0208130E002C02FEF3FEFC9010A
:103450000895663078F470E0FB01EE0FFF1FE60F71
:10346000F71FEC55F94D9281911104C06081718173
:103470000C94181A08958630A0F490E0FC01EE0F29
:10348000FF1FE80FF91FEC55F94D8281811109C02A
:103490000190F081E02D818187FF03C0208130E021
:1034A00002C02FEF3FEFC9010895FC0188E184833A
:1034B00083E085838CE3838383E386831782089587
:1034C0006115710539F0FC01608371831282CB01B3
:1034D0000C94551A0895FF920F931F93CF93DF9387
:1034E000C0E6D6E030E8F32EF98280EB99E08093D5
:1034F000B3269093B4261092B5260E94551A00E484
:1035000016E0F801F18280EB98E08093A726909373
:10351000A8261092A9260E94551A48E0F42EE0E849
:10352000F6E0F18280EA9AE08093B0269093B1268B
:103530001092B2260E94551AE0EAF6E0F18280EA83
:103540009BE08093AA269093AB261092AC260E9413
:10355000551AF801F18280EA98E08093AD269093A5
:10356000AE261092AF260E94551AF98280EA99E0A1
:103570008093A4269093A5261092A626DF91CF9142
:103580001F910F91FF900C94551A1F920F920FB636
:103590000F9211240BB60F922F933F934F935F938B
:1035A0006F937F938F939F93AF93BF93EF93FF930B
:1035B0008091B00960E276E20E948B02FF91EF9168
:1035C000BF91AF919F918F917F916F915F914F913B
:1035D0003F912F910F900BBE0F900FBE0F901F9039
:1035E00018951F920F920FB60F9211240BB60F92DF
:1035F0002F933F934F935F936F937F938F939F93FB
:10360000AF93BF93EF93FF9380E496E20E94A602EC
:103610008F3F2FEF920711F08093B009FF91EF9148
:10362000BF91AF919F918F917F916F915F914F91DA
:103630003F912F910F900BBE0F900FBE0F901F90D8
:1036400018951F920F920FB60F9211240BB60F927E
:103650002F933F934F935F936F937F938F939F939A
:10366000AF93BF93EF93FF938091B00860EC74E247
:103670000E948B02FF91EF91BF91AF919F918F912B
:103680007F916F915F914F913F912F910F900BBE62
:103690000F900FBE0F901F9018951F920F920FB6AC
:1036A0000F9211240BB60F922F933F934F935F937A
:1036B0006F937F938F939F93AF93BF93EF93FF93FA
:1036C00080EE94E20E94A6028F3F2FEF920711F046
:1036D0008093B008FF91EF91BF91AF919F918F912F
:1036E0007F916F915F914F913F912F910F900BBE02
:1036F0000F900FBE0F901F9018951F920F920FB64C
:103700000F9211240BB60F922F933F934F935F9319
:103710006F937F938F939F93AF93BF93EF93FF9399
:103720008091A00B68E175E20E948B02FF91EF91FE
:10373000BF91AF919F918F917F916F915F914F91C9
:103740003F912F910F900BBE0F900FBE0F901F90C7
:1037500018951F920F920FB60F9211240BB60F926D
:103760002F933F934F935F936F937F938F939F9389
:10377000AF93BF93EF93FF9388E395E20E94A60275
:103780008F3F2FEF920711F08093A00BFF91EF91E5
:10379000BF91AF919F918F917F916F915F914F9169
:1037A0003F912F910F900BBE0F900FBE0F901F9067
:1037B00018951F920F920FB60F9211240BB60F920D
:1037C0002F933F934F935F936F937F938F939F9329
:1037D000AF93BF93EF93FF938091A00A68EC75E2DB
:1037E0000E948B02FF91EF91BF91AF919F918F91BA
:1037F0007F916F915F914F913F912F910F900BBEF1
:103800000F900FBE0F901F9018951F920F920FB63A
:103810000F9211240BB60F922F933F934F935F9308
:103820006F937F938F939F93AF93BF93EF93FF9388
:1038300088EE95E20E94A6028F3F2FEF920711F0CB
:103840008093A00AFF91EF91BF91AF919F918F91CB
:103850007F916F915F914F913F912F910F900BBE90
:103860000F900FBE0F901F9018951F920F920FB6DA
:103870000F9211240BB60F922F933F934F935F93A8
:103880006F937F938F939F93AF93BF93EF93FF9328
:103890008091A00860E775E20E948B02FF91EF9192
:1038A000BF91AF919F918F917F916F915F914F9158
:1038B0003F912F910F900BBE0F900FBE0F901F9056
:1038C00018951F920F920FB60F9211240BB60F92FC
:1038D0002F933F934F935F936F937F938F939F9318
:1038E000AF93BF93EF93FF9380E995E20E94A60206
:1038F0008F3F2FEF920711F08093A008FF91EF9177
:10390000BF91AF919F918F917F916F915F914F91F7
:103910003F912F910F900BBE0F900FBE0F901F90F5
:1039200018951F920F920FB60F9211240BB60F929B
:103930002F933F934F935F936F937F938F939F93B7
:10394000AF93BF93EF93FF938091A00968E674E271
:103950000E948B02FF91EF91BF91AF919F918F9148
:103960007F916F915F914F913F912F910F900BBE7F
:103970000F900FBE0F901F9018951F920F920FB6C9
:103980000F9211240BB60F922F933F934F935F9397
:103990006F937F938F939F93AF93BF93EF93FF9317
:1039A00088E894E20E94A6028F3F2FEF920711F061
:1039B0008093A009FF91EF91BF91AF919F918F915B
:1039C0007F916F915F914F913F912F910F900BBE1F
:1039D0000F900FBE0F901F9018950F931F93F894A0
:1039E000E0E0F4E0808591850091B6261091B7263D
:1039F00020E030E0980111270027A0E0B0E0082B7C
:103A0000192B2A2B3B2B7894B801C9011F910F91D8
:103A10000895809150008260809350008091510001
:103A200081FFFCCF88ED84BF81E080934000089542
:103A3000809150008460809350008091510082FFFB
:103A4000FCCF81E08093000485E08093430083E015
:103A500080930204109208041092090408950E94B1
:103A6000091D0C94181D1F920F920FB60F9211246E
:103A70008F939F938091B6269091B726019680935D
:103A8000B6269093B7269F918F910F900FBE0F90FF
:103A90001F9018952FB7F894E0E0F2E084A195A16B
:103AA00034E0959587953A95E1F780936626909353
:103AB00067262FBF0895E0E0F2E081E0808396E181
:103AC000918392E1928397E0948381A393E090A302
:103AD00092E092A383A380A1806880A30895E0E090
:103AE000F6E091E0918380E28183968386839283DE
:103AF000828308951F920F920FB60F9211240BB676
:103B00000F922F933F934F935F936F937F938F9376
:103B10009F93AF93BF93CF93DF93EF93FF93C0E057
:103B2000D2E08BA181608BA30E944A1D88A180688E
:103B300088A3FF91EF91DF91CF91BF91AF919F91BA
:103B40008F917F916F915F914F913F912F910F9046
:103B50000BBE0F900FBE0F901F9018956F927F9223
:103B60008F929F92AF92BF92CF92DF92EF92FF928D
:103B70000F931F93CF93DF934B015C018A01E901FF
:103B8000C12C88E4D82E88EEE82EFF24F394C701D8
:103B9000B601A50194010E941F2693E0692EF80149
:103BA000668226A337A3772473947082A3E0B0E0E3
:103BB000A50194010E94F4259B01AC01C701B60147
:103BC0000E941F266E822EA33FA37882DF91CF91A1
:103BD0001F910F91FF90EF90DF90CF90BF90AF902B
:103BE0009F908F907F906F900895FC014087518740
:103BF000668377831082118212820895E0E6F6E0F0
:103C000080E68583818380E9828384898861848BCF
:103C100087898861878B1092C626E0E0FAE033E05E
:103C2000368381E493E086A397A321E02083E0E438
:103C3000F9E0368385E191E086A397A32083089578
:103C4000CF93DF93EC01888599850E94C102811191
:103C500007C0888599850E94A6029C01332702C06F
:103C60002FEF3FEFC901DF91CF9108958F3F2FEFE5
:103C7000920731F0880F991F9260FB018183928334
:103C80000895FB0121813281232BD9F790E00C9418
:103C9000361EFC01808591850E94C10221E030E042
:103CA000882311F020E030E0C90108951F920F929F
:103CB0000FB60F9211240BB60F922F933F934F9391
:103CC0005F936F937F938F939F93AF93BF93EF9384
:103CD000FF938091BD2681113BC08091BC2681114C
:103CE0000BC08091680684FD36C081E08093BC26BD
:103CF0008093BB2683E02DC08130B9F480916806A3
:103D000084FF07C08091B8269091BB26892B8093B1
:103D1000B8268091BB26880F8093BB26811103C0F3
:103D200082E08093BC2682E014C08230A1F48091AE
:103D3000680684FF0AC08091B8266091C026709101
:103D4000C1260E948B021092B8261092BC2603C096
:103D500081508093BD268091C72681113BC0809100
:103D6000C62681110BC08091680687FD36C081E0B0
:103D70008093C6268093C52683E02DC08130B9F498
:103D80008091680687FF07C08091C2269091C52662
:103D9000892B8093C2268091C526880F8093C526E3
:103DA000811103C082E08093C62682E014C0823075
:103DB000A1F48091680687FF0AC08091C2266091B5
:103DC000CA267091CB260E948B021092C2261092B6
:103DD000C62603C081508093C726FF91EF91BF9103
:103DE000AF919F918F917F916F915F914F913F9193
:103DF0002F910F900BBE0F900FBE0F901F90189534
:103E0000FC01608371834863DB0111964C93A081B0
:103E1000B18115962C930190F081E02D81E084838F
:103E20000895DC01ED91FC91848183700895FC017B
:103E3000878580E008950F93CF93DF93FC012530B1
:103E400050F5053040F58785811125C081E08787D1
:103E5000108A660F6283DA0180E090E006C03D912F
:103E6000EF01C80FD91F3B8301968217C0F3238748
:103E70000487158616868385882319F082818E7FB4
:103E800005C08485882349F0828181600190F0819A
:103E9000E02D868302C080E001C081E0DF91CF91F8
:103EA0000F9108950F93042F20E040E050E00E940E
:103EB0001B1F0F9108950F9300E00E941B1F0F918D
:103EC0000895FC01A081B18114968C91149782FF12
:103ED00002C094E001C093E0908B886014968C93AC
:103EE00017860895CF93DF93FC0193858485A08185
:103EF000B18114962C91149724FF05C083E013968A
:103F00008C9385E01AC02585291758F48585EF0123
:103F1000C80FD11D8B8117968C9385858F5F858700
:103F20000EC09685981728F48281816016968C932E
:103F300006C083E013968C9381E0808B1786DF9117
:103F4000CF910895FC018685A081B181843060F411
:103F500017968C919685DF01A90FB11D17968C934A
:103F600086858F5F868706C083E013968C9382E0F8
:103F7000808B178684859685A081B181981720F45F
:103F800082E013968C93089587E013968C9381E0DA
:103F9000808B17860895DC01ED91FC912481322FEE
:103FA0003C7011F00C94611F26FD0C94721F27FDCC
:103FB0000C94A21F26E0FC01208B17860895FC01BB
:103FC000608B17860895FC01138288E1848383E067
:103FD000858380E186831782089580E090E00895CC
:103FE0008FEF9FEF089508952F923F924F925F9227
:103FF0006F927F928F929F92AF92BF92CF92DF92F9
:10400000EF92FF920F931F93CF93DF93CDB7DEB75D
:104010006397CDBFDEBF7C015B018A01FC01168284
:104020001782838181FD03C06DC3860105C088248A
:104030008394912C8C0E9D1EF7019381F50193FDC5
:10404000859193FF81915F01882309F457C38532DD
:1040500039F493FD859193FF81915F01853231F4AD
:10406000B70190E00E94BA286801DFCF412C512CA3
:1040700020E02032A8F48B3261F028F4803251F035
:10408000833271F40BC08D3239F0803349F42160F2
:1040900028C02260246025C0286023C0206121C080
:1040A00027FD27C0382F30533A3078F426FF06C05A
:1040B000FAE04F9E300D1124432E13C08AE0589E23
:1040C000300D1124532E20620CC08E3221F426FDB7
:1040D00015C3206406C08C3611F4206802C08836EF
:1040E00041F4F50193FD859193FF81915F01811169
:1040F000C0CF982F9554933018F42061805E06C08D
:10410000982F9556933008F0A1C12F7E26FD02C04E
:1041100056E0452E4FE3742E7222853619F4F0E4F2
:104120007F2A07C0863619F420E8722A02C041109F
:104130004A9477FE07C03BE3341548F0342C33949F
:1041400027E00DC087E0841530F0242D07C027E05C
:104150003CE3332E04C027E097E0492E312C680160
:1041600094E0C90ED11CF801608171818281938134
:10417000032DA4010E94B5278C0129812C8720FFE3
:1041800002C023FF07C071FC08C072FE09C080E2B4
:10419000682E07C0BDE26B2E04C0ABE26A2E01C0E0
:1041A000612C8C858C70A1F1662011F084E001C037
:1041B00083E0851510F0512C0BC0581A73FC08C011
:1041C000B70180E290E00E94BA285A94C9F7F3CF71
:1041D000662029F0B701862D90E00E94BA283C8520
:1041E00033FD03C00CEE11E00CC008EE11E009C075
:1041F00071108052B70190E00E94BA280F5F1F4FE4
:1042000002C080E17822F80184918111F1CF73C25C
:1042100077FE0EC0300E2C8524FF04C08A818133C6
:1042200009F43A9413144CF538E0331548F12CC0D6
:1042300076FC2AC0242D30E02017310744F00C3FD3
:104240008FEF180724F090E8792A01C04A9444209F
:1042500049F0E2E0F0E0EC0FFD1FE40DF11D80817C
:104260008033A1F377FE10C0342C3394242D30E03A
:104270000217130744F4401A07C03324339404C0D0
:10428000F8E03F2E01C0412C77FE07C01016110642
:104290003CF498012F5F3F4F05C025E030E002C09D
:1042A00021E030E0662011F02F5F3F4F442031F0D5
:1042B000442D50E04F5F5F4F240F351F452D50E0D8
:1042C0002417350714F4521A01C0512C872D897018
:1042D00049F406C0B70180E290E00E94BA285A94DF
:1042E0005110F8CF662029F0B701862D90E00E948A
:1042F000BA2873FC09C006C0B70180E390E00E94B1
:10430000BA285A945110F8CF77FE53C0380117FFDE
:1043100002C0612C712C1D861E869801231931095B
:104320002F87388B180126183708280C391C642D64
:1043300070E022273327261B370B298B3A8B3FEF60
:104340006316730629F4B7018EE290E00E94BA2842
:10435000061517055CF02F8538892615370534F4C6
:10436000ED85FE85E20DF31D818101C080E331E022
:10437000631A71082D853E852F5F3F4F2D873E873D
:1043800029893A89621673062CF0B70190E00E94E1
:10439000BA28D5CF6016710649F49A81963328F46D
:1043A000953321F43C8534FD01C081E3B70190E0F1
:1043B0004AC08A81813319F02C852F7E2C87B70162
:1043C00090E00E94BA28411005C074FE16C085E432
:1043D00090E015C0B7018EE290E00E94BA28E2E0BA
:1043E0006E2EF401E60DF11D6394B701808190E01B
:1043F0000E94BA284A94A9F7E8CF85E690E0B70171
:104400000E94BA2817FD06C00115110541F43C852C
:1044100034FF05C01195019511098DE201C08BE2B1
:10442000B70190E00E94BA2880E303C08F5F0A5072
:1044300011090A301105D4F7B70190E00E94BA289B
:10444000B701C801C0960E94BA2855C1833631F021
:10445000833781F0833509F05EC024C0680182E0B3
:10446000C80ED11CF8018081898366246394712C65
:10447000840114C06801F2E0CF0ED11CF801008164
:10448000118126FF03C0642D70E002C06FEF7FEF43
:10449000C8012B8B0E94AF283C012B896FE7462E69
:1044A000422217C06801F2E0CF0ED11CF801008152
:1044B000118126FF03C0642D70E002C06FEF7FEF13
:1044C000C8012B8B0E948D283C012B8950E8452E7A
:1044D000422A43FC1CC006C0B70180E290E00E9463
:1044E000BA285A94852D90E068167906A8F30FC073
:1044F000F80147FC859147FE81918F01B70190E05B
:104500000E94BA2851105A94F1E06F1A7108611490
:10451000710471F7F0C0843611F0893661F56801D5
:1045200027FF09C034E0C30ED11CF80160817181FE
:10453000828193810AC0F2E0CF0ED11CF801608124
:104540007181882777FD8095982F4FE6742E72220F
:1045500097FF09C090958095709561957F4F8F4F1B
:104560009F4FF0E87F2A2AE030E0A4010E9437291B
:10457000682E681847C0853731F43FEE732E7222DB
:104580002AE030E024C099EF792E72228F36B9F0FC
:1045900020F4883509F0B2C00DC0803721F088378B
:1045A00009F0ACC002C020E1722A74FE0BC034E0F6
:1045B000732A08C024FF09C086E0782A06C028E0D4
:1045C00030E005C020E130E002C020E132E06801C7
:1045D00077FE09C094E0C90ED11CF8016081718199
:1045E0008281938108C0F2E0CF0ED11CF801608176
:1045F000718180E090E0A4010E943729682E68183C
:10460000FFE77F2276FE0BC0072D0E7F641450F467
:1046100074FE0AC072FC08C0072D0E7E05C0162D60
:10462000072D03C0162D01C0142D04FF0CC0FE0180
:10463000E60DF11D8081803311F4097E08C002FF70
:1046400005C01E5F04C0802F867809F01F5F03FD40
:1046500012C000FF0DC0462C151550F4450C411A30
:10466000152D06C0B70180E290E00E94BA281F5FB6
:104670001515C0F304C0151510F4511A01C0512CC2
:1046800004FF10C0B70180E390E00E94BA2802FF47
:104690001EC001FF03C088E590E002C088E790E0FB
:1046A000B7010CC0802F867891F001FD02C080E236
:1046B00001C08BE207FD8DE2B70190E00E94BA28AD
:1046C00006C0B70180E390E00E94BA284A946414BF
:1046D000C0F36A94F401E60DF11DB701808190E00A
:1046E0000E94BA286110F5CF06C0B70180E290E0C1
:1046F0000E94BA285A945110F8CF97CCF70126811E
:10470000378102C02FEF3FEFC9016396CDBFDEBFF7
:10471000DF91CF911F910F91FF90EF90DF90CF909D
:10472000BF90AF909F908F907F906F905F904F90D1
:104730003F902F9008950C9446095058BB27AA2704
:104740000ED06CC15DD130F062D120F031F49F3FCA
:1047500011F41EF452C10EF4E095E7FB48C1E92FB5
:104760006ED180F3BA17620773078407950718F0B4
:1047700071F49EF586C10EF4E0950B2EBA2FA02D94
:104780000B01B90190010C01CA01A0011124FF27FE
:10479000591B99F0593F50F4503E68F11A16F040F9
:1047A000A22F232F342F4427585FF3CF46953795F8
:1047B0002795A795F0405395C9F77EF41F16BA0BBD
:1047C000620B730B840BBAF09150A1F0FF0FBB1F6B
:1047D000661F771F881FC2F70EC0BA0F621F731FB4
:1047E000841F48F4879577956795B795F7959E3F11
:1047F00008F0B3CF9395880F08F09927EE0F97959F
:10480000879508950CD00AC102D140F0F9D030F05C
:1048100021F45F3F19F0EBC0511134C1EEC00FD14C
:1048200098F39923C9F35523B1F3951B550BBB2777
:10483000AA2762177307840738F09F5F5F4F220F24
:10484000331F441FAA1FA9F333D00E2E3AF0E0E81D
:1048500030D091505040E695001CCAF729D0FE2F69
:1048600027D0660F771F881FBB1F261737074807FB
:10487000AB07B0E809F0BB0B802DBF01FF279358B1
:104880005F4F2AF09E3F510568F0B1C0FBC05F3F0B
:10489000ECF3983EDCF3869577956795B795F79599
:1048A0009F5FC9F7880F911D9695879597F9089591
:1048B000E1E0660F771F881FBB1F6217730784072D
:1048C000BA0720F0621B730B840BBA0BEE1F88F73C
:1048D000E095089504D06894B111D4C00895B7D07C
:1048E00088F09F5790F0B92F9927B751A0F0D1F0D9
:1048F000660F771F881F991F1AF0BA95C9F712C063
:10490000B13081F0BED0B1E00895BBC0672F782FE1
:104910008827B85F39F0B93FCCF3869577956795CE
:10492000B395D9F73EF490958095709561957F4F3A
:104930008F4F9F4F0895E89409C097FB3EF49095E0
:104940008095709561957F4F8F4F9F4F9923A9F068
:10495000F92F96E9BB279395F695879577956795F7
:10496000B795F111F8CFFAF4BB0F11F460FF1BC03B
:104970006F5F7F4F8F4F9F4F16C0882311F096E9CE
:1049800011C0772321F09EE8872F762F05C066237C
:1049900071F096E8862F70E060E02AF09A95660F35
:1049A000771F881FDAF7880F9695879597F90895EE
:1049B000990FBB0B550FAA0BE0E8FEEF1616170672
:1049C000E807F90770F012161306E407F50760F020
:1049D000BA173CF049F46217730784079507A79547
:1049E0001BF4B901CA01BA2FB6959795089597F9A6
:1049F0009F6780E870E060E008959FEF80EC089585
:104A000000240A94161617061806090608950024AD
:104A10000A9412161306140605060895092E039427
:104A2000000C11F4882352F0BB0F40F4BF2B11F49B
:104A300060FF04C06F5F7F4F8F4F9F4F089557FDFA
:104A40009058440F551F59F05F3F71F04795880FFC
:104A500097FB991F61F09F3F79F087950895121693
:104A600013061406551FF2CF4695F1DF08C016163F
:104A700017061806991FF1CF8695710561050894F0
:104A80000895E894BB2766277727CB0197F9089507
:104A90000BD0C4CFB5DF28F0BADF18F0952309F0AA
:104AA000A6CFABCF1124EECFCADFA0F3959FD1F3F1
:104AB000950F50E0551F629FF001729FBB27F00DCC
:104AC000B11D639FAA27F00DB11DAA1F649F662721
:104AD000B00DA11D661F829F2227B00DA11D621F70
:104AE000739FB00DA11D621F839FA00D611D221F2A
:104AF000749F3327A00D611D231F849F600D211D0E
:104B0000822F762F6A2F11249F5750408AF0E1F0B0
:104B100088234AF0EE0FFF1FBB1F661F771F881FF9
:104B200091505040A9F79E3F510570F060CFAACF39
:104B30005F3FECF3983EDCF3869577956795B795E4
:104B4000F795E7959F5FC1F7FE2B880F911D96950E
:104B5000879597F908957BDFE0F09E37D8F0963976
:104B6000B8F49E3848F4672F782F8827985FF9CFDC
:104B700086957795679593959539D0F3B62FB17053
:104B80006B0F711D811D20F487957795679593951F
:104B900002C01CC077CF882371F4772321F098508E
:104BA000872B762F07C0662311F499270DC09051EB
:104BB000862B70E060E02AF09A95660F771F881FB9
:104BC000DAF7880F9695879597F908959F3F31F00A
:104BD000915020F4879577956795B795880F911D2B
:104BE0009695879597F908950E944D26A59F900D5B
:104BF000B49F900DA49F800D911D11240895991BC1
:104C000079E004C0991F961708F0961B881F7A95C3
:104C1000C9F780950895AA1BBB1B51E107C0AA1FC5
:104C2000BB1FA617B70710F0A61BB70B881F991F4D
:104C30005A95A9F780959095BC01CD010895A1E200
:104C40001A2EAA1BBB1BFD010DC0AA1FBB1FEE1F06
:104C5000FF1FA217B307E407F50720F0A21BB30B51
:104C6000E40BF50B661F771F881F991F1A9469F7CD
:104C700060957095809590959B01AC01BD01CF0129
:104C800008950024A7FD00942A173005400550051B
:104C900060057005800590050895A29FB001B39F3F
:104CA000C001A39F01D0B29F700D811D1124911DE1
:104CB00008950F931F93CF93DF93689F8001699F9F
:104CC000100D789F100D1124C8010E947726C82F5F
:104CD000D92F209731F0A80160E070E08C2F0E945E
:104CE000A128CE01DF91CF911F910F9108950F93CD
:104CF0001F93CF93DF938230910510F482E090E010
:104D0000E091DC26F091DD2620E030E0C0E0D0E04C
:104D100023C04081518148175907A8F04817590707
:104D200061F482819381209719F08A839B832EC03E
:104D30008093DC269093DD2629C02115310529F0CA
:104D40004217530710F0A90102C0BE01DF01028122
:104D50001381EF019A01F8013097D9F62115310539
:104D600009F1281B390B2430310590F412968D91EE
:104D70009C9113976115710521F0FB018283938348
:104D800004C08093DC269093DD26FD01329644C05A
:104D9000FD01E20FF31F81939193225031092D936E
:104DA0003C933AC02091DA263091DB26232B41F444
:104DB00020911F20309120202093DA263093DB268B
:104DC00020911D2030911E202115310541F42DB771
:104DD0003EB74091212050912220241B350BE091B9
:104DE000DA26F091DB26E217F307A0F42E1B3F0B27
:104DF0002817390778F0AC014E5F5F4F241735074D
:104E000048F04E0F5F1F4093DA265093DB268193C4
:104E1000919302C0E0E0F0E0CF01DF91CF911F91CC
:104E20000F910895EF92FF920F931F93CF93DF930B
:104E3000009709F48EC0DC01129712961D921C9205
:104E40001397E090DC26F090DD26E114F10489F45C
:104E50002D913C911197280F391F8091DA2690915E
:104E6000DB268217930789F5A093DA26B093DB2619
:104E700070C0E70120E030E001C0EA01CA17DB079B
:104E800038F44A815B819E0141155105B1F722C07A
:104E9000AC0142505109FA01C283D38300811181D0
:104EA000BC01600F711F6C177D0761F46881798107
:104EB000600F711F6E5F7F4F608371836A817B819A
:104EC000628373832115310529F4A093DC26B09306
:104ED000DD263FC0F901A283B383E90149915991CD
:104EE000C40FD51FAC17BD0771F4DC019E918E91E4
:104EF000840F951F02968083918312968D919C91C9
:104F0000139782839383A0E0B0E002C0D7017C01B5
:104F1000F701828193810097C9F7C701029620812A
:104F20003181820F931F2091DA263091DB262817DA
:104F3000390779F4109729F41092DC261092DD26B7
:104F400004C012961D921C921397E092DA26F092FA
:104F5000DB26DF91CF911F910F91FF90EF90089585
:104F600081E090E0F8940C949529283008F027E02F
:104F70003327DA01990F311D87FD91600096610595
:104F8000710539F432602E5F3D9330E32A95E1F7E5
:104F900008959F3F30F080387105610509F03C5F4E
:104FA0003C5F3D93913008F08068911DDF93CF9373
:104FB0001F930F93FF92EF92192F987F9695E92FE9
:104FC00096959695E90FFF27E65BFD4F99273327C6
:104FD000EE24FF24A701E70105900894079428F424
:104FE000360FE71EF81E491F511D660F771F881FD9
:104FF000991F0694A1F70590079428F4E70EF81E70
:10500000491F561FC11D770F881F991F661F0694E1
:10501000A1F70590079428F4F80E491F561FC71FE3
:10502000D11D880F991F661F771F0694A1F7059061
:10503000079420F4490F561FC71FD81F990F661FEA
:10504000771F881F0694A9F784911095177041F077
:10505000D695C79557954795F794E7941A95C1F754
:10506000E0EFF1E068941590159135916591959177
:1050700005907FE27395E118F10A430B560BC90BBB
:10508000D009C0F7E10CF11E431F561FC91FD01DE8
:105090007EF4703311F48A95E6CFE894015030F035
:1050A000080F0AF40027021708F4202F2395022F77
:1050B0007A3328F079E37D932A95E9F710C07D9340
:1050C0002A9589F6069497956795379517951794BD
:1050D000E118F10A430B560BC90BD00998F0239540
:1050E0007E9173957A3308F070E37C932013B8F7C0
:1050F0007E9170617D9330F0839571E37D9370E3D1
:105100002A95E1F71124EF90FF900F911F91CF9115
:10511000DF91992787FD90950895FC0105906150D6
:1051200070400110D8F7809590958E0F9F1F0895BD
:10513000FB01DC0102C001900D9241505040D8F7B4
:105140000895DC0101C06D9341505040E0F708958F
:10515000FB01DC0101900D920020E1F70895FC01B4
:105160006150704001900110D8F7809590958E0F96
:105170009F1F08950F931F93CF93DF938C01EB0133
:105180008B8181FD03C00FEF1FEF1AC082FF0DC09E
:105190002E813F818C819D812817390764F4E88135
:1051A000F9810193E883F98306C0E885F985802FAA
:1051B0001995892B41F78E819F8101968E839F835C
:1051C000C801DF91CF911F910F910895CF93DF9385
:1051D0001F921F92CDB7DEB7FE0138966191719193
:1051E000E983FA83AF018091E0269091E1260E9445
:1051F000F41F0F900F90DF91CF9108950F931F939D
:10520000CF93DF93CDB7DEB76097CDBFDEBF088DFC
:10521000198D8A8D9B8D26E02C8309831A8397FF35
:1052200002C080E090E801978D839E83AE01425ECC
:105230005F4F4F87588B6C8D7D8DCE0101960E94FC
:10524000F41F4D815E8157FD0AC02F8138854217BA
:1052500053070CF49A01F801E20FF31F10826096D5
:10526000CDBFDEBFDF91CF911F910F910895FA015D
:10527000AA27283051F1203181F1E8946F936E7F95
:105280006E5F7F4F8F4F9F4FAF4FB1E03ED0B4E086
:105290003CD0670F781F891F9A1FA11D680F791FC7
:1052A0008A1F911DA11D6A0F711D811D911DA11DD8
:1052B00020D009F468943F912AE0269F11243019E8
:1052C000305D3193DEF6CF010895462F4770405D83
:1052D0004193B3E00FD0C9F7F6CF462F4F70405D32
:1052E0004A3318F0495D31FD4052419302D0A9F78D
:1052F000EACFB4E0A6959795879577956795BA9587
:10530000C9F700976105710508959B01AC010A2E4C
:1053100006945795479537952795BA95C9F7620F23
:0E532000731F841F951FA01D0895F894FFCFE2
:10532E00FFFF0000E12D00FFEB0000FF0000FFFF7C
:10533E000000FFFFFFFFFF00FFFF002DC80000E48D
:10534E00262000636F6C6F72206368616E67652044
:10535E00746F2052454400636F6C6F7220636861F6
:10536E006E676520746F204F52414E474500636F44
:10537E006C6F72206368616E676520746F2059458B
:10538E004C4C4F5700636F6C6F72206368616E6791
:10539E006520746F20475245454E00636F6C6F72E7
:1053AE00206368616E676520746F2041515541001E
:1053BE00636F6C6F72206368616E676520746F2017
:1053CE00424C554500636F6C6F72206368616E6767
:1053DE006520746F20574849544500636F6C6F7297
:1053EE00206368616E676520746F20505552504C73
:1053FE004500636F6C6F72206368616E6765207421
:10540E006F2050494E4B00554E4B4E4F574E20433A
:10541E004F4D4D414E4400733A20256C752C207231
:10542E003A20256C752C20633A20256C752C207340
:10543E00703A2025660053522069733A2025780D64
:02544E000A0052
:00000001FF
