:100000000C9475010C9496010C9496010C94960135
:100010000C9496010C9496010C9496010C94960104
:100020000C9496010C9496010C940F1D0C9496015F
:100030000C9496010C9496010C9496010C949601E4
:100040000C9496010C9496010C9496010C949601D4
:100050000C9496010C9496010C9496010C949601C4
:100060000C9496010C94111C0C9496010C943D1C5C
:100070000C94FD1A0C9496010C94291B0C94960177
:100080000C9496010C9496010C9484150C94960192
:100090000C9496010C9496010C9496010C94960184
:1000A0000C9496010C9496010C9496010C94960174
:1000B0000C9496010C9496010C94C3150C94960123
:1000C0000C9496010C9496010C9496010C94960154
:1000D0000C9496010C9496010C9496010C94960144
:1000E0000C9496010C9496010C94B51B0C949601FB
:1000F0000C94E11B0C9496010C9496010C949601BF
:100100000C9496010C9496010C9496010C94960113
:100110000C9496010C9496010C9496010C94561D27
:100120000C9496010C9496010C9496010C949601F3
:100130000C9496010C9496010C9496010C949601E3
:100140000C9496010C9496010C9496010C94321E1A
:100150000C9496010C9496010C9496010C949601C3
:100160000C946D1C0C9496010C94991C0C94A11A7F
:100170000C9496010C94CD1A0C9496010C94960153
:100180000C9496010C9496010C9496010C94960193
:100190000C9496010C9496010C9496010C94960183
:1001A0000C9496010C9496010C9496010C94960173
:1001B0000C9422160C9496010C9496010C949601C2
:1001C0000C9496010C9496010C9496010C94960153
:1001D0000C9496010C9496010C9496010C94591B66
:1001E0000C9496010C94851B6E616E00696E66001E
:1001F00000407A10F35A00A0724E18090010A5D4DE
:10020000E80000E87648170000E40B54020000CA3A
:100210009A3B000000E1F505000080969800000080
:1002200040420F000000A0860100000010270000DF
:100230000000E803000000006400000000000A0065
:10024000000000000100000000002C76D888DC6768
:100250004F0823DFC1DFAE59E1B1B796E5E3E453C0
:10026000C63AE651997696E8E6C28426EB898C9BDD
:1002700062ED407C6FFCEFBC9C9F40F2BAA56FA57D
:10028000F490055A2AF75C936B6CF9676DC11BFCFF
:10029000E0E40D47FEF520E6B500D0ED902E03001A
:1002A000943577050080841E080000204E0A000067
:1002B00000C80C333333330F986E12831141EF8D26
:1002C0002114893BE65516CFFEE6DB18D1844B3866
:1002D0001BF77C1D901DA4BBE424203284725E2297
:1002E0008100C9F124ECA1E53D2711241FBECFEF09
:1002F000DFE5DEBFCDBF00E00CBF11E2A0E0B0E261
:10030000E4E1F4E500E00BBF02C007900D92A632D5
:10031000B107D9F716E2A6E2B1E201C01D92A83EEC
:10032000B107E1F70E9477230C94082A0C9400008F
:1003300086E00E94DF07FFCFCF93DF93CDB7DEB714
:10034000C659D109CDBFDEBFE0914F21F0915021B8
:100350008381843051F148F48130A9F070F082300B
:10036000C1F0833009F03FC01AC0863051F118F156
:10037000873069F18830B9F530C080E00E94DF072E
:1003800067E270E235C081E00E94DF076BE370E254
:100390002FC082E00E94DF0762E570E229C083E09F
:1003A0000E94DF0769E670E223C084E00E94DF0755
:1003B0006FE770E21DC085E00E94DF0764E970E22C
:1003C00017C086E00E94DF0769EA70E211C087E08B
:1003D0000E94DF076FEB70E20BC088E00E94DF072E
:1003E00066ED70E205C080E00E94F9076BEE70E2F6
:1003F000CE0101960E94F728CA56DF4F1882C659CF
:10040000D040CE0101960E94710CCA56DF4FCDBF7D
:10041000DEBFDF91CF91089568E971E081E00E942D
:100420009C076CE971E085E10C949C076091462182
:1004300070914721809148219091492108950C9411
:1004400087140C949514CF9381E090E08093282139
:10045000909329218091262190912721892B31F099
:100460000E941F02892B11F00E9421020E945E0946
:100470000E94450AC0E08C2F0E946D170E949C03C9
:100480008C2F0E94A018CF5FC630A9F70E94EE06FD
:100490001092282110922921CF9108950E94D5060B
:1004A0000E94D60A0E9409080E940E090E94D303E6
:1004B0000E9458190E94EC080E94B0060E9415166E
:1004C0000E94E81481E090E08093262190932721F8
:1004D0000E94D80B0C94371D80930F22909310220A
:1004E000089580930F229093102244E050E06FE033
:1004F00072E280E090E00C9488190C945116FB0194
:100500002FB7F894978DDB01A90FB11D8C93892F1C
:100510008F5F8E3111F0878F01C0178E878D968D7A
:10052000891711F02FBF08958F5F868F8E31D1F715
:10053000168EF8CFFC01968D878D981308C004C0E5
:10054000168E9FBF30E00FC02FEF3FEF0CC09FB75C
:10055000F894868DDF01A80FB11D2C918F5F8E312D
:1005600079F3868FEECFC9010895FC0181E0268DD5
:10057000978D291380E0089581E00895E0914F213F
:10058000F0915021309779F08081803551F08F3F84
:1005900019F0813041F402C00E947D020E942805BA
:1005A00002C00E94170C80E00895863008F03FC01A
:1005B00098E5899FF0011124EC5AFB4D87859089BD
:1005C000892BA9F12FB7F894A785B08952968D9100
:1005D0009C9153978787908B892BA1F0A0934F21F3
:1005E000B09350212FBFA0914F21B091502152962E
:1005F0001D921C9253975696ED91FC915797309708
:1006000039F40FC0118A128A86858F778687E6CFE4
:10061000687151968C915197877E682B51966C9397
:10062000199510924F211092502181E0089580E099
:100630000895CF93C82F0E94580B882329F068E1B2
:100640008C2FCF910C94D502C63030F468E18C2FFA
:100650000E94D5028111FACFCF910895EF92FF92B7
:100660000F931F93CF93DF93EC01CA01209751F1B1
:10067000663040F5223130F5009721F138E5639F6F
:10068000F0011124EC5AFB4D30813068398B1A8A05
:100690001B8A0C8B1D8BEE8AFF8A022F10E0422FE3
:1006A00050E0BC01CE010E94E728C00FD11F41E1FC
:1006B00050E0401B510B6FEF70E0CE010E94F0281C
:1006C00081E001C080E0DF91CF911F910F91FF90F9
:1006D000EF900895009771F1DC015196EC91E7706D
:1006E000E63030F56FB7F8942E2F30E0B8E5EB9F89
:1006F000F0011124EC5AFB4D47855089452B19F424
:100700008787908B05C00188F289E02D828B938BBF
:1007100048E5429FF001439FF00D1124EC5AFB4D38
:10072000818B928B8685806886876FBF81E0089574
:100730000E941A0880E008950E947B1880934F2140
:1007400090935021009769F1DC015496ED91FC9152
:100750005597309719F40E94BE0201C019958091F7
:100760004F2190915021FC012189E22FE77038E55B
:10077000E39FF0011124EC5AFB4D25FB442740F97F
:1007800021E030E001C0220F4A95EAF73685322B8E
:1007900036870E941A0810924F211092502181E052
:1007A000089580E008950E942F1910924A21109216
:1007B0004B2110924C2110924D2110924E21089500
:1007C0000C94CF1F0F931F93CF93DF9300D000D0D3
:1007D000CDB7DEB781E0898383E08A830E94E41984
:1007E0009B838C83A0916426B091652619968C9189
:1007F000199790E0FC01EE0FFF1FEF5AFE4D20818C
:1008000031813D832E8321E1289FF001299FF00D46
:100810001124E35AFE4D108A05E916E020E030E08D
:1008200046E0BE016F5F7F4F19968C910E948F0842
:100830002696CDBFDEBFDF91CF911F910F91089516
:10084000FF920F931F93CF93DF9300D01F92CDB7EA
:10085000DEB7E0916426F0916526F1848F2D0E9429
:10086000580B811122C081E089838A830E94E41998
:100870009B838C8381E1F89E90011124F901E35A56
:10088000FE4D108A8285882329F0C901815A9E4D28
:100890000E94EF090EE514E020E030E044E0BE01E4
:1008A0006F5F7F4F8F2D0E948F082496CDBFDEBFD4
:1008B000DF91CF911F910F91FF900895E0914F210B
:1008C000F0915021818987700E94580BE0914F214F
:1008D000F091502181112CC0A1898A2F8871A770B5
:1008E000883059F481E1A89FD0011124A35ABE4D4C
:1008F00044E650E060E070E00AC081E1A89FD001CA
:100900001124A35ABE4D42E350E060E070E01C9613
:100910004D935D936D937C931F97A189A77081E19F
:10092000A89FD0011124A35ABE4D81E050968C930C
:10093000CF010C941A08FB01908381830895FC0178
:10094000308120E08181282BC9010895E1E5F1E2A1
:1009500080E021913191232B09F08F5F91E2ED35F9
:10096000F907B9F70895E1E5F1E2808191810895F1
:10097000EBE5F1E2808191810895E3E5F1E2808188
:1009800091810895E9E5F1E2808191810895E5E59D
:10099000F1E2808191810895E7E5F1E28081918122
:1009A00008951F93CF93DF93182FEB010E94580BEC
:1009B000811115C0163098F4E12FF0E0EE0FFF1F03
:1009C000EF5AFE4D808191818C179D0741F0C083C5
:1009D000D18383E1DF91CF911F910C946507DF9163
:1009E000CF911F9108951F93CF93DF93182F60E04D
:1009F00070E00E94D104C12FD0E081E1189F9001E6
:100A00001124F901E35AFE4D108A8285882329F0CA
:100A1000C901815A9E4D0E94EF0981E18C9FF0012E
:100A20008D9FF00D1124E35AFE4D138780E294E070
:100A30008087918782E390E0A0E0B0E0848795878B
:100A4000A687B78781E0808BDF91CF911F910895B2
:100A5000DF92EF92FF920F931F93CF93DF9300D01B
:100A600000D0CDB7DEB7E0914F21F0915021309703
:100A700009F400C19181923009F45CC0933009F40B
:100A8000BEC0913009F0F8C0E189E77011E11E9F06
:100A9000F0011124E35AFE4D44855585668577851E
:100AA000443651056105710509F4E6C0998382E079
:100AB0008A830E94E4199B838C83E0914F21F091FB
:100AC000502182818D8383818E83818960E070E0F3
:100AD00087700E94D104A0914F21B091502151966E
:100AE000EC915197E7701E9FF0011124E35AFE4DDF
:100AF000108A51968C918770189FC0011124FC01B7
:100B0000E35AFE4D2285222321F0815A9E4D0E94F8
:100B1000EF09E0914F21F0915021818908E416E01E
:100B200020E030E046E0BE016F5F7F4F87700E949B
:100B30008F08A2C0A189A77051E1D52EDA9ED001FD
:100B40001124A35ABE4D1C964D915D916D917C91DF
:100B50001F97443651056105710509F08DC002816A
:100B60001381348120E085817901E82A0E94E4190B
:100B7000E816F90609F080C0A0914F21B0915021EC
:100B80005196EC915197E770DE9EF0011124E35AE3
:100B9000FE4D108A51968C918770D89EC001112409
:100BA000FC01E35AFE4D2285222321F0815A9E4DFD
:100BB0000E94EF0920914F2130915021D901519687
:100BC000EC91E770B1E1EB9FF0011124E35AFE4D87
:100BD00084EF91E0A0E0B0E084879587A687B7878F
:100BE00082EE93E08087918781E0808B702F60E0B8
:100BF000612BF901818987700E94D1043DC0A189D0
:100C0000A77021E1A29FD0011124A35ABE4D1C96CA
:100C10008D919D910D90BC91A02D843F9140A10597
:100C2000B10551F5E280F380948180E025818C014B
:100C3000022B0E94E4190817190799F49E2D80E0F1
:100C40008F29E0914F21F0915021E189E770F0E088
:100C5000EE0FFF1FEF5AFE4D20813181821793075F
:100C600059F0E0914F21F0915021818987700E94C5
:100C7000F30402C080E001C081E02696CDBFDEBF54
:100C8000DF91CF911F910F91FF90EF90DF9008952A
:100C9000CF93DF93E0914F21F09150218189982FDC
:100CA00098719830B9F5748160E09581EB01C92B9A
:100CB000877021E1829FC0011124FC01E35AFE4D9F
:100CC00044EF51E060E070E044875587668777879E
:100CD0002285222321F0815A9E4D0E94EF09A09186
:100CE0004F21B09150215196EC915197E77081E1DD
:100CF000E89FF0011124E35AFE4D82EE93E08087D5
:100D0000918781E0808B51968C91BE0187700E9403
:100D1000D10403C087700E94F30480914F21909109
:100D20005021DF91CF910C941A08E0914F21F0915E
:100D300050218189982F98718770983049F491E1FA
:100D4000899FF0011124E35AFE4D81E0808B02C09F
:100D50000E94F30480914F21909150210C941A0825
:100D6000FF920F931F93CF93DF930DE611E2C0E044
:100D7000D0E061E1F62EFC9EC001FD9E900D112495
:100D8000835A9E4D0E94700AF80110828C2F0E9497
:100D9000F30421960F5E1F4FC630D10561F7DF9136
:100DA000CF911F910F91FF9008951092C32110923F
:100DB000C4211092C5211092C6211092C721109211
:100DC000C8211092C9211092CA21EBECF1E21192D4
:100DD000119282E2EB30F807D1F708958F929F923B
:100DE000AF92BF92CF92DF92EF92FF920F931F9339
:100DF000CF93DF932091C3213091C4214091C5212D
:100E00005091C6216091C7217091C8218091C9215C
:100E10009091CA21A0E00E94312609F449C00BEC50
:100E200011E2C12CD12C7601C3948090C321909003
:100E3000C421A090C521B090C621D701C6012C2D98
:100E40002821392F39214A2F4A215B2F5B2160E06D
:100E500070E080E090E0A0E00E943126F1F0D70140
:100E6000C60180959095A095B09588229922AA22D6
:100E7000BB228092C3219092C421A092C521B0923E
:100E8000C6211092C7211092C8211092C921109238
:100E9000CA21D801ED91FC911995CC0CDD1CEE1CFA
:100EA000FF1C0E5F1F4FB2E20B301B0709F0BDCFD6
:100EB000DF91CF911F910F91FF90EF90DF90CF9036
:100EC000BF90AF909F908F900895CF93DF93482F5E
:100ED000803260F5E82FF0E0EE0FFF1FE553FE4D86
:100EE00020813181232B11F181E090E0A0E0B0E07E
:100EF00004C0880F991FAA1FBB1F4A95D2F75091B3
:100F0000C321582B4091C421492B3091C5213A2B44
:100F10002091C6212B2B5093C3214093C4213093A1
:100F2000C5212093C62121E030E002C020E030E05E
:100F3000C901DF91CF910895803278F4E82FF0E075
:100F4000EE0FFF1FE553FE4D80819181892B29F41F
:100F50006083718321E030E002C020E030E0C9010D
:100F60000895803278F4E82FF0E0EE0FFF1FE5538C
:100F7000FE4D80819181892B29F01082118221E020
:100F800030E002C020E030E0C9010895803260F412
:100F9000E82FF0E0EE0FFF1FE553FE4D0190F081CA
:100FA000E02D309709F01994089580910E2208954C
:100FB00080910E228F5F893008F080E00895809341
:100FC0000E2290E0FC01EE0FFF1FE80FF91FEF5F0C
:100FD000FF4D209100204281618180810C94301965
:100FE0000E94D8070E94DF0780910E2208950C947A
:100FF000301980930020282F40910D2260910C22FF
:1010000080910B220C9430198091002008950C944B
:101010005819E4E4F3E21082789684E2E436F807A3
:10102000D1F7E4E2F2E21082789683E2E434F80742
:10103000D1F70895FC0109C0818987FD118A928941
:101040008389128A138AE92FF82F3097A9F7089518
:10105000811103C083E393E202C083E192E22CE0BA
:10106000FC01E85FFE4FDC01A75EBE4F3C9137FDFF
:1010700005C080E8818B128A138A06C021504897E8
:101080002111EECFE0E0F0E0CF01089580E00C9474
:10109000280881E00C942808EF92FF920F931F9389
:1010A000CF93DF93EC01CB01E1E5F1E260E0A191A8
:1010B000B191A817B90761F4CE010E942E038111E6
:1010C00002C080E009C0CE010E946A0381E004C032
:1010D0006F5F663061F7F5CFDF91CF911F910F9170
:1010E000FF90EF900895EF92FF920F931F93CF938D
:1010F000DF93EC016F3F11F480E00AC06630E0F747
:101100000E942E038823C1F3CE010E946A0381E06E
:10111000DF91CF911F910F91FF90EF9008956F9203
:101120007F928F929F92AF92BF92CF92DF92EF9277
:10113000FF920F931F93CF93DF93782E6B01642E52
:10114000590148018FEF78121BC0712C0E94490889
:10115000EC01009781F074018501262DA601672D11
:101160000E942E03811104C0CE010E941A0803C000
:10117000CE010E946A03739486E07812E7CF1CC008
:1011800085E0871508F411C00E944908EC0100971A
:1011900061F078018501262DA601672D0E942E039E
:1011A000811105C0CE010E941A08712C05C0CE0124
:1011B0000E946A0377247394872DDF91CF911F914A
:1011C0000F91FF90EF90DF90CF90BF90AF909F90E6
:1011D0008F907F906F9008950895E0916426F0912C
:1011E00065260284F385E02D8585806485870895D2
:1011F000FC01158680E48687CF010196838794875A
:101200008DEE98E0878390871786108A118A128A5C
:10121000138A148A158A168A178A0895FF920F93E3
:101220001F93CF93DF9304E514E2C0E0D0E088E59C
:10123000F82EF801C083FC9EC001FD9E900D112484
:101240008C5A9B4D0E94F8082196085A1F4FC630B1
:10125000D10579F7DF91CF911F910F91FF900C94F9
:10126000471A0E944E020E940C0280E00E94C607AC
:1012700081E0FCCFCF92DF92EF92FF92CF93DF938A
:10128000EC010E94C91C6B017C01CE01AA2797FDCD
:10129000A095BA2FC80ED91EEA1EFB1E0E94C91CBB
:1012A0006C157D058E059F05C8F3DF91CF91FF90EA
:1012B000EF90DF90CF9008950C94C91C0F931F936B
:1012C000CF93DF9300D01F92CDB7DEB78091682611
:1012D00090916926892B99F10E94C91CE09168269A
:1012E000F09169260281138124813581601771078D
:1012F0008207930720F1E0936426F093652620810E
:10130000318120936826309369262085222361F05D
:101310000680F781E02D69837A838B839C831995FE
:101320009C818B817A816981E0916426F0916526A8
:1013300010862091682630916926232B79F6249611
:10134000CDBFDEBFDF91CF911F910F9108950F9315
:101350001F93CF93DF93FC0110821182A091682626
:10136000B0916926109729F4809368269093692696
:101370002DC04281538164817581C0E0D0E003C0FB
:10138000DC01C32FD22F12960D911D912D913C910E
:101390001597041715072607370718F0209791F4BB
:1013A0000CC08D919C9111973A2F2B2F009741F7EC
:1013B000ED93FC931082118209C0E0936826F093AC
:1013C000692602C0E883F983A083B18381E0808726
:1013D00081E090E0DF91CF911F910F910895E0910E
:1013E0006826F09169263097D1F0A0E0B0E007C000
:1013F00020813181DF012115310589F0F9018E1736
:101400009F07B1F70FC0209368263093692602C06A
:101410002D933C93FC01108621E030E009C020E0D0
:1014200030E006C0FC0120813181109789F7EBCFB5
:10143000C9010895E0916826F09169263097D9F0A6
:10144000A0E0B0E007C020813181DF012115310526
:1014500091F0F9012681378128173907A1F70EC0CD
:10146000809368269093692602C08D939C93108682
:1014700021E030E008C020E030E005C080819181AB
:10148000109799F7EDCFC90108950F931F93CF934C
:10149000DF93C0916626D09167261BC08889813072
:1014A000A9F48A85811112C00E94C91C0C851D8572
:1014B0002E853F85600F711F821F931F6C837D8374
:1014C0008E839F83CE0102960E94A7090990D8813E
:1014D000C02D209719F7DF91CF911F910F9108959B
:1014E000FC0110821182E0916626F0916726309708
:1014F00059F4809366269093672610C08E179F0735
:1015000011F40E94FF27F901208131812115310555
:10151000A9F78E179F07A9F38083918321E0FC012F
:10152000208B81E090E00895E0916626F091672697
:101530003097D9F0A0E0B0E007C020813181DF0111
:101540002115310591F0F901E817F907B1F710C03D
:10155000809366269093672602C08D939C93108299
:101560001182108A21E030E008C020E030E005C0A0
:1015700080819181109789F7EBCFC90108950F936E
:101580001F93CF93DF938C010E94940AEC01011505
:10159000110531F0C80102960E94EF09C80FD91F4A
:1015A000CE01DF91CF911F910F910895109268267F
:1015B0001092692610926426109265261092662673
:1015C000109267260C940B1D80916A2690916B26D1
:1015D000089580914F21909150210C940227809181
:1015E0004F21909150210C9402278F929F92BF928D
:1015F000CF92DF92EF92FF920F931F93CF93DF93DF
:101600001F92CDB7DEB7B82E6B01890161E070E0A3
:1016100088E190E049830E9449264C014981009766
:1016200079F08FEEE82E8AE0F82E242FA6016B2D9C
:10163000C4010E947308811105C0C4010E940227E1
:1016400080E001C081E00F90DF91CF911F910F9159
:10165000FF90EF90DF90CF90BF909F908F90089574
:10166000CF93E0914F21F0915021828190E0209121
:101670002A2130912B2128173907B4F480932A218D
:1016800090932B21C0E060914F217091502126E56D
:101690003BE044E08C2F0E94F50ACF5FC63099F7FB
:1016A00085E1CF910C94C607CF9108950C94300B2F
:1016B00090911C20891306C081E090E020912C219C
:1016C000213011F080E090E008958F929F92BF92B8
:1016D000CF92DF92EF92FF920F931F93CF93DF93FE
:1016E0001F92CDB7DEB7B82E6B0161E070E088E1E4
:1016F00090E049830E9449264C012981009781F09E
:1017000099EEE92E9AE0F92E00E010E0A6016B2D8B
:10171000C4010E947308811105C0C4010E94022700
:1017200080E001C081E00F90DF91CF911F910F9178
:10173000FF90EF90DF90CF90BF909F908F90089593
:10174000CF93DF931F921F92CDB7DEB790E59983B9
:1017500092E09A8342E0BE016F5F7F4F0E94650B6B
:101760000F900F90DF91CF9108950F931F93CF9318
:10177000DF93082FC1E5D1E210E0101739F028817E
:101780003981232B19F0812F0E94A00B1F5F229615
:10179000163099F7DF91CF911F910F910895BC01F9
:1017A00080911C20883C19F041E10C94650B089550
:1017B000FF920F931F93CF93DF931F921F92CDB78A
:1017C000DEB788EC80931C2010922C2180E5898361
:1017D00083E08A8381E00E94DF0715C0F801219130
:1017E00031918F01232B39F042E0BE016F5F7F4FB3
:1017F0008F2D0E94650BF394F6E0FF12EFCF88EC7B
:1018000090E00E943A0980911C20883C21F401E577
:1018100011E2F12CE3CF0E94E4190E94F4270F900B
:101820000F90DF91CF911F910F91FF900895E0915C
:101830004F21F09150213097B1F191819330F9F01F
:1018400028F4913041F0923081F50CC0943001F1D0
:10185000953059F525C08189877080931C2090931D
:101860002C210AC080911C20883CF9F48189877062
:1018700080931C2010922C210E94B50B16C08091E1
:101880001C20883C91F0818987700E94A00B0DC0BC
:1018900080911C20883C49F0CF010E94CF0B05C0ED
:1018A0000E94300B02C080E0089581E00895009707
:1018B000A1F0DC010D900020E9F71197A81B8A2FF9
:1018C0008F5F8B3060F08A506BE00E94DB259111B6
:1018D00002C08F5F08958E5F089580E0089581E0D3
:1018E00008957F928F929F92AF92BF92CF92DF9294
:1018F000EF92FF920F931F93CF93DF93CDB7DEB795
:101900006197CDBFDEBF8C010E94570CB82E0E949C
:10191000F0277C0180911C20883C09F484C080E57C
:10192000898384E08A830E94E419BE016D5F7F4F42
:101930000E949B0480912D218D8381E0B81681F057
:10194000C7016DE270E00E94FB25A82EA394E12C54
:10195000F12C812CCB2CD12C81E0C81AD10859C094
:10196000D8010D900020E9F71197FA2EF01A9E0188
:10197000285F3F4F4F2D4F5F50E0B801C9010E94D3
:10198000E7281E82BF824F2D485FBE016F5F7F4FE9
:1019900080911C200E94650B3FC0EE82811106C021
:1019A000BF8257E0752E6AE0962E13C0EC14FD043A
:1019B00061F4F801E80DF11DDF010D900020E9F759
:1019C0009A2E9E1A46E0742E04C026E0722E3BE04A
:1019D000932E21E030E02C0F3D1F270D311DF80123
:1019E000E80DF11D492D50E0BF01C9010E94E72813
:1019F000890C8A2D90E00E943A09472D490DBE01BD
:101A00006F5F7F4F80911C200E94650B8FEFE81A5B
:101A1000F80A8E2DEB1408F280912D218F5F8093B0
:101A20002D2181E001C080E06196CDBFDEBFDF9156
:101A3000CF911F910F91FF90EF90DF90CF90BF90CB
:101A4000AF909F908F907F900895CF93DF93EC019C
:101A500004C081E090E00E943A0980911C20883CFB
:101A6000C1F3CE01DF91CF910C94710C80914F2185
:101A7000909150210C9402270895CF92DF92EF921B
:101A8000FF920E9477242091402130914121409182
:101A90004221509143210E9424256B017C016091D9
:101AA00036217091372180913821909139210E94FF
:101AB00079249B01AC01C701B6010E947A230E94E0
:101AC0004B24FF90EF90DF90CF900895CF92DF925C
:101AD000EF92FF920E945C090E947724209140219E
:101AE0003091412140914221509143210E9424256F
:101AF0006B017C01609136217091372180913821F2
:101B0000909139210E9479249B01AC01C701B60153
:101B10000E947A230E944B24FF90EF90DF90CF9099
:101B20000895CF93DF9300D01F92CDB7DEB76091B9
:101B30002E2170912F2180913021909131210E948E
:101B400077249B01AC0169833A834B835C830E94B9
:101B5000660D0E94772429813A814B815C810E9425
:101B6000B4240E944B242496CDBFDEBFDF91CF91D9
:101B70000895809145210895809144210895FC01A4
:101B800084899589892B39F48081803621F481E01C
:101B90009181933009F080E00895CF93DF93EC01B9
:101BA0000E945C09698778878F839E83DF91CF913C
:101BB0000895CF93DF93EC010E94660D6D837C83C3
:101BC0008B839A83DF91CF91089580914521811174
:101BD00011C081E090E04091322150913321609119
:101BE000342170913521452B462B472B29F480E079
:101BF00090E0089581E090E0089510928B26109275
:101C00008C2610928D2610928E2610928F2610927E
:101C1000902608951092452110927D268DE696E239
:101C20000E94940A8FE696E20C94EF098091442179
:101C300081111CC080E896E20E94EF090E945C09B5
:101C40006C507E4F8F4F9F4F6093822670938326F8
:101C500080938426909385268FEB9FE08093862641
:101C60009093872680E896E20C94A7090895109235
:101C700044210E94160E80E00895109236211092A1
:101C8000372110923821109239211092322110926E
:101C90003321109234211092352110922E2110926E
:101CA0002F21109230211092312180E090E0A0E8A5
:101CB000BFE38093402190934121A0934221B093B0
:101CC000432110923C2110923D2110923E2110920E
:101CD0003F2110923A2110923B210E94FD0D8FEF7F
:101CE00080938A260E94E41980937E2690937F2613
:101CF000109244210E940A0E0C94160E8F929F920D
:101D0000BF92CF92DF92EF92FF920F931F93CF93E8
:101D1000DF931F92CDB7DEB7B82E6B0161E070E0A4
:101D200088E190E049830E9449264C01298100976F
:101D300081F086E3E82E8DE0F82E00E010E0A601A9
:101D40006B2DC4010E947308811105C0C4010E945B
:101D5000022780E001C081E00F90DF91CF911F91B9
:101D60000F91FF90EF90DF90CF90BF909F908F905A
:101D700008951F93CF93DF9300D01F92CDB7DEB7A6
:101D8000182F9B0180E6898381E08A83BE016D5F05
:101D90007F4FC9010E949B0444E0BE016F5F7F4FEB
:101DA000812F0E947E0E2496CDBFDEBFDF91CF91A2
:101DB0001F9108950F931F93CF93DF93CDB7DEB795
:101DC0002597CDBFDEBF182F062F80E6898382E0DE
:101DD0008A83BE016D5F7F4F80917E2690917F2622
:101DE0000E949B040D8345E0BE016F5F7F4F812FF2
:101DF0000E947E0E2596CDBFDEBFDF91CF911F9151
:101E00000F910895CF93DF9300D01F92CDB7DEB727
:101E100090E6998393E09A8342E0BE016F5F7F4F23
:101E20000E947E0E2496CDBFDEBFDF91CF91089534
:101E3000EF92FF920F931F93CF93DF930BE816E27D
:101E4000C1E5D1E2E12CF12CF80181918F018823C9
:101E500041F028813981232B21F08F2D0E94020F20
:101E6000E394F3942296F6E0FF12EECF8E2DDF91ED
:101E7000CF911F910F91FF90EF900895CF93C1E004
:101E8000C093452188EB9BE0A0E0B0E080937926E9
:101E900090937A26A0937B26B0937C2688E19FE0DE
:101EA00080937526909376260E94180F8DE696E211
:101EB0000E94700AC0937D26CF910895CF93DF933F
:101EC0001F921F92CDB7DEB790E6998394E09A8374
:101ED00042E0BE016F5F7F4F0E947E0E0F900F9019
:101EE000DF91CF910895CF92DF92EF92FF920F93FF
:101EF0001F93CF93DF93D82E8B01C42EC1E5D1E27F
:101F0000E12CF12CFD1459F028813981232B39F073
:101F10004C2DB8018F2D0E947E0E8111E394F39415
:101F2000229686E0F812EECF8E2DDF91CF911F9191
:101F30000F91FF90EF90DF90CF9008951F93CF9374
:101F4000DF9300D01F92CDB7DEB7182F9B0180E63C
:101F5000898381E08A83BE016D5F7F4FC9010E9442
:101F60009B0444E0BE016F5F7F4F812F0E94730F7F
:101F70002496CDBFDEBFDF91CF911F910895CF93FF
:101F8000DF9380914421811130C00E940A0E0E948B
:101F9000E41980937E2690937F268FEF80938A2684
:101FA00081E0809344210E94FD0D0E94E419BC0150
:101FB0008FEF0E949E0F80936C26811116C01092A5
:101FC0004421C0917E26D0917F260E94E419C81733
:101FD000D90721F4DF91CF910C943E0F61E08091FD
:101FE0008A26DF91CF910C94DA0EDF91CF9108957C
:101FF0002F923F924F925F926F927F928F929F9219
:10200000AF92BF92CF92DF92EF92FF920F931F9306
:10201000CF93DF93CDB7DEB7CE59D109CDBFDEBFA9
:1020200000914F21109150210115110509F4F3C1C0
:10203000F8018181823009F4C0C120F4813009F0B7
:10204000ECC163C1833021F0843009F0E6C152C194
:10205000F801C5808281D12CE12CF12CF82A8481F1
:10206000D82A8381E82A81848681912CA12CB12CE5
:10207000B82A8085982A8781A82A60912E2170919C
:102080002F2180913021909131210E9477249B0152
:10209000AC01C556DF4F6883CB59D040C456DF4FE3
:1020A0003883CC59D040C356DF4F4883CD59D040F8
:1020B000C256DF4F5883CE59D0400E94910D0E94E6
:1020C0007724C556DF4F2881CB59D040C456DF4F07
:1020D0003881CC59D040C356DF4F4881CD59D040CC
:1020E000C256DF4F5881CE59D0400E94B4240E947E
:1020F0004B2460932E2170932F2180933021909355
:102100003121F6E0CF0ED11CE11CF11C10914021D1
:10211000009141217090422160904321C501B4019A
:102120000E943D0D6F927F920F931F939F938F9309
:102130007F936F93BF92AF929F928F92FF92EF9295
:10214000DF92CF928BEF90E29F938F931F9286E95D
:102150008F938E010F5F1F4F1F930F930E944D2986
:10216000CA56DF4F1882C659D040C8010E94710C70
:1021700080913A2190913B21019680933A2190934E
:102180003B21CDBFDEBF019779F4D701C601881985
:102190009909AA09BB098093362190933721A0930E
:1021A0003821B093392193C00E945C0940903221BC
:1021B0005090332160903421709035216419750955
:1021C000860997096C3D754081059105F0F2809173
:1021D0003C2190913D21A0913E21B0913F21A7014A
:1021E0009601281B390B4A0B5B0BCA01B9010E94EF
:1021F0007724C956DF4F688379838A839B83C759C5
:10220000D040C501B40164197509860997090E9477
:1022100077249B01AC01C956DF4F688179818A819F
:102220009B81C759D0400E94DE23162F072F382EDE
:10223000292EA8019101852F942FA32FB22F8093CF
:10224000402190934121A0934221B09343210E94C9
:102250005C09C956DF4F688379838A839B83C7599A
:10226000D040C701B6010E9477242B013C01C9561A
:10227000DF4F688179818A819B81C759D0400E9454
:1022800077249B01AC01D801F1016B2F7A2F8F2F9E
:102290009E2F0E9424259B01AC01C301B2010E9424
:1022A00079230E9487250E944624609336217093EB
:1022B0003721809338219093392180913A21909150
:1022C0003B2165E070E00E94E725892B81F4C092F4
:1022D0003C21D0923D21E0923E21F0923F2180921C
:1022E000322190923321A0923421B09235210E9464
:1022F000180F93C00E94E50D811101C08EC0F80136
:10230000818987700E94020F88C0C80102960E94CE
:102310009F048C0180914421811106C080E896E2DF
:102320000E94EF090E94BF0F80917E2690917F2628
:102330000817190749F4E0914F21F0915021818944
:1023400060E087700E94DA0E80917E2690917F2651
:102350000817190708F061C000937E2610937F26A6
:10236000E0914F21F09150218189877080938A26D6
:102370000E94FD0DE0914F21F09150218189B8011B
:1023800087700E949E0F80936C26811146C0109228
:10239000442100917E2610917F260E94E41908179F
:1023A000190719F40E943E0F38C0E0914F21F091B7
:1023B0005021818961E087702BC0C80102960E947C
:1023C0009F048C0180917E2690917F260817190723
:1023D00021F580916C26815080936C26A0914F212D
:1023E000B09150215196EC915197E770F0E0E5578C
:1023F000F94D14969C91908381110FC01092442145
:102400000E94E4190817190769F261E080918A2691
:102410000E94DA0E02C080E001C081E0C256DF4FA8
:10242000CDBFDEBFDF91CF911F910F91FF90EF9055
:10243000DF90CF90BF90AF909F908F907F906F90E4
:102440005F904F903F902F9008958091CF0187FD2E
:10245000FCCF0895CF93DF931F921F92CDB7DEB7C5
:102460006A8389830E9425126A816F71898120E2C3
:10247000829FC0011124862BE0ECF1E080839183E0
:10248000128286E08287EF93FF930F932F93EBECFA
:10249000F1E008ED21E004BF20832F910F91FF911F
:1024A000EF9184810F900F90DF91CF9108950E945A
:1024B00025128091CF0181FF11C086E38093CA016C
:1024C000EF93FF930F932F93EBECF1E008ED21E0F6
:1024D00004BF20832F910F91FF91EF910895CF9327
:1024E000DF9300D0CDB7DEB74B836A8389830E9428
:1024F0005712E0ECF1E093E392876A816F71898172
:1025000020E2829FC0011124862B80839183128256
:102510004B81448385E38287EF93FF930F932F933F
:10252000EBECF1E008ED21E004BF20832F910F9147
:10253000FF91EF912396CDBFDEBFDF91CF9108953C
:10254000CF93DF931F921F92CDB7DEB76A83898343
:102550000E942512E0ECF1E093E392878981808369
:10256000118212826A8164830F900F90DF91CF9164
:102570000895CF93DF93EC010E94251283E38093AB
:10258000CA011092C1011092C20180E08093C00183
:1025900099919093C4018F5F8032C1F7DF91CF9101
:1025A00008950F931F93CF93DF931F921F92CDB780
:1025B000DEB78C014A8369830E94251283E38093EE
:1025C000CA011092C1011092C2014A816981460F6D
:1025D00008C06093C001F80181918F018093C4010C
:1025E0006F5F641711F06032A0F30F900F90DF91CE
:1025F000CF911F910F910895CF93DF931F92CDB785
:10260000DEB789830E942512898120E2829FC00162
:102610001124E0ECF1E080839183128285E38287CC
:10262000EF93FF930F932F93EBECF1E008ED21E094
:1026300004BF20832F910F91FF91EF910F90DF91B5
:10264000CF910895CF93DF931F92CDB7DEB78983E3
:102650000E942512898120E2829FC0011124E0ECB2
:10266000F1E080839183128282E38287EF93FF936C
:102670000F932F93EBECF1E008ED21E004BF2083F2
:102680002F910F91FF91EF910F90DF91CF910895CE
:10269000CF93DF931F92CDB7DEB789830E942512B7
:1026A000898120E2829FC0011124E0ECF1E0808367
:1026B0009183128284E38287EF93FF930F932F938A
:1026C000EBECF1E008ED21E004BF20832F910F91A6
:1026D000FF91EF910F90DF91CF9108950E94251205
:1026E00080E3E0ECF1E08287EF93FF930F932F9369
:1026F000EBECF1E008ED21E004BF20832F910F9176
:10270000FF91EF9108958093C30A8091C20A87FFD9
:10271000FCCF8091C30A0895019749F480E1672BAB
:1027200019F08093A50608958093A606089580E188
:10273000672B19F080938506089580938606089587
:10274000EF92FF920F931F93CF93DF93EB018A01D8
:1027500079010197F1F480E18093A60683E00E945D
:1027600083138D2F0E9483138C2F0E948313E80103
:1027700006C080E00E948313F80181938F01C80195
:102780008C1B9D0B8E159F05A4F380E18093A506FD
:1027900026C080E18093860684ED0E94831380E04A
:1027A0000E948313CE0188279370892F0E94831380
:1027B0008C2F0E94831380E00E948313E80106C0DF
:1027C00080E00E948313F80181938F01C8018C1B64
:1027D0009D0B8E159F05A4F380E18093850681E013
:1027E00090E0DF91CF911F910F91FF90EF900895AE
:1027F000EF92FF920F931F93CF93DF93EB018A0128
:1028000079010197E9F480E18093A60682E00E94B5
:1028100083138D2F0E9483138C2F0E948313E80152
:1028200005C0F80181918F010E948313C8018C1BA0
:102830009D0B8E159F05ACF380E18093A50622C009
:1028400080E18093860684E80E94831380E00E94E2
:102850008313CE0188279370892F0E9483138C2FB6
:102860000E948313E80105C0F80181918F010E9445
:102870008313C8018C1B9D0B8E159F05ACF380E163
:102880008093850681E090E0DF91CF911F910F91B9
:10289000FF90EF90089508951F93CF93DF93C0EAC0
:1028A000D6E010E11E8381E00E94831381E40E9440
:1028B00083131D831E8385E00E94831380E00E94A2
:1028C00083131D831F928F938AE191E29F938F93CD
:1028D0000E9435290F900F900F900F90DF91CF91AC
:1028E0001F910895E0E8F6E080E185838183A0EA06
:1028F000B6E015968C93159711968C9380EA818398
:1029000080E4828380E58093C00A0C944C1480910B
:10291000A126813031F48091A02621E030E0882387
:1029200011F020E030E0C9010895CF938091A126F5
:10293000813009F04BC08091A026811147C0C09121
:1029400049218091982624E0829FC0011124859519
:102950008595809346218091992624E0829FC0012D
:102960001124859585958093472180919A2624E0AE
:10297000829FC0011124859585958093482180917F
:102980009B26809349211092A1268BE00E94650727
:10299000892BE1F48091492185FF03C08CE00E94DE
:1029A00065078091492187FF03C08DE00E9465077C
:1029B000CF712C2F30E0809149218F7190E0281742
:1029C000390721F08CE0CF910C946507CF910895E1
:1029D0000F93CF93DF931F921F92CDB7DEB72BE9F2
:1029E00040E460EA74E081E996E20E94DC1E87E040
:1029F000898388E18A8300E022E0AE014F5F5F4F68
:102A00006CE481E996E20E94F71E8091A026811174
:102A1000FCCF85E089831A8200E022E0AE014F5F9F
:102A20005F4F6CE481E996E20E94F71E8091A02638
:102A30008111FCCF86E0898387E08A8300E022E071
:102A4000AE014F5F5F4F6CE481E996E20E94F71E92
:102A50008091A0268111FCCF88E0898380EE8A8353
:102A600000E022E0AE014F5F5F4F6CE481E996E247
:102A70000E94F71E8091A0268111FCCF89E08983F6
:102A800080E18A8300E022E0AE014F5F5F4F6CE49B
:102A900081E996E20E94F71E8091A0268111FCCF69
:102AA0008AE0898380E18A8300E022E0AE014F5F03
:102AB0005F4F6CE481E996E20E94F71E8091A026A8
:102AC0008111FCCF87E0898389E18A8300E022E0DD
:102AD000AE014F5F5F4F6CE481E996E20E94F71E02
:102AE0008091A0268111FCCF81E0809322069AE19B
:102AF0009093300680932A06809329060F900F90BA
:102B0000DF91CF910F9108951F920F920FB60F9200
:102B100011240BB60F920F932F933F934F935F9314
:102B20006F937F938F939F93AF93BF93EF93FF9395
:102B3000CF93DF931F92CDB7DEB78091A02681118E
:102B40000BC0198204E021E0AE014F5F5F4F6CE4DF
:102B500081E996E20E94F71E0F90DF91CF91FF91DD
:102B6000EF91BF91AF919F918F917F916F915F9105
:102B70004F913F912F910F910F900BBE0F900FBE71
:102B80000F901F9018951F920F920FB60F9211245D
:102B90000BB60F922F933F934F935F936F937F9357
:102BA0008F939F93AF93BF93EF93FF9381E996E247
:102BB0000E94A71FFF91EF91BF91AF919F918F91BD
:102BC0007F916F915F914F913F912F910F900BBE2D
:102BD0000F900FBE0F901F9018950F93CF93DF9318
:102BE0001F921F92CDB7DEB789836A8300E022E08F
:102BF000AE014F5F5F4F6CE481E996E20E94F71EE1
:102C00008091A0268111FCCF0F900F90DF91CF9182
:102C10000F910895E0E0FBE081E0808380E89EE38F
:102C200086A397A382E086830895109228211092AC
:102C300029210E940A16E0EAF0E0828187608283FF
:102C4000789408951F920F920FB60F9211240BB62D
:102C50000F922F933F934F935F936F937F938F9335
:102C60009F93AF93BF93EF93FF938091282190910F
:102C70002921892B19F4A8950E942302FF91EF9135
:102C8000BF91AF919F918F917F916F915F914F9184
:102C90003F912F910F900BBE0F900FBE0F901F9082
:102CA0001895E8E7F0E08181816098ED94BF818319
:102CB0000895682728E030E067FF09C0862F90E07C
:102CC000880F991F46EA84279095682F01C0660FE8
:102CD0002150310989F7862F08950F931F93CF93C1
:102CE000DF9398E5899F80011124E801CC5ADB4DE0
:102CF0003E859D89292F2695422F49279C7F9D8BB4
:102D000040FF18C032FB992790F92170921312C02E
:102D100068E00E94D50294E09D878E8589278064B3
:102D20008E87C8018B5A9B4DDF91CF911F910F91D8
:102D30000C94EF09DF91CF911F910F9108950097A7
:102D4000D9F0FC01128A138A20914A2130914B213B
:102D5000232B29F480934A2190934B2106C0E091C4
:102D60004C21F0914D21828B938B80934C21909339
:102D70004D2180E880934E210895282F982F9E7F23
:102D800081E0983041F09A3031F0923129F02D37BE
:102D900019F080E00895089508959F92AF92BF9230
:102DA000CF92DF92EF92FF920F931F93CF93DF9317
:102DB000B82E7B016115710509F483C062E1C62E4E
:102DC000C42A00E010E0D12C88E5B89EE00111246F
:102DD000C457DB4D70E2972EF701E00FF11FA48876
:102DE0006A2D8D2D0E945916D82E8A2D0E94BD164F
:102DF000BE01882339F08DE70E947F02BE018A2D33
:102E0000892501C08A2D0E947F020F5F1F4F02306B
:102E1000110511F701E1E8E5BE9EE0011124C45758
:102E2000DB4D50E2952EF70111917F01612F8D2D21
:102E30000E945916D82E812F0E94BD16A82EBE01C1
:102E4000882339F08DE70E947F02BE01812F8925FA
:102E500001C0812F0E947F02015029F72B2D30E005
:102E600088E5AA2079F0829FE001839FD00D11248C
:102E7000C457DB4DBE018DE70E947F02BE0180E298
:102E80008D2508C0829FB001839F700D1124645767
:102E90007B4D8D2D0E947F0288E5B89EF0011124A4
:102EA000EC5AFB4D60818C2DDF91CF911F910F91DA
:102EB000FF90EF90DF90CF90BF90AF909F900C94D9
:102EC000051ADF91CF911F910F91FF90EF90DF9046
:102ED000CF90BF90AF909F9008952F923F924F92C6
:102EE0005F926F927F928F929F92AF92BF92CF929A
:102EF000DF92EF92FF920F931F93CF93DF93382EC1
:102F0000E82EF12CF701EE55F94D208088E58E9DD5
:102F1000E0018F9DD00D1124FCE66F2EF4E27F2E90
:102F20006C0E7D1EC3010E94B5028111D1C0FE014D
:102F3000EC5AFB4D468857884114510421F0F201A8
:102F4000818986FDA4C088E58E9DF0018F9DF00DDE
:102F50001124EC5AFB4D138A148A212C412C512C3C
:102F600096C0C3010E949A02BC016E7F7727683029
:102F7000710591F48170992721E030E002C0220FA1
:102F8000331F8A95E2F7C901F8019081982B90834D
:102F9000832D0E946D1692C06231710501F581701A
:102FA0009927282E2294220CE0EE2E22F601108280
:102FB000F5011082F401408051804114510449F41C
:102FC0000E9446082C01009709F45CC0F40180833C
:102FD00091839881906C9229F201918B53C0411496
:102FE000510409F46BC0682F8D3709F44DC02220BD
:102FF00019F0F0E28F27682FF6018081833170F19C
:10300000F5018081681322C0F20181898F7B818B59
:10301000F801808180688083F201918995FB99276E
:1030200090F986FB882780F9981751F0C2010E9419
:103030009F16F8018081F0E48F27F801808303C098
:10304000C2010E941A08F40110821182F601108256
:10305000F5011082212C412C512C30C0E82FF0E0DA
:10306000E40DF51D823010F4648B02C0329760834A
:10307000F50180810E945916F5018083F601808157
:103080008F5F8083212C1AC02224239417C088E5E7
:103090008E9DE0018F9DD00D1124CC5ADB4D6E0129
:1030A000F3E1CF0ED11C5E0124E1A20EB11C8E0112
:1030B0000B5E1F4F4E0136E1830E911CC3010E942F
:1030C000B502882309F44DCFF701EE55F94D208262
:1030D000DF91CF911F910F91FF90EF90DF90CF90F4
:1030E000BF90AF909F908F907F906F905F904F9028
:1030F0003F902F900895E0914A21F0914B21309715
:1031000051F410924C2110924D2180914E218F77D5
:1031100080934E2113C08289938980934A21909392
:103120004B21892B49F480914E218F7780934E213A
:1031300010924C2110924D21128A138ACF010895CA
:10314000DF92EF92FF920F931F93CF93DF93D82ECE
:10315000E82EF12C88E5D89E80011124E801CC5A94
:10316000DB4D8E8581FF10C004571B4DC8010E94A6
:10317000B502882329F0688189E00E94051A04C0FD
:10318000B80189E00E947F0288E58E9DE0018F9D55
:10319000D00D11248E010C5A1B4DF801868580FF3D
:1031A00011C0C457DB4DCE010E94B502882331F017
:1031B000F801608188E00E94051A04C0BE0188E021
:1031C0000E947F0288E58E9D80018F9D100D112445
:1031D000E801CC5ADB4D4E854C7F4E8747FF37C008
:1031E00046FF35C08D858150843078F0C8018B5AF8
:1031F0009B4D0E94EF098D2D0E94190394E09D873D
:103200008E85806489278E8722C08D8742FB442764
:1032100040F96F8578898D2D0E94CD168E858F7B24
:103220008E870E945C096E5C7F4F8F4F9F4F6B8330
:103230007C838D839E83C8018B5A9B4DDF91CF91F8
:103240001F910F91FF90EF90DF900C94A709DF91F1
:10325000CF911F910F91FF90EF90DF900895089507
:1032600080930B2260930C2240930D22289FC00173
:103270001124269FB0011124249FA00111248095C0
:1032800090956095709540955095E0E0F8E080AF9E
:1032900091AF82AF93AFE0E0F9E060AF71AF42AFC2
:1032A00053AFE0E4F8E060AF71AF42AF53AF0895C1
:1032B000E0E0F8E080818360808333E331838FEF47
:1032C0009FEF86AB97AB10AE11AE12AE13AEA0E47B
:1032D000B6E023E011962C931197E0E4F8E0208308
:1032E000318386AB97AB10AE11AE12AE13AE40E396
:1032F00011964C93E0E0F9E02083318386AB97ABE5
:1033000010AE11AE12AE13AEE0E6F6E021830895E2
:10331000CF92DF92EF92FF920F931F93CF93DF93A1
:103320008C017B01EA0130E2C32E1EC0602F6F7159
:10333000DC2CD61A8D2D90E0C817D9070CF4DC2EA2
:103340004D2DC7010E94D112C80125E096958795A1
:103350002A95E1F70E94FC124D2D50E0C41BD50BBD
:10336000040F151FE40EF51E209701F7DF91CF9192
:103370001F910F91FF90EF90DF90CF900895EF9203
:10338000FF920F931F93CF93DF937A01E60EF71E00
:10339000EB018C010FC0BE016F717727CE0145E0B4
:1033A000969587954A95E1F70E942A12F801819334
:1033B0008F012196CE15DF0571F7DF91CF911F9117
:1033C0000F91FF90EF900895CF9360E080E00E940E
:1033D0002A12C82F61E080E00E942A123C2F20E0D0
:1033E000282BC901CF910895FB01918195FFFCCF56
:1033F00080830895FC01218127FF03C0208130E0F4
:1034000002C02FEF3FEFC9010895663078F470E0F5
:10341000FB01EE0FFF1FE60FF71FE855F94D9281F4
:10342000911104C0608171810C94F4190895863063
:10343000A0F490E0FC01EE0FFF1FE80FF91FE85524
:10344000F94D8281811109C00190F081E02D8181C7
:1034500087FF03C0208130E002C02FEF3FEFC9019A
:103460000895FC0188E1848383E085838CE3838372
:1034700083E38683178208956115710539F0FC0195
:10348000608371831282CB010C94311A0895FF92EC
:103490000F931F93CF93DF93C0E6D6E030E8F32E6F
:1034A000F98280EB99E08093B7269093B82610922A
:1034B000B9260E94311A00E416E0F801F18280EB8F
:1034C00098E08093AB269093AC261092AD260E9494
:1034D000311A48E0F42EE0E8F6E0F18280EA9AE062
:1034E0008093B4269093B5261092B6260E94311A86
:1034F000E0EAF6E0F18280EA9BE08093AE269093CA
:10350000AF261092B0260E94311AF801F18280EAAB
:1035100098E08093B1269093B2261092B3260E9431
:10352000311AF98280EA99E08093A8269093A9261F
:103530001092AA26DF91CF911F910F91FF900C94CA
:10354000311A1F920F920FB60F9211240BB60F92E1
:103550002F933F934F935F936F937F938F939F939B
:10356000AF93BF93EF93FF938091B00964E276E24B
:103570000E947F02FF91EF91BF91AF919F918F9138
:103580007F916F915F914F913F912F910F900BBE63
:103590000F900FBE0F901F9018951F920F920FB6AD
:1035A0000F9211240BB60F922F933F934F935F937B
:1035B0006F937F938F939F93AF93BF93EF93FF93FB
:1035C00084E496E20E949A028F3F2FEF920711F057
:1035D0008093B009FF91EF91BF91AF919F918F912F
:1035E0007F916F915F914F913F912F910F900BBE03
:1035F0000F900FBE0F901F9018951F920F920FB64D
:103600000F9211240BB60F922F933F934F935F931A
:103610006F937F938F939F93AF93BF93EF93FF939A
:103620008091B00864EC74E20E947F02FF91EF91F8
:10363000BF91AF919F918F917F916F915F914F91CA
:103640003F912F910F900BBE0F900FBE0F901F90C8
:1036500018951F920F920FB60F9211240BB60F926E
:103660002F933F934F935F936F937F938F939F938A
:10367000AF93BF93EF93FF9384EE94E20E949A027C
:103680008F3F2FEF920711F08093B008FF91EF91D9
:10369000BF91AF919F918F917F916F915F914F916A
:1036A0003F912F910F900BBE0F900FBE0F901F9068
:1036B00018951F920F920FB60F9211240BB60F920E
:1036C0002F933F934F935F936F937F938F939F932A
:1036D000AF93BF93EF93FF938091A00B6CE175E2E2
:1036E0000E947F02FF91EF91BF91AF919F918F91C7
:1036F0007F916F915F914F913F912F910F900BBEF2
:103700000F900FBE0F901F9018951F920F920FB63B
:103710000F9211240BB60F922F933F934F935F9309
:103720006F937F938F939F93AF93BF93EF93FF9389
:103730008CE395E20E949A028F3F2FEF920711F0DF
:103740008093A00BFF91EF91BF91AF919F918F91CB
:103750007F916F915F914F913F912F910F900BBE91
:103760000F900FBE0F901F9018951F920F920FB6DB
:103770000F9211240BB60F922F933F934F935F93A9
:103780006F937F938F939F93AF93BF93EF93FF9329
:103790008091A00A6CEC75E20E947F02FF91EF918C
:1037A000BF91AF919F918F917F916F915F914F9159
:1037B0003F912F910F900BBE0F900FBE0F901F9057
:1037C00018951F920F920FB60F9211240BB60F92FD
:1037D0002F933F934F935F936F937F938F939F9319
:1037E000AF93BF93EF93FF938CEE95E20E949A0202
:1037F0008F3F2FEF920711F08093A00AFF91EF9176
:10380000BF91AF919F918F917F916F915F914F91F8
:103810003F912F910F900BBE0F900FBE0F901F90F6
:1038200018951F920F920FB60F9211240BB60F929C
:103830002F933F934F935F936F937F938F939F93B8
:10384000AF93BF93EF93FF938091A00864E775E275
:103850000E947F02FF91EF91BF91AF919F918F9155
:103860007F916F915F914F913F912F910F900BBE80
:103870000F900FBE0F901F9018951F920F920FB6CA
:103880000F9211240BB60F922F933F934F935F9398
:103890006F937F938F939F93AF93BF93EF93FF9318
:1038A00084E995E20E949A028F3F2FEF920711F070
:1038B0008093A008FF91EF91BF91AF919F918F915D
:1038C0007F916F915F914F913F912F910F900BBE20
:1038D0000F900FBE0F901F9018951F920F920FB66A
:1038E0000F9211240BB60F922F933F934F935F9338
:1038F0006F937F938F939F93AF93BF93EF93FF93B8
:103900008091A0096CE674E20E947F02FF91EF9122
:10391000BF91AF919F918F917F916F915F914F91E7
:103920003F912F910F900BBE0F900FBE0F901F90E5
:1039300018951F920F920FB60F9211240BB60F928B
:103940002F933F934F935F936F937F938F939F93A7
:10395000AF93BF93EF93FF938CE894E20E949A0297
:103960008F3F2FEF920711F08093A009FF91EF9105
:10397000BF91AF919F918F917F916F915F914F9187
:103980003F912F910F900BBE0F900FBE0F901F9085
:1039900018950F931F93F894E0E0F4E080859185EB
:1039A0000091BA261091BB2620E030E09801112743
:1039B0000027A0E0B0E0082B192B2A2B3B2B789492
:1039C000B801C9011F910F91089580915000826044
:1039D000809350008091510081FFFCCF88ED84BF1F
:1039E00081E080934000089580915000846080932E
:1039F00050008091510082FFFCCF81E08093000451
:103A000085E08093430083E08093020410920804D1
:103A10001092090408950E94E51C0C94F41C1F9256
:103A20000F920FB60F9211248F939F938091BA2615
:103A30009091BB2601968093BA269093BB269F91C6
:103A40008F910F900FBE0F901F9018952FB7F8947D
:103A5000E0E0F2E084A195A134E0959587953A9550
:103A6000E1F780936A2690936B262FBF0895E0E0DC
:103A7000F2E081E0808396E1918392E1928397E086
:103A8000948381A393E090A392E092A383A380A167
:103A9000806880A30895E0E0F6E091E0918380E201
:103AA0008183968386839283828308951F920F92E7
:103AB0000FB60F9211240BB60F922F933F934F9393
:103AC0005F936F937F938F939F93AF93BF93CF93A6
:103AD000DF93EF93FF93C0E0D2E08BA181608BA3D3
:103AE0000E94261D88A1806888A3FF91EF91DF9135
:103AF000CF91BF91AF919F918F917F916F915F9186
:103B00004F913F912F910F900BBE0F900FBE0F90D2
:103B10001F9018956F927F928F929F92AF92BF9253
:103B2000CF92DF92EF92FF920F931F93CF93DF9389
:103B30004B015C018A01E901C12C88E4D82E88EE92
:103B4000E82EFF24F394C701B601A50194010E9459
:103B50000F2693E0692EF801668226A337A3772407
:103B600073947082A3E0B0E0A50194010E94D02577
:103B70009B01AC01C701B6010E940F266E822EA3E5
:103B80003FA37882DF91CF911F910F91FF90EF902B
:103B9000DF90CF90BF90AF909F908F907F906F906D
:103BA0000895FC01408751876683778310821182D4
:103BB00012820895E0E6F6E080E68583818380E95D
:103BC000828384898861848B87898861878B10923E
:103BD000CA26E0E0FAE033E0368381E493E086A38E
:103BE00097A321E02083E0E4F9E0368385E191E0CA
:103BF00086A397A320830895CF93DF93EC01888554
:103C000099850E94B502811107C0888599850E9417
:103C10009A029C01332702C02FEF3FEFC901DF91C9
:103C2000CF9108958F3F2FEF920731F0880F991FA2
:103C30009260FB01818392830895FB01218132818F
:103C4000232BD9F790E00C94121EFC0180859185FE
:103C50000E94B50221E030E0882311F020E030E03E
:103C6000C90108951F920F920FB60F9211240BB63F
:103C70000F922F933F934F935F936F937F938F9305
:103C80009F93AF93BF93EF93FF938091C1268111D0
:103C90003BC08091C02681110BC08091680684FDD5
:103CA00036C081E08093C0268093BF2683E02DC07C
:103CB0008130B9F48091680684FF07C08091BC26EA
:103CC0009091BF26892B8093BC268091BF26880FB8
:103CD0008093BF26811103C082E08093C02682E0DA
:103CE00014C08230A1F48091680684FF0AC08091DC
:103CF000BC266091C4267091C5260E947F02109256
:103D0000BC261092C02603C081508093C1268091AA
:103D1000CB2681113BC08091CA2681110BC08091B6
:103D2000680687FD36C081E08093CA268093C92645
:103D300083E02DC08130B9F48091680687FF07C009
:103D40008091C6269091C926892B8093C6268091A2
:103D5000C926880F8093C926811103C082E0809311
:103D6000CA2682E014C08230A1F48091680687FFE1
:103D70000AC08091C6266091CE267091CF260E94FF
:103D80007F021092C6261092CA2603C081508093EB
:103D9000CB26FF91EF91BF91AF919F918F917F9132
:103DA0006F915F914F913F912F910F900BBE0F90AC
:103DB0000FBE0F901F901895FC01608371834863BC
:103DC000DB0111964C93A081B18115962C93019043
:103DD000F081E02D81E084830895DC01ED91FC9178
:103DE000848183700895FC01878580E008950F9396
:103DF000CF93DF93FC01253050F5053040F58785E2
:103E0000811125C081E08787108A660F6283DA01FD
:103E100080E090E006C03D91EF01C80FD91F3B83C1
:103E200001968217C0F3238704871586168683853B
:103E3000882319F082818E7F05C08485882349F00C
:103E4000828181600190F081E02D868302C080E054
:103E500001C081E0DF91CF910F9108950F93042F5E
:103E600020E040E050E00E94F71E0F9108950F936C
:103E700000E00E94F71E0F910895FC01A081B1811E
:103E800014968C91149782FF02C094E001C093E0D5
:103E9000908B886014968C9317860895CF93DF9348
:103EA000FC0193858485A081B18114962C9114978F
:103EB00024FF05C083E013968C9385E01AC0258506
:103EC000291758F48585EF01C80FD11D8B811796EE
:103ED0008C9385858F5F85870EC09685981728F40B
:103EE0008281816016968C9306C083E013968C9332
:103EF00081E0808B1786DF91CF910895FC01868544
:103F0000A081B181843060F417968C919685DF0191
:103F1000A90FB11D17968C9386858F5F868706C083
:103F200083E013968C9382E0808B17868485968538
:103F3000A081B181981720F482E013968C930895A4
:103F400087E013968C9381E0808B17860895DC01BF
:103F5000ED91FC912481322F3C7011F00C943D1FA7
:103F600026FD0C944E1F27FD0C947E1F26E0FC01BD
:103F7000208B17860895FC01608B17860895FC013D
:103F8000138288E1848383E0858380E186831782BE
:103F9000089580E090E008958FEF9FEF08950895D1
:103FA0002F923F924F925F926F927F928F929F9249
:103FB000AF92BF92CF92DF92EF92FF920F931F9337
:103FC000CF93DF93CDB7DEB76397CDBFDEBF7C0164
:103FD0005B018A01FC0116821782838181FD03C087
:103FE0006DC3860105C088248394912C8C0E9D1E80
:103FF000F7019381F50193FD859193FF81915F0115
:10400000882309F457C3853239F493FD859193FFD2
:1040100081915F01853231F4B70190E00E94092956
:104020006801DFCF412C512C20E02032A8F48B32E4
:1040300061F028F4803251F0833271F40BC08D327C
:1040400039F0803349F4216028C02260246025C003
:10405000286023C0206121C027FD27C0382F30539E
:104060003A3078F426FF06C0FAE04F9E300D112456
:10407000432E13C08AE0589E300D1124532E206227
:104080000CC08E3221F426FD15C3206406C08C3688
:1040900011F4206802C0883641F4F50193FD859142
:1040A00093FF81915F018111C0CF982F9554933078
:1040B00018F42061805E06C0982F9556933008F062
:1040C000A1C12F7E26FD02C056E0452E4FE3742E7F
:1040D0007222853619F4F0E47F2A07C0863619F477
:1040E00020E8722A02C041104A9477FE07C03BE3E1
:1040F000341548F0342C339427E00DC087E0841544
:1041000030F0242D07C027E03CE3332E04C027E025
:1041100097E0492E312C680194E0C90ED11CF801BA
:104120006081718182819381032DA4010E94042802
:104130008C0129812C8720FF02C023FF07C071FC5E
:1041400008C072FE09C080E2682E07C0BDE26B2E77
:1041500004C0ABE26A2E01C0612C8C858C70A1F189
:10416000662011F084E001C083E0851510F0512C29
:104170000BC0581A73FC08C0B70180E290E00E949F
:1041800009295A94C9F7F3CF662029F0B701862D83
:1041900090E00E9409293C8533FD03C00CEE11E03C
:1041A0000CC008EE11E009C071108052B70190E018
:1041B0000E9409290F5F1F4F02C080E17822F80199
:1041C00084918111F1CF73C277FE0EC0300E2C8521
:1041D00024FF04C08A81813309F43A9413144CF506
:1041E00038E0331548F12CC076FC2AC0242D30E08D
:1041F0002017310744F00C3F8FEF180724F090E8A8
:10420000792A01C04A94442049F0E2E0F0E0EC0F42
:10421000FD1FE40DF11D80818033A1F377FE10C0F6
:10422000342C3394242D30E00217130744F4401A41
:1042300007C03324339404C0F8E03F2E01C0412C62
:1042400077FE07C0101611063CF498012F5F3F4F10
:1042500005C025E030E002C021E030E0662011F02A
:104260002F5F3F4F442031F0442D50E04F5F5F4FB0
:10427000240F351F452D50E02417350714F4521A2A
:1042800001C0512C872D897049F406C0B70180E226
:1042900090E00E9409295A945110F8CF662029F025
:1042A000B701862D90E00E94092973FC09C006C061
:1042B000B70180E390E00E9409295A945110F8CF89
:1042C00077FE53C0380117FF02C0612C712C1D8688
:1042D0001E869801231931092F87388B180126185B
:1042E0003708280C391C642D70E022273327261B41
:1042F000370B298B3A8B3FEF6316730629F4B7010E
:104300008EE290E00E940929061517055CF02F85C2
:1043100038892615370534F4ED85FE85E20DF31D49
:10432000818101C080E331E0631A71082D853E85EB
:104330002F5F3F4F2D873E8729893A896216730682
:104340002CF0B70190E00E940929D5CF60167106C4
:1043500049F49A81963328F4953321F43C8534FD51
:1043600001C081E3B70190E04AC08A81813319F02E
:104370002C852F7E2C87B70190E00E9409294110DF
:1043800005C074FE16C085E490E015C0B7018EE24A
:1043900090E00E940929E2E06E2EF401E60DF11D85
:1043A0006394B701808190E00E9409294A94A9F79B
:1043B000E8CF85E690E0B7010E94092917FD06C005
:1043C0000115110541F43C8534FF05C01195019597
:1043D00011098DE201C08BE2B70190E00E9409292A
:1043E00080E303C08F5F0A5011090A301105D4F72A
:1043F000B70190E00E940929B701C801C0960E9448
:10440000092955C1833631F0833781F0833509F0AE
:104410005EC024C0680182E0C80ED11CF801808112
:10442000898366246394712C840114C06801F2E0CE
:10443000CF0ED11CF8010081118126FF03C0642D2D
:1044400070E002C06FEF7FEFC8012B8B0E94FE2847
:104450003C012B896FE7462E422217C06801F2E02B
:10446000CF0ED11CF8010081118126FF03C0642DFD
:1044700070E002C06FEF7FEFC8012B8B0E94DC2839
:104480003C012B8950E8452E422A43FC1CC006C043
:10449000B70180E290E00E9409295A94852D90E0AE
:1044A00068167906A8F30FC0F80147FC859147FE0E
:1044B00081918F01B70190E00E94092951105A940F
:1044C000F1E06F1A71086114710471F7F0C084365D
:1044D00011F0893661F5680127FF09C034E0C30E89
:1044E000D11CF80160817181828193810AC0F2E060
:1044F000CF0ED11CF80160817181882777FD8095EE
:10450000982F4FE6742E722297FF09C090958095E0
:10451000709561957F4F8F4F9F4FF0E87F2A2AE07B
:1045200030E0A4010E948629682E681847C08537AC
:1045300031F43FEE732E72222AE030E024C099EF6E
:10454000792E72228F36B9F020F4883509F0B2C086
:104550000DC0803721F0883709F0ACC002C020E1DF
:10456000722A74FE0BC034E0732A08C024FF09C00D
:1045700086E0782A06C028E030E005C020E130E07F
:1045800002C020E132E0680177FE09C094E0C90E64
:10459000D11CF801608171818281938108C0F2E0B1
:1045A000CF0ED11CF8016081718180E090E0A40100
:1045B0000E948629682E6818FFE77F2276FE0BC0CE
:1045C000072D0E7F641450F474FE0AC072FC08C0FC
:1045D000072D0E7E05C0162D072D03C0162D01C018
:1045E000142D04FF0CC0FE01E60DF11D8081803307
:1045F00011F4097E08C002FF05C01E5F04C0802FB1
:10460000867809F01F5F03FD12C000FF0DC0462C25
:10461000151550F4450C411A152D06C0B70180E25E
:1046200090E00E9409291F5F1515C0F304C01515FD
:1046300010F4511A01C0512C04FF10C0B70180E3DF
:1046400090E00E94092902FF1EC001FF03C088E517
:1046500090E002C088E790E0B7010CC0802F867818
:1046600091F001FD02C080E201C08BE207FD8DE206
:10467000B70190E00E94092906C0B70180E390E0ED
:104680000E9409294A946414C0F36A94F401E60D67
:10469000F11DB701808190E00E9409296110F5CFDA
:1046A00006C0B70180E290E00E9409295A94511097
:1046B000F8CF97CCF7012681378102C02FEF3FEF6B
:1046C000C9016396CDBFDEBFDF91CF911F910F91DE
:1046D000FF90EF90DF90CF90BF90AF909F908F9022
:1046E0007F906F905F904F903F902F9008950C9423
:1046F00031095058BB27AA270ED06CC15DD130F0CC
:1047000062D120F031F49F3F11F41EF452C10EF437
:10471000E095E7FB48C1E92F6ED180F3BA17620735
:1047200073078407950718F071F49EF586C10EF49F
:10473000E0950B2EBA2FA02D0B01B90190010C01B1
:10474000CA01A0011124FF27591B99F0593F50F4C9
:10475000503E68F11A16F040A22F232F342F442721
:10476000585FF3CF469537952795A795F040539519
:10477000C9F77EF41F16BA0B620B730B840BBAF0E9
:104780009150A1F0FF0FBB1F661F771F881FC2F754
:104790000EC0BA0F621F731F841F48F48795779568
:1047A0006795B795F7959E3F08F0B3CF9395880F1F
:1047B00008F09927EE0F9795879508950CD00AC1B8
:1047C00002D140F0F9D030F021F45F3F19F0EBC096
:1047D000511134C1EEC00FD198F39923C9F3552379
:1047E000B1F3951B550BBB27AA27621773078407E4
:1047F00038F09F5F5F4F220F331F441FAA1FA9F39A
:1048000033D00E2E3AF0E0E830D091505040E6958B
:10481000001CCAF729D0FE2F27D0660F771F881FEC
:10482000BB1F261737074807AB07B0E809F0BB0BDB
:10483000802DBF01FF2793585F4F2AF09E3F5105FF
:1048400068F0B1C0FBC05F3FECF3983EDCF38695A7
:1048500077956795B795F7959F5FC9F7880F911D75
:104860009695879597F90895E1E0660F771F881F61
:10487000BB1F621773078407BA0720F0621B730B14
:10488000840BBA0BEE1F88F7E095089504D0689466
:10489000B111D4C00895B7D088F09F5790F0B92FC8
:1048A0009927B751A0F0D1F0660F771F881F991F85
:1048B0001AF0BA95C9F712C0B13081F0BED0B1E09C
:1048C0000895BBC0672F782F8827B85F39F0B93FAC
:1048D000CCF3869577956795B395D9F73EF4909587
:1048E0008095709561957F4F8F4F9F4F0895E89405
:1048F00009C097FB3EF490958095709561957F4F28
:104900008F4F9F4F9923A9F0F92F96E9BB279395D5
:10491000F695879577956795B795F111F8CFFAF4E5
:10492000BB0F11F460FF1BC06F5F7F4F8F4F9F4F16
:1049300016C0882311F096E911C0772321F09EE874
:10494000872F762F05C0662371F096E8862F70E0DA
:1049500060E02AF09A95660F771F881FDAF7880FB4
:104960009695879597F90895990FBB0B550FAA0B4C
:10497000E0E8FEEF16161706E807F90770F01216C2
:104980001306E407F50760F0BA173CF049F4621724
:10499000730784079507A7951BF4B901CA01BA2FBD
:1049A000B6959795089597F99F6780E870E060E065
:1049B00008959FEF80EC089500240A9416161706B8
:1049C00018060906089500240A9412161306140600
:1049D00005060895092E0394000C11F4882352F063
:1049E000BB0F40F4BF2B11F460FF04C06F5F7F4F1B
:1049F0008F4F9F4F089557FD9058440F551F59F002
:104A00005F3F71F04795880F97FB991F61F09F3FBB
:104A100079F087950895121613061406551FF2CFE4
:104A20004695F1DF08C0161617061806991FF1CF34
:104A300086957105610508940895E894BB2766275B
:104A40007727CB0197F908950BD0C4CFB5DF28F0B5
:104A5000BADF18F0952309F0A6CFABCF1124EECF23
:104A6000CADFA0F3959FD1F3950F50E0551F629FC9
:104A7000F001729FBB27F00DB11D639FAA27F00DB7
:104A8000B11DAA1F649F6627B00DA11D661F829FDE
:104A90002227B00DA11D621F739FB00DA11D621FC3
:104AA000839FA00D611D221F749F3327A00D611DE0
:104AB000231F849F600D211D822F762F6A2F1124C2
:104AC0009F5750408AF0E1F088234AF0EE0FFF1F15
:104AD000BB1F661F771F881F91505040A9F79E3F4C
:104AE000510570F060CFAACF5F3FECF3983EDCF346
:104AF000869577956795B795F795E7959F5FC1F789
:104B0000FE2B880F911D9695879597F908957BDF69
:104B1000E0F09E37D8F09639B8F49E3848F4672F05
:104B2000782F8827985FF9CF869577956795939525
:104B30009539D0F3B62FB1706B0F711D811D20F424
:104B4000879577956795939502C01CC077CF88238A
:104B500071F4772321F09850872B762F07C06623B6
:104B600011F499270DC09051862B70E060E02AF077
:104B70009A95660F771F881FDAF7880F96958795A5
:104B800097F908959F3F31F0915020F487957795DC
:104B90006795B795880F911D9695879597F9089514
:104BA0000E943D26A59F900DB49F900DA49F800D5F
:104BB000911D11240895991B79E004C0991F96173F
:104BC00008F0961B881F7A95C9F780950895AA1B4F
:104BD000BB1B51E107C0AA1FBB1FA617B70710F0E8
:104BE000A61BB70B881F991F5A95A9F7809590951A
:104BF000BC01CD01089597FB072E16F4009407D051
:104C000077FD09D00E94E72507FC05D03EF490957A
:104C100081959F4F0895709561957F4F0895A1E20A
:104C20001A2EAA1BBB1BFD010DC0AA1FBB1FEE1F26
:104C3000FF1FA217B307E407F50720F0A21BB30B71
:104C4000E40BF50B661F771F881F991F1A9469F7ED
:104C500060957095809590959B01AC01BD01CF0149
:104C600008950024A7FD00942A173005400550053B
:104C700060057005800590050895A29FB001B39F5F
:104C8000C001A39F01D0B29F700D811D1124911D01
:104C900008950F931F93CF93DF93689F8001699FBF
:104CA000100D789F100D1124C8010E946726C82F8F
:104CB000D92F209731F0A80160E070E08C2F0E947E
:104CC000F028CE01DF91CF911F910F9108950F939E
:104CD0001F93CF93DF938230910510F482E090E030
:104CE000E091E026F091E12620E030E0C0E0D0E065
:104CF00023C04081518148175907A8F04817590728
:104D000061F482819381209719F08A839B832EC05E
:104D10008093E0269093E12629C02115310529F0E2
:104D20004217530710F0A90102C0BE01DF01028142
:104D30001381EF019A01F8013097D9F62115310559
:104D400009F1281B390B2430310590F412968D910E
:104D50009C9113976115710521F0FB018283938368
:104D600004C08093E0269093E126FD01329644C072
:104D7000FD01E20FF31F81939193225031092D938E
:104D80003C933AC02091DE263091DF26232B41F45C
:104D900020911F20309120202093DE263093DF26A3
:104DA00020911D2030911E202115310541F42DB791
:104DB0003EB74091212050912220241B350BE091D9
:104DC000DE26F091DF26E217F307A0F42E1B3F0B3F
:104DD0002817390778F0AC014E5F5F4F241735076D
:104DE00048F04E0F5F1F4093DE265093DF268193DD
:104DF000919302C0E0E0F0E0CF01DF91CF911F91ED
:104E00000F910895EF92FF920F931F93CF93DF932B
:104E1000009709F48EC0DC01129712961D921C9225
:104E20001397E090E026F090E126E114F10489F474
:104E30002D913C911197280F391F8091DE2690917A
:104E4000DF268217930789F5A093DE26B093DF262D
:104E500070C0E70120E030E001C0EA01CA17DB07BB
:104E600038F44A815B819E0141155105B1F722C09A
:104E7000AC0142505109FA01C283D38300811181F0
:104E8000BC01600F711F6C177D0761F46881798127
:104E9000600F711F6E5F7F4F608371836A817B81BA
:104EA000628373832115310529F4A093E026B09322
:104EB000E1263FC0F901A283B383E90149915991E9
:104EC000C40FD51FAC17BD0771F4DC019E918E9104
:104ED000840F951F02968083918312968D919C91E9
:104EE000139782839383A0E0B0E002C0D7017C01D6
:104EF000F701828193810097C9F7C701029620814B
:104F00003181820F931F2091DE263091DF262817F2
:104F1000390779F4109729F41092E0261092E126CF
:104F200004C012961D921C921397E092DE26F09216
:104F3000DF26DF91CF911F910F91FF90EF900895A1
:104F40008F929F92AF92BF92CF92DF92EF92FF9299
:104F5000CF93DF93EC01688179818A819B81611510
:104F600071058105910521F464E279ED8BE597E007
:104F70002DE133EF41E050E00E94EC2949015A0154
:104F80009B01AC01A7EAB1E40E94D0256B017C0132
:104F9000ACEEB4EFA50194010E94E729C60ED71E1E
:104FA000E81EF91EF7FE06C081E0C81AD108E10824
:104FB00080E8F80AC882D982EA82FB82E894D7F8AE
:104FC000EE24FF24C601DF91CF91FF90EF90DF9098
:104FD000CF90BF90AF909F908F9008950C94A02792
:104FE00083E290E20C94A027A0E0B0E0809323201D
:104FF00090932420A0932520B0932620089581E04B
:1050000090E0F8940C94082A283008F027E0332721
:10501000DA01990F311D87FD9160009661057105D8
:1050200039F432602E5F3D9330E32A95E1F708951D
:105030009F3F30F080387105610509F03C5F3C5FAF
:105040003D93913008F08068911DDF93CF931F93BB
:105050000F93FF92EF92192F987F9695E92F9695CF
:105060009695E90FFF27E65BFD4F99273327EE243E
:10507000FF24A701E70105900894079428F4360F50
:10508000E71EF81E491F511D660F771F881F991FC5
:105090000694A1F70590079428F4E70EF81E491F1F
:1050A000561FC11D770F881F991F661F0694A1F711
:1050B0000590079428F4F80E491F561FC71FD11DED
:1050C000880F991F661F771F0694A1F70590079414
:1050D00020F4490F561FC71FD81F990F661F771F4F
:1050E000881F0694A9F784911095177041F0D69502
:1050F000C79557954795F794E7941A95C1F7E0EF50
:10510000F1E0689415901591359165919591059010
:105110007FE27395E118F10A430B560BC90BD009D6
:10512000C0F7E10CF11E431F561FC91FD01D7EF4AE
:10513000703311F48A95E6CFE894015030F0080FEF
:105140000AF40027021708F4202F2395022F7A3340
:1051500028F079E37D932A95E9F710C07D932A958D
:1051600089F6069497956795379517951794E118E2
:10517000F10A430B560BC90BD00998F023957E9189
:1051800073957A3308F070E37C932013B8F77E911F
:1051900070617D9330F0839571E37D9370E32A9580
:1051A000E1F71124EF90FF900F911F91CF91DF91C4
:1051B000992787FD90950895FC01059061507040F6
:1051C0000110D8F7809590958E0F9F1F0895FB01D1
:1051D000DC0102C001900D9241505040D8F7089573
:1051E000DC0101C06D9341505040E0F70895FB0190
:1051F000DC0101900D920020E1F70895FC0161505F
:10520000704001900110D8F7809590958E0F9F1FE8
:1052100008950F931F93CF93DF938C01EB018B8144
:1052200081FD03C00FEF1FEF1AC082FF0DC02E815A
:105230003F818C819D812817390764F4E881F981C9
:105240000193E883F98306C0E885F985802F1995D5
:10525000892B41F78E819F8101968E839F83C801A0
:10526000DF91CF911F910F910895CF93DF931F92FC
:105270001F92CDB7DEB7FE01389661917191E98337
:10528000FA83AF018091E4269091E5260E94D01F19
:105290000F900F90DF91CF9108950F931F93CF93AD
:1052A000DF93CDB7DEB76097CDBFDEBF088D198D18
:1052B0008A8D9B8D26E02C8309831A8397FF02C079
:1052C00080E090E801978D839E83AE01425E5F4F40
:1052D0004F87588B6C8D7D8DCE0101960E94D01F1B
:1052E0004D815E8157FD0AC02F81388542175307D3
:1052F0000CF49A01F801E20FF31F10826096CDBF03
:10530000DEBFDF91CF911F910F910895FA01AA2777
:10531000283051F1203181F1E8946F936E7F6E5FF8
:105320007F4F8F4F9F4FAF4FB1E03ED0B4E03CD0A6
:10533000670F781F891F9A1FA11D680F791F8A1F89
:10534000911DA11D6A0F711D811D911DA11D20D0F0
:1053500009F468943F912AE0269F11243019305DAA
:105360003193DEF6CF010895462F4770405D41939B
:10537000B3E00FD0C9F7F6CF462F4F70405D4A33E8
:1053800018F0495D31FD4052419302D0A9F7EACFB0
:10539000B4E0A6959795879577956795BA95C9F7DF
:1053A00000976105710508959B01AC010A2E0694D2
:1053B0005795479537952795BA95C9F7620F731F8B
:1053C000841F951FA01D0895B7FF0C94D0250E943F
:1053D000D025821B930B0895052E97FB16F400949D
:1053E00007D057FD0DD00E940F2607FC09D07EF490
:1053F00090958095709561957F4F8F4F9F4F089541
:1054000050954095309521953F4F4F4F5F4F0895F0
:04541000F894FFCF3E
:10541400FFFF0000E12D00FFEB0000FF0000FFFF95
:105424000000FFFFFFFFFF00FFFF002DC80000E8A2
:1054340026200001000000636F6C6F7220636861B6
:105444006E676520746F2052454400636F6C6F7201
:10545400206368616E676520746F204F52414E4728
:105464004500636F6C6F72206368616E67652074BA
:105474006F2059454C4C4F5700636F6C6F7220631B
:1054840068616E676520746F20475245454E00631E
:105494006F6C6F72206368616E676520746F204162
:1054A40051554100636F6C6F72206368616E67656C
:1054B40020746F20424C554500636F6C6F722063FB
:1054C40068616E676520746F2057484954450063CE
:1054D4006F6C6F72206368616E676520746F205013
:1054E4005552504C4500636F6C6F72206368616E57
:1054F400676520746F2050494E4B00554E4B4E4FFC
:10550400574E20434F4D4D414E4400733A20256C75
:10551400752C20723A20256C752C20633A20256C5A
:10552400752C2073703A2025660053522069733A13
:065534002025780D0A009D
:00000001FF
